{
  "_format": "hh-sol-artifact-1",
  "contractName": "CitiClaims",
  "sourceName": "contracts/BankContract.sol",
  "abi": [
    {
      "inputs": [
        {
          "internalType": "address",
          "name": "depositoryContractAddress",
          "type": "address"
        },
        {
          "internalType": "string",
          "name": "market",
          "type": "string"
        },
        {
          "internalType": "uint256",
          "name": "accountNumber",
          "type": "uint256"
        },
        {
          "internalType": "address",
          "name": "ethAddress",
          "type": "address"
        },
        {
          "internalType": "string",
          "name": "publicKey",
          "type": "string"
        }
      ],
      "stateMutability": "nonpayable",
      "type": "constructor"
    },
    {
      "anonymous": false,
      "inputs": [
        {
          "indexed": true,
          "internalType": "bytes32",
          "name": "claimIdentifier",
          "type": "bytes32"
        },
        {
          "indexed": false,
          "internalType": "uint256",
          "name": "amountOwed",
          "type": "uint256"
        },
        {
          "indexed": true,
          "internalType": "address",
          "name": "counterpartyAddress",
          "type": "address"
        },
        {
          "indexed": false,
          "internalType": "string",
          "name": "tokenName",
          "type": "string"
        }
      ],
      "name": "ClaimAdded",
      "type": "event"
    },
    {
      "anonymous": false,
      "inputs": [
        {
          "indexed": true,
          "internalType": "bytes32",
          "name": "claimIdentifier",
          "type": "bytes32"
        },
        {
          "indexed": false,
          "internalType": "uint256",
          "name": "amountOwed",
          "type": "uint256"
        },
        {
          "indexed": true,
          "internalType": "address",
          "name": "counterpartyAddress",
          "type": "address"
        },
        {
          "indexed": false,
          "internalType": "string",
          "name": "tokenName",
          "type": "string"
        }
      ],
      "name": "ClaimSettled",
      "type": "event"
    },
    {
      "anonymous": false,
      "inputs": [
        {
          "indexed": true,
          "internalType": "bytes32",
          "name": "claimIdentifier",
          "type": "bytes32"
        },
        {
          "indexed": false,
          "internalType": "string",
          "name": "reason",
          "type": "string"
        }
      ],
      "name": "SettlementError",
      "type": "event"
    },
    {
      "inputs": [
        {
          "internalType": "bytes32[]",
          "name": "claimIdentifiers",
          "type": "bytes32[]"
        },
        {
          "internalType": "string[]",
          "name": "encryptedClaimDatas",
          "type": "string[]"
        },
        {
          "internalType": "uint256[]",
          "name": "amountsOwed",
          "type": "uint256[]"
        },
        {
          "internalType": "address[]",
          "name": "counterpartyAddresses",
          "type": "address[]"
        },
        {
          "internalType": "string[]",
          "name": "tokenNames",
          "type": "string[]"
        }
      ],
      "name": "addClaims",
      "outputs": [],
      "stateMutability": "nonpayable",
      "type": "function"
    },
    {
      "inputs": [],
      "name": "bankDepository",
      "outputs": [
        {
          "internalType": "contract IBankDepository",
          "name": "",
          "type": "address"
        }
      ],
      "stateMutability": "view",
      "type": "function"
    },
    {
      "inputs": [
        {
          "internalType": "bytes32",
          "name": "claimIdentifier",
          "type": "bytes32"
        }
      ],
      "name": "checkIfSettled",
      "outputs": [
        {
          "internalType": "bool",
          "name": "",
          "type": "bool"
        }
      ],
      "stateMutability": "view",
      "type": "function"
    },
    {
      "inputs": [
        {
          "internalType": "uint256",
          "name": "",
          "type": "uint256"
        }
      ],
      "name": "claimHashes",
      "outputs": [
        {
          "internalType": "bytes32",
          "name": "",
          "type": "bytes32"
        }
      ],
      "stateMutability": "view",
      "type": "function"
    },
    {
      "inputs": [
        {
          "internalType": "bytes32",
          "name": "",
          "type": "bytes32"
        }
      ],
      "name": "claims",
      "outputs": [
        {
          "internalType": "string",
          "name": "encryptedClaimData",
          "type": "string"
        },
        {
          "internalType": "uint256",
          "name": "amountOwed",
          "type": "uint256"
        },
        {
          "internalType": "bool",
          "name": "isSettled",
          "type": "bool"
        },
        {
          "internalType": "address",
          "name": "counterpartyAddress",
          "type": "address"
        },
        {
          "internalType": "string",
          "name": "tokenName",
          "type": "string"
        }
      ],
      "stateMutability": "view",
      "type": "function"
    },
    {
      "inputs": [
        {
          "internalType": "bytes32",
          "name": "claimIdentifier",
          "type": "bytes32"
        }
      ],
      "name": "getClaim",
      "outputs": [
        {
          "internalType": "string",
          "name": "encryptedClaimData",
          "type": "string"
        },
        {
          "internalType": "uint256",
          "name": "amountOwed",
          "type": "uint256"
        },
        {
          "internalType": "bool",
          "name": "isSettled",
          "type": "bool"
        },
        {
          "internalType": "address",
          "name": "counterpartyAddress",
          "type": "address"
        },
        {
          "internalType": "string",
          "name": "tokenName",
          "type": "string"
        }
      ],
      "stateMutability": "view",
      "type": "function"
    },
    {
      "inputs": [],
      "name": "getClaims",
      "outputs": [
        {
          "internalType": "bytes32[]",
          "name": "ids",
          "type": "bytes32[]"
        },
        {
          "internalType": "string[]",
          "name": "encryptedData",
          "type": "string[]"
        },
        {
          "internalType": "uint256[]",
          "name": "amounts",
          "type": "uint256[]"
        },
        {
          "internalType": "bool[]",
          "name": "settledStatus",
          "type": "bool[]"
        },
        {
          "internalType": "address[]",
          "name": "counterparties",
          "type": "address[]"
        },
        {
          "internalType": "string[]",
          "name": "tokenNames",
          "type": "string[]"
        }
      ],
      "stateMutability": "view",
      "type": "function"
    },
    {
      "inputs": [],
      "name": "name",
      "outputs": [
        {
          "internalType": "string",
          "name": "",
          "type": "string"
        }
      ],
      "stateMutability": "view",
      "type": "function"
    },
    {
      "inputs": [],
      "name": "owner",
      "outputs": [
        {
          "internalType": "address",
          "name": "",
          "type": "address"
        }
      ],
      "stateMutability": "view",
      "type": "function"
    },
    {
      "inputs": [
        {
          "internalType": "bytes32",
          "name": "claimIdentifier",
          "type": "bytes32"
        }
      ],
      "name": "settleClaim",
      "outputs": [],
      "stateMutability": "nonpayable",
      "type": "function"
    },
    {
      "inputs": [
        {
          "internalType": "bytes32[]",
          "name": "claimIdentifiers",
          "type": "bytes32[]"
        }
      ],
      "name": "settleClaims",
      "outputs": [],
      "stateMutability": "nonpayable",
      "type": "function"
    }
  ],
  "bytecode": "0x60806040523480156200001157600080fd5b506040516200254f3803806200254f83398101604081905262000034916200033d565b600080546001600160a01b03199081163317909155600180546001600160a01b03881692168217905560405163eddedcb760e01b815263eddedcb79062000088908790879087903090889060040162000405565b600060405180830381600087803b158015620000a357600080fd5b505af1158015620000b8573d6000803e3d6000fd5b5050600154604051636204891b60e11b81526001600160a01b03909116925063c4091236915062000104906004016020808252600490820152631554d11d60e21b604082015260600190565b602060405180830381865afa15801562000122573d6000803e3d6000fd5b505050506040513d601f19601f8201168201806040525081019062000148919062000458565b604051631554d11d60e21b815260029060040190815260405190819003602001812080546001600160a01b039384166001600160a01b0319909116179055600154636204891b60e11b82529091169063c409123690620001c3906004016020808252600490820152631155549d60e21b604082015260600190565b602060405180830381865afa158015620001e1573d6000803e3d6000fd5b505050506040513d601f19601f8201168201806040525081019062000207919062000458565b60408051631155549d60e21b815260026004820152905190819003602401902080546001600160a01b03929092166001600160a01b0319909216919091179055506200047d9350505050565b80516001600160a01b03811681146200026b57600080fd5b919050565b634e487b7160e01b600052604160045260246000fd5b60005b83811015620002a357818101518382015260200162000289565b50506000910152565b600082601f830112620002be57600080fd5b81516001600160401b0380821115620002db57620002db62000270565b604051601f8301601f19908116603f0116810190828211818310171562000306576200030662000270565b816040528381528660208588010111156200032057600080fd5b6200033384602083016020890162000286565b9695505050505050565b600080600080600060a086880312156200035657600080fd5b620003618662000253565b60208701519095506001600160401b03808211156200037f57600080fd5b6200038d89838a01620002ac565b955060408801519450620003a46060890162000253565b93506080880151915080821115620003bb57600080fd5b50620003ca88828901620002ac565b9150509295509295909350565b60008151808452620003f181602086016020860162000286565b601f01601f19169290920160200192915050565b60a0815260006200041a60a0830188620003d7565b602083018790526001600160a01b0386811660408501528516606084015282810360808401526200044c8185620003d7565b98975050505050505050565b6000602082840312156200046b57600080fd5b620004768262000253565b9392505050565b6120c2806200048d6000396000f3fe608060405234801561001057600080fd5b50600436106100a95760003560e01c80638df0c22a116100715780638df0c22a14610184578063bdf8043514610197578063c52822f8146101aa578063c9100bcb146101c4578063d7f8fb9f146101e8578063eff0f592146101fb57600080fd5b806306fdde03146100ae578063210d5e55146100ed5780632639c060146101025780636abd1ade146101235780638da5cb5b14610159575b600080fd5b6100d76040518060400160405280600a81526020016943697469436c61696d7360b01b81525081565b6040516100e491906117e2565b60405180910390f35b6101006100fb366004611a27565b61020e565b005b610115610110366004611af9565b6105d9565b6040519081526020016100e4565b610149610131366004611af9565b60009081526003602052604090206002015460ff1690565b60405190151581526020016100e4565b60005461016c906001600160a01b031681565b6040516001600160a01b0390911681526020016100e4565b60015461016c906001600160a01b031681565b6101006101a5366004611af9565b6105fa565b6101b2610b45565b6040516100e496959493929190611c0d565b6101d76101d2366004611af9565b610f7a565b6040516100e4959493929190611cb8565b6101006101f6366004611d07565b6110ea565b6101d7610209366004611af9565b61164d565b6000546001600160a01b031633146102865760405162461bcd60e51b815260206004820152603060248201527f4f6e6c792074686520636f6e7472616374206f776e65722063616e207065726660448201526f37b936903a3434b99030b1ba34b7b71760811b60648201526084015b60405180910390fd5b83518551148015610298575082518551145b80156102a5575081518551145b80156102b2575080518551145b6102fe5760405162461bcd60e51b815260206004820152601860248201527f4172726179206c656e67746873206d757374206d617463680000000000000000604482015260640161027d565b60005b85518110156105d15760006001600160a01b03166003600088848151811061032b5761032b611d7c565b6020026020010151815260200190815260200160002060020160019054906101000a90046001600160a01b03166001600160a01b0316146103a65760405162461bcd60e51b815260206004820152601560248201527421b630b4b69030b63932b0b23c9032bc34b9ba399760591b604482015260640161027d565b6040518060a001604052808683815181106103c3576103c3611d7c565b602002602001015181526020018583815181106103e2576103e2611d7c565b6020026020010151815260200160001515815260200184838151811061040a5761040a611d7c565b60200260200101516001600160a01b0316815260200183838151811061043257610432611d7c565b60200260200101518152506003600088848151811061045357610453611d7c565b60200260200101518152602001908152602001600020600082015181600001908161047e9190611e17565b5060208201516001820155604082015160028201805460608501516001600160a01b031661010002610100600160a81b0319931515939093166001600160a81b031990911617919091179055608082015160038201906104de9082611e17565b5090505060048682815181106104f6576104f6611d7c565b60209081029190910181015182546001810184556000938452919092200155825183908290811061052957610529611d7c565b60200260200101516001600160a01b031686828151811061054c5761054c611d7c565b60200260200101517fa1dd72822d7f8a4da00716dff2874b077ddbdd1d38d838b1dcd4b1c5d50fa47c86848151811061058757610587611d7c565b60200260200101518585815181106105a1576105a1611d7c565b60200260200101516040516105b7929190611ed7565b60405180910390a3806105c981611ef8565b915050610301565b505050505050565b600481815481106105e957600080fd5b600091825260209091200154905081565b600081815260036020526040902060020154819061010090046001600160a01b031633146106895760405162461bcd60e51b815260206004820152603660248201527f4f6e6c79207468652073706563696669656420636f756e74657270617274792060448201527531b0b71039b2ba3a3632903a3434b99031b630b4b69760511b606482015260840161027d565b6000828152600360205260409020600281015460ff16156106f85760405162461bcd60e51b8152602060048201526024808201527f5468697320636c61696d2068617320616c7265616479206265656e20736574746044820152633632b21760e11b606482015260840161027d565b600060028260030160405161070d9190611f92565b908152604051908190036020019020546001600160a01b03169050806107695760405162461bcd60e51b81526020600482015260116024820152702ab739bab83837b93a32b2103a37b5b2b760791b604482015260640161027d565b6040516351c4bc1f60e11b815233600482015230602482015281906001600160a01b0382169063a389783e90604401602060405180830381865afa1580156107b5573d6000803e3d6000fd5b505050506040513d601f19601f820116820180604052508101906107d99190611f9e565b6108395760405162461bcd60e51b815260206004820152602b60248201527f43697469436c61696d73206e6f7420617070726f76656420746f207472616e7360448201526a3332b9103a37b5b2b7399760a91b606482015260840161027d565b6040516370a0823160e01b81523360048201526000906001600160a01b038316906370a0823190602401602060405180830381865afa158015610880573d6000803e3d6000fd5b505050506040513d601f19601f820116820180604052508101906108a49190611fc0565b90508360010154811015610a1d5760408051808201825260048152631554d11d60e21b602090910152517f85884bc2158f4bdc08810b487538402e011f8d8877da6a41a8debb13af295c12906108fe906003870190611f92565b604051809103902003610966578560008051602061206d833981519152604051610959906020808252601a908201527f496e73756666696369656e7420555344742062616c616e63652e000000000000604082015260600190565b60405180910390a26105d1565b60408051808201825260048152631155549d60e21b602090910152517fdfcff4c03cb7b82f49595b382a2fb552b15b4e878449e9673d29d1ea3831e3ce906109b2906003870190611f92565b6040518091039020036105d1578560008051602061206d833981519152604051610a0d906020808252601a908201527f496e73756666696369656e7420455552742062616c616e63652e000000000000604082015260600190565b60405180910390a2505050505050565b6000805460018601546040516323b872dd60e01b81523360048201526001600160a01b0392831660248201526044810191909152908416906323b872dd906064016020604051808303816000875af1158015610a7d573d6000803e3d6000fd5b505050506040513d601f19601f82011682018060405250810190610aa19190611f9e565b905080610ae85760405162461bcd60e51b8152602060048201526015602482015274151bdad95b881d1c985b9cd9995c8819985a5b1959605a1b604482015260640161027d565b60028501805460ff19166001908117909155850154604051339189917f656cde5ecad907f0e5e7a115c07b4ab29c39cca395594cf191f20287da1fcd5191610b349160038b0190611fd9565b60405180910390a350505050505050565b606080606080606080600060048054905090508067ffffffffffffffff811115610b7157610b716117fc565b604051908082528060200260200182016040528015610b9a578160200160208202803683370190505b5096508067ffffffffffffffff811115610bb657610bb66117fc565b604051908082528060200260200182016040528015610be957816020015b6060815260200190600190039081610bd45790505b5095508067ffffffffffffffff811115610c0557610c056117fc565b604051908082528060200260200182016040528015610c2e578160200160208202803683370190505b5094508067ffffffffffffffff811115610c4a57610c4a6117fc565b604051908082528060200260200182016040528015610c73578160200160208202803683370190505b5093508067ffffffffffffffff811115610c8f57610c8f6117fc565b604051908082528060200260200182016040528015610cb8578160200160208202803683370190505b5092508067ffffffffffffffff811115610cd457610cd46117fc565b604051908082528060200260200182016040528015610d0757816020015b6060815260200190600190039081610cf25790505b50915060005b81811015610f7057600060048281548110610d2a57610d2a611d7c565b906000526020600020015490506000600360008381526020019081526020016000209050818a8481518110610d6157610d61611d7c565b602090810291909101015280548190610d7990611d92565b80601f0160208091040260200160405190810160405280929190818152602001828054610da590611d92565b8015610df25780601f10610dc757610100808354040283529160200191610df2565b820191906000526020600020905b815481529060010190602001808311610dd557829003601f168201915b5050505050898481518110610e0957610e09611d7c565b60200260200101819052508060010154888481518110610e2b57610e2b611d7c565b60209081029190910101526002810154875160ff90911690889085908110610e5557610e55611d7c565b6020026020010190151590811515815250508060020160019054906101000a90046001600160a01b0316868481518110610e9157610e91611d7c565b60200260200101906001600160a01b031690816001600160a01b031681525050806003018054610ec090611d92565b80601f0160208091040260200160405190810160405280929190818152602001828054610eec90611d92565b8015610f395780601f10610f0e57610100808354040283529160200191610f39565b820191906000526020600020905b815481529060010190602001808311610f1c57829003601f168201915b5050505050858481518110610f5057610f50611d7c565b602002602001018190525050508080610f6890611ef8565b915050610d0d565b5050909192939495565b600081815260036020819052604082206001810154600282015482546060959485948594889491938493919260ff8116926101009091046001600160a01b031691908501908590610fca90611d92565b80601f0160208091040260200160405190810160405280929190818152602001828054610ff690611d92565b80156110435780601f1061101857610100808354040283529160200191611043565b820191906000526020600020905b81548152906001019060200180831161102657829003601f168201915b5050505050945080805461105690611d92565b80601f016020809104026020016040519081016040528092919081815260200182805461108290611d92565b80156110cf5780601f106110a4576101008083540402835291602001916110cf565b820191906000526020600020905b8154815290600101906020018083116110b257829003601f168201915b50505050509050955095509550955095505091939590929450565b60008060005b8381101561156057600085858381811061110c5761110c611d7c565b6020908102929092013560008181526003909352604090922060028101549293509160ff169050806111505750600281015461010090046001600160a01b03163314155b1561115c57505061154e565b60006002826003016040516111719190611f92565b908152604051908190036020019020546001600160a01b03169050806111e3578260008051602061206d8339815191526040516111d3906020808252601190820152702ab739bab83837b93a32b2103a37b5b2b760791b604082015260600190565b60405180910390a250505061154e565b6040516351c4bc1f60e11b815233600482015230602482015281906001600160a01b0382169063a389783e90604401602060405180830381865afa15801561122f573d6000803e3d6000fd5b505050506040513d601f19601f820116820180604052508101906112539190611f9e565b6112cc578360008051602061206d8339815191526040516112bb906020808252602d908201527f42616e6b436f6e7472616374206e6f7420617070726f76656420746f2074726160408201526c3739b332b9103a37b5b2b7399760991b606082015260800190565b60405180910390a25050505061154e565b6040516370a0823160e01b81523360048201526000906001600160a01b038316906370a0823190602401602060405180830381865afa158015611313573d6000803e3d6000fd5b505050506040513d601f19601f820116820180604052508101906113379190611fc0565b9050836001015481101561140f5760408051808201825260048152631554d11d60e21b602090910152517f85884bc2158f4bdc08810b487538402e011f8d8877da6a41a8debb13af295c1290611391906003870190611f92565b6040518091039020036113a75760019750611405565b60408051808201825260048152631155549d60e21b602090910152517fdfcff4c03cb7b82f49595b382a2fb552b15b4e878449e9673d29d1ea3831e3ce906113f3906003870190611f92565b60405180910390200361140557600196505b505050505061154e565b6000805460018601546040516323b872dd60e01b81523360048201526001600160a01b0392831660248201526044810191909152908416906323b872dd906064016020604051808303816000875af115801561146f573d6000803e3d6000fd5b505050506040513d601f19601f820116820180604052508101906114939190611f9e565b9050806114f3578560008051602061206d8339815191526040516114e090602080825260159082015274151bdad95b881d1c985b9cd9995c8819985a5b1959605a1b604082015260600190565b60405180910390a250505050505061154e565b60028501805460ff19166001908117909155850154604051339188917f656cde5ecad907f0e5e7a115c07b4ab29c39cca395594cf191f20287da1fcd519161153f9160038b0190611fd9565b60405180910390a35050505050505b8061155881611ef8565b9150506110f0565b5081156115d4576000801b60008051602061206d8339815191526040516115cb906020808252602a908201527f496e73756666696369656e7420555344742062616c616e636520666f7220736f60408201526936b29031b630b4b6b99760b11b606082015260800190565b60405180910390a25b8015611647576000801b60008051602061206d83398151915260405161163e906020808252602a908201527f496e73756666696369656e7420455552742062616c616e636520666f7220736f60408201526936b29031b630b4b6b99760b11b606082015260800190565b60405180910390a25b50505050565b60036020526000908152604090208054819061166890611d92565b80601f016020809104026020016040519081016040528092919081815260200182805461169490611d92565b80156116e15780601f106116b6576101008083540402835291602001916116e1565b820191906000526020600020905b8154815290600101906020018083116116c457829003601f168201915b50505050600183015460028401546003850180549495929460ff831694506101009092046001600160a01b0316929161171990611d92565b80601f016020809104026020016040519081016040528092919081815260200182805461174590611d92565b80156117925780601f1061176757610100808354040283529160200191611792565b820191906000526020600020905b81548152906001019060200180831161177557829003601f168201915b5050505050905085565b6000815180845260005b818110156117c2576020818501810151868301820152016117a6565b506000602082860101526020601f19601f83011685010191505092915050565b6020815260006117f5602083018461179c565b9392505050565b634e487b7160e01b600052604160045260246000fd5b604051601f8201601f1916810167ffffffffffffffff8111828210171561183b5761183b6117fc565b604052919050565b600067ffffffffffffffff82111561185d5761185d6117fc565b5060051b60200190565b600082601f83011261187857600080fd5b8135602061188d61188883611843565b611812565b82815260059290921b840181019181810190868411156118ac57600080fd5b8286015b848110156118c757803583529183019183016118b0565b509695505050505050565b6000601f83818401126118e457600080fd5b823560206118f461188883611843565b82815260059290921b8501810191818101908784111561191357600080fd5b8287015b848110156119aa57803567ffffffffffffffff808211156119385760008081fd5b818a0191508a603f83011261194d5760008081fd5b85820135604082821115611963576119636117fc565b611974828b01601f19168901611812565b92508183528c8183860101111561198b5760008081fd5b8181850189850137506000908201870152845250918301918301611917565b50979650505050505050565b600082601f8301126119c757600080fd5b813560206119d761188883611843565b82815260059290921b840181019181810190868411156119f657600080fd5b8286015b848110156118c75780356001600160a01b0381168114611a1a5760008081fd5b83529183019183016119fa565b600080600080600060a08688031215611a3f57600080fd5b853567ffffffffffffffff80821115611a5757600080fd5b611a6389838a01611867565b96506020880135915080821115611a7957600080fd5b611a8589838a016118d2565b95506040880135915080821115611a9b57600080fd5b611aa789838a01611867565b94506060880135915080821115611abd57600080fd5b611ac989838a016119b6565b93506080880135915080821115611adf57600080fd5b50611aec888289016118d2565b9150509295509295909350565b600060208284031215611b0b57600080fd5b5035919050565b600081518084526020808501808196508360051b8101915082860160005b85811015611b5a578284038952611b4884835161179c565b98850198935090840190600101611b30565b5091979650505050505050565b600081518084526020808501945080840160005b83811015611b9757815187529582019590820190600101611b7b565b509495945050505050565b600081518084526020808501945080840160005b83811015611b97578151151587529582019590820190600101611bb6565b600081518084526020808501945080840160005b83811015611b975781516001600160a01b031687529582019590820190600101611be8565b60c0808252875190820181905260009060209060e0840190828b01845b82811015611c4657815184529284019290840190600101611c2a565b50505083810382850152611c5a818a611b12565b9150508281036040840152611c6f8188611b67565b90508281036060840152611c838187611ba2565b90508281036080840152611c978186611bd4565b905082810360a0840152611cab8185611b12565b9998505050505050505050565b60a081526000611ccb60a083018861179c565b6020830187905285151560408401526001600160a01b03851660608401528281036080840152611cfb818561179c565b98975050505050505050565b60008060208385031215611d1a57600080fd5b823567ffffffffffffffff80821115611d3257600080fd5b818501915085601f830112611d4657600080fd5b813581811115611d5557600080fd5b8660208260051b8501011115611d6a57600080fd5b60209290920196919550909350505050565b634e487b7160e01b600052603260045260246000fd5b600181811c90821680611da657607f821691505b602082108103611dc657634e487b7160e01b600052602260045260246000fd5b50919050565b601f821115611e1257600081815260208120601f850160051c81016020861015611df35750805b601f850160051c820191505b818110156105d157828155600101611dff565b505050565b815167ffffffffffffffff811115611e3157611e316117fc565b611e4581611e3f8454611d92565b84611dcc565b602080601f831160018114611e7a5760008415611e625750858301515b600019600386901b1c1916600185901b1785556105d1565b600085815260208120601f198616915b82811015611ea957888601518255948401946001909101908401611e8a565b5085821015611ec75787850151600019600388901b60f8161c191681555b5050505050600190811b01905550565b828152604060208201526000611ef0604083018461179c565b949350505050565b600060018201611f1857634e487b7160e01b600052601160045260246000fd5b5060010190565b60008154611f2c81611d92565b60018281168015611f445760018114611f5957611f88565b60ff1984168752821515830287019450611f88565b8560005260208060002060005b85811015611f7f5781548a820152908401908201611f66565b50505082870194505b5050505092915050565b60006117f58284611f1f565b600060208284031215611fb057600080fd5b815180151581146117f557600080fd5b600060208284031215611fd257600080fd5b5051919050565b8281526000602060408184015260008454611ff381611d92565b8060408701526060600180841660008114612015576001811461202f5761205d565b60ff1985168984015283151560051b89018301955061205d565b896000528660002060005b858110156120555781548b820186015290830190880161203a565b8a0184019650505b5093999850505050505050505056fe9e818fe31fff00ba229a558259ab40639914e2024069af8d40830c435e48b5b4a2646970667358221220ff5648956bb1a3a92dd9f90c2de45ddced3980fee3793cf603d77bb70596498464736f6c63430008110033",
  "linkReferences": {},
  "deployedLinkReferences": {}
}