{
  "_format": "hh-sol-artifact-1",
  "contractName": "EURtToken",
  "sourceName": "contracts/Stablecoin.sol",
  "abi": [
    {
      "inputs": [],
      "stateMutability": "nonpayable",
      "type": "constructor"
    },
    {
      "anonymous": false,
      "inputs": [
        {
          "indexed": true,
          "internalType": "address",
          "name": "owner",
          "type": "address"
        },
        {
          "indexed": true,
          "internalType": "address",
          "name": "spender",
          "type": "address"
        },
        {
          "indexed": false,
          "internalType": "bool",
          "name": "isAllowed",
          "type": "bool"
        }
      ],
      "name": "Approval",
      "type": "event"
    },
    {
      "anonymous": false,
      "inputs": [
        {
          "indexed": true,
          "internalType": "address",
          "name": "from",
          "type": "address"
        },
        {
          "indexed": true,
          "internalType": "address",
          "name": "to",
          "type": "address"
        },
        {
          "indexed": false,
          "internalType": "uint256",
          "name": "value",
          "type": "uint256"
        }
      ],
      "name": "Transfer",
      "type": "event"
    },
    {
      "inputs": [
        {
          "internalType": "address",
          "name": "spender",
          "type": "address"
        }
      ],
      "name": "approve",
      "outputs": [
        {
          "internalType": "bool",
          "name": "",
          "type": "bool"
        }
      ],
      "stateMutability": "nonpayable",
      "type": "function"
    },
    {
      "inputs": [
        {
          "internalType": "address",
          "name": "account",
          "type": "address"
        }
      ],
      "name": "balanceOf",
      "outputs": [
        {
          "internalType": "uint256",
          "name": "",
          "type": "uint256"
        }
      ],
      "stateMutability": "view",
      "type": "function"
    },
    {
      "inputs": [],
      "name": "decimals",
      "outputs": [
        {
          "internalType": "uint8",
          "name": "",
          "type": "uint8"
        }
      ],
      "stateMutability": "view",
      "type": "function"
    },
    {
      "inputs": [
        {
          "internalType": "address",
          "name": "spender",
          "type": "address"
        }
      ],
      "name": "disapprove",
      "outputs": [
        {
          "internalType": "bool",
          "name": "",
          "type": "bool"
        }
      ],
      "stateMutability": "nonpayable",
      "type": "function"
    },
    {
      "inputs": [
        {
          "internalType": "address",
          "name": "_owner",
          "type": "address"
        },
        {
          "internalType": "address",
          "name": "_spender",
          "type": "address"
        }
      ],
      "name": "isApproved",
      "outputs": [
        {
          "internalType": "bool",
          "name": "",
          "type": "bool"
        }
      ],
      "stateMutability": "view",
      "type": "function"
    },
    {
      "inputs": [
        {
          "internalType": "address",
          "name": "recipient",
          "type": "address"
        },
        {
          "internalType": "uint256",
          "name": "amount",
          "type": "uint256"
        }
      ],
      "name": "mint",
      "outputs": [],
      "stateMutability": "nonpayable",
      "type": "function"
    },
    {
      "inputs": [],
      "name": "name",
      "outputs": [
        {
          "internalType": "string",
          "name": "",
          "type": "string"
        }
      ],
      "stateMutability": "view",
      "type": "function"
    },
    {
      "inputs": [],
      "name": "owner",
      "outputs": [
        {
          "internalType": "address",
          "name": "",
          "type": "address"
        }
      ],
      "stateMutability": "view",
      "type": "function"
    },
    {
      "inputs": [],
      "name": "symbol",
      "outputs": [
        {
          "internalType": "string",
          "name": "",
          "type": "string"
        }
      ],
      "stateMutability": "view",
      "type": "function"
    },
    {
      "inputs": [],
      "name": "totalSupply",
      "outputs": [
        {
          "internalType": "uint256",
          "name": "",
          "type": "uint256"
        }
      ],
      "stateMutability": "view",
      "type": "function"
    },
    {
      "inputs": [
        {
          "internalType": "address",
          "name": "recipient",
          "type": "address"
        },
        {
          "internalType": "uint256",
          "name": "amount",
          "type": "uint256"
        }
      ],
      "name": "transfer",
      "outputs": [
        {
          "internalType": "bool",
          "name": "",
          "type": "bool"
        }
      ],
      "stateMutability": "nonpayable",
      "type": "function"
    },
    {
      "inputs": [
        {
          "internalType": "address",
          "name": "sender",
          "type": "address"
        },
        {
          "internalType": "address",
          "name": "recipient",
          "type": "address"
        },
        {
          "internalType": "uint256",
          "name": "amount",
          "type": "uint256"
        }
      ],
      "name": "transferFrom",
      "outputs": [
        {
          "internalType": "bool",
          "name": "",
          "type": "bool"
        }
      ],
      "stateMutability": "nonpayable",
      "type": "function"
    }
  ],
  "bytecode": "0x608060405234801561001057600080fd5b50600380546001600160a01b03191633179055610872806100326000396000f3fe608060405234801561001057600080fd5b50600436106100b45760003560e01c806370a082311161007157806370a082311461016f5780638da5cb5b1461019857806395d89b41146101c3578063a389783e146101e6578063a9059cbb146101f9578063daea85c51461020c57600080fd5b806306fdde03146100b957806315770d99146100f857806318160ddd1461011b57806323b872dd1461012d578063313ce5671461014057806340c10f191461015a575b600080fd5b6100e26040518060400160405280600a81526020016922aaa93a102a37b5b2b760b11b81525081565b6040516100ef91906106db565b60405180910390f35b61010b610106366004610745565b61021f565b60405190151581526020016100ef565b6002545b6040519081526020016100ef565b61010b61013b366004610767565b61028b565b610148600281565b60405160ff90911681526020016100ef565b61016d6101683660046107a3565b61040c565b005b61011f61017d366004610745565b6001600160a01b031660009081526020819052604090205490565b6003546101ab906001600160a01b031681565b6040516001600160a01b0390911681526020016100ef565b6100e2604051806040016040528060048152602001631155549d60e21b81525081565b61010b6101f43660046107cd565b610554565b61010b6102073660046107a3565b610584565b61010b61021a366004610745565b61067c565b3360008181526001602090815260408083206001600160a01b038616808552908352818420805460ff1916905590518381529293909290917f1d3e246ebbc933bf65d3290db9f93d67ab91a12d2b19308a35806e04d1c174c591015b60405180910390a3506001919050565b6001600160a01b038316600090815260016020908152604080832033845290915281205460ff166102fa5760405162461bcd60e51b8152602060048201526014602482015273139bdd08185b1b1bddd959081d1bc81cdc195b9960621b60448201526064015b60405180910390fd5b6001600160a01b0384166000908152602081905260409020548211156103595760405162461bcd60e51b8152602060048201526014602482015273496e73756666696369656e742062616c616e636560601b60448201526064016102f1565b6001600160a01b03841660009081526020819052604081208054849290610381908490610816565b90915550506001600160a01b038316600090815260208190526040812080548492906103ae908490610829565b92505081905550826001600160a01b0316846001600160a01b03167fddf252ad1be2c89b69c2b068fc378daa952ba7f163c4a11628f55a4df523b3ef846040516103fa91815260200190565b60405180910390a35060019392505050565b6003546001600160a01b031633146104755760405162461bcd60e51b815260206004820152602660248201527f4f6e6c7920746865206f776e65722063616e20706572666f726d20746869732060448201526530b1ba34b7b760d11b60648201526084016102f1565b6001600160a01b0382166104cb5760405162461bcd60e51b815260206004820152601f60248201527f43616e6e6f74206d696e7420746f20746865207a65726f20616464726573730060448201526064016102f1565b80600260008282546104dd9190610829565b90915550506001600160a01b0382166000908152602081905260408120805483929061050a908490610829565b90915550506040518181526001600160a01b038316906000907fddf252ad1be2c89b69c2b068fc378daa952ba7f163c4a11628f55a4df523b3ef9060200160405180910390a35050565b6001600160a01b0380831660009081526001602090815260408083209385168352929052205460ff165b92915050565b336000908152602081905260408120548211156105da5760405162461bcd60e51b8152602060048201526014602482015273496e73756666696369656e742062616c616e636560601b60448201526064016102f1565b336000908152602081905260409020546105f5908390610816565b33600090815260208190526040808220929092556001600160a01b03851681522054610622908390610829565b6001600160a01b038416600081815260208181526040918290209390935551848152909133917fddf252ad1be2c89b69c2b068fc378daa952ba7f163c4a11628f55a4df523b3ef910160405180910390a350600192915050565b3360008181526001602081815260408084206001600160a01b038716808652908352818520805460ff19168517905590519283529293917f1d3e246ebbc933bf65d3290db9f93d67ab91a12d2b19308a35806e04d1c174c5910161027b565b600060208083528351808285015260005b81811015610708578581018301518582016040015282016106ec565b506000604082860101526040601f19601f8301168501019250505092915050565b80356001600160a01b038116811461074057600080fd5b919050565b60006020828403121561075757600080fd5b61076082610729565b9392505050565b60008060006060848603121561077c57600080fd5b61078584610729565b925061079360208501610729565b9150604084013590509250925092565b600080604083850312156107b657600080fd5b6107bf83610729565b946020939093013593505050565b600080604083850312156107e057600080fd5b6107e983610729565b91506107f760208401610729565b90509250929050565b634e487b7160e01b600052601160045260246000fd5b8181038181111561057e5761057e610800565b8082018082111561057e5761057e61080056fea26469706673582212200e615792d464ec9dc204d49af97a09bece133a1f8fcbeb74893bbe7dca68b15364736f6c63430008110033",
  "linkReferences": {},
  "deployedLinkReferences": {}
}