{"contracts/BankContract.sol":{"CitiClaims":{"abi":[{"inputs":[{"internalType":"address","name":"depositoryContractAddress","type":"address"},{"internalType":"string","name":"market","type":"string"},{"internalType":"uint256","name":"accountNumber","type":"uint256"},{"internalType":"address","name":"ethAddress","type":"address"},{"internalType":"string","name":"publicKey","type":"string"}],"stateMutability":"nonpayable","type":"constructor"},{"anonymous":false,"inputs":[{"indexed":true,"internalType":"bytes32","name":"claimIdentifier","type":"bytes32"},{"indexed":false,"internalType":"uint256","name":"amountOwed","type":"uint256"},{"indexed":true,"internalType":"address","name":"counterpartyAddress","type":"address"},{"indexed":false,"internalType":"string","name":"tokenName","type":"string"}],"name":"ClaimAdded","type":"event"},{"anonymous":false,"inputs":[{"indexed":true,"internalType":"bytes32","name":"claimIdentifier","type":"bytes32"},{"indexed":false,"internalType":"uint256","name":"amountOwed","type":"uint256"},{"indexed":true,"internalType":"address","name":"counterpartyAddress","type":"address"},{"indexed":false,"internalType":"string","name":"tokenName","type":"string"}],"name":"ClaimSettled","type":"event"},{"anonymous":false,"inputs":[{"indexed":true,"internalType":"bytes32","name":"claimIdentifier","type":"bytes32"},{"indexed":false,"internalType":"string","name":"reason","type":"string"}],"name":"SettlementError","type":"event"},{"inputs":[{"internalType":"bytes32[]","name":"claimIdentifiers","type":"bytes32[]"},{"internalType":"string[]","name":"encryptedClaimDatas","type":"string[]"},{"internalType":"uint256[]","name":"amountsOwed","type":"uint256[]"},{"internalType":"address[]","name":"counterpartyAddresses","type":"address[]"},{"internalType":"string[]","name":"tokenNames","type":"string[]"}],"name":"addClaims","outputs":[],"stateMutability":"nonpayable","type":"function"},{"inputs":[],"name":"bankDepository","outputs":[{"internalType":"contract IBankDepository","name":"","type":"address"}],"stateMutability":"view","type":"function"},{"inputs":[{"internalType":"bytes32","name":"claimIdentifier","type":"bytes32"}],"name":"checkIfSettled","outputs":[{"internalType":"bool","name":"","type":"bool"}],"stateMutability":"view","type":"function"},{"inputs":[{"internalType":"uint256","name":"","type":"uint256"}],"name":"claimHashes","outputs":[{"internalType":"bytes32","name":"","type":"bytes32"}],"stateMutability":"view","type":"function"},{"inputs":[{"internalType":"bytes32","name":"","type":"bytes32"}],"name":"claims","outputs":[{"internalType":"string","name":"encryptedClaimData","type":"string"},{"internalType":"uint256","name":"amountOwed","type":"uint256"},{"internalType":"bool","name":"isSettled","type":"bool"},{"internalType":"address","name":"counterpartyAddress","type":"address"},{"internalType":"string","name":"tokenName","type":"string"}],"stateMutability":"view","type":"function"},{"inputs":[{"internalType":"bytes32","name":"claimIdentifier","type":"bytes32"}],"name":"getClaim","outputs":[{"internalType":"string","name":"encryptedClaimData","type":"string"},{"internalType":"uint256","name":"amountOwed","type":"uint256"},{"internalType":"bool","name":"isSettled","type":"bool"},{"internalType":"address","name":"counterpartyAddress","type":"address"},{"internalType":"string","name":"tokenName","type":"string"}],"stateMutability":"view","type":"function"},{"inputs":[],"name":"getClaims","outputs":[{"internalType":"bytes32[]","name":"ids","type":"bytes32[]"},{"internalType":"string[]","name":"encryptedData","type":"string[]"},{"internalType":"uint256[]","name":"amounts","type":"uint256[]"},{"internalType":"bool[]","name":"settledStatus","type":"bool[]"},{"internalType":"address[]","name":"counterparties","type":"address[]"},{"internalType":"string[]","name":"tokenNames","type":"string[]"}],"stateMutability":"view","type":"function"},{"inputs":[],"name":"name","outputs":[{"internalType":"string","name":"","type":"string"}],"stateMutability":"view","type":"function"},{"inputs":[],"name":"owner","outputs":[{"internalType":"address","name":"","type":"address"}],"stateMutability":"view","type":"function"},{"inputs":[{"internalType":"bytes32","name":"claimIdentifier","type":"bytes32"}],"name":"settleClaim","outputs":[],"stateMutability":"nonpayable","type":"function"},{"inputs":[{"internalType":"bytes32[]","name":"claimIdentifiers","type":"bytes32[]"}],"name":"settleClaims","outputs":[],"stateMutability":"nonpayable","type":"function"}],"evm":{"bytecode":{"linkReferences":{},"object":"60806040523480156200001157600080fd5b506040516200254f3803806200254f83398101604081905262000034916200033d565b600080546001600160a01b03199081163317909155600180546001600160a01b03881692168217905560405163eddedcb760e01b815263eddedcb79062000088908790879087903090889060040162000405565b600060405180830381600087803b158015620000a357600080fd5b505af1158015620000b8573d6000803e3d6000fd5b5050600154604051636204891b60e11b81526001600160a01b03909116925063c4091236915062000104906004016020808252600490820152631554d11d60e21b604082015260600190565b602060405180830381865afa15801562000122573d6000803e3d6000fd5b505050506040513d601f19601f8201168201806040525081019062000148919062000458565b604051631554d11d60e21b815260029060040190815260405190819003602001812080546001600160a01b039384166001600160a01b0319909116179055600154636204891b60e11b82529091169063c409123690620001c3906004016020808252600490820152631155549d60e21b604082015260600190565b602060405180830381865afa158015620001e1573d6000803e3d6000fd5b505050506040513d601f19601f8201168201806040525081019062000207919062000458565b60408051631155549d60e21b815260026004820152905190819003602401902080546001600160a01b03929092166001600160a01b0319909216919091179055506200047d9350505050565b80516001600160a01b03811681146200026b57600080fd5b919050565b634e487b7160e01b600052604160045260246000fd5b60005b83811015620002a357818101518382015260200162000289565b50506000910152565b600082601f830112620002be57600080fd5b81516001600160401b0380821115620002db57620002db62000270565b604051601f8301601f19908116603f0116810190828211818310171562000306576200030662000270565b816040528381528660208588010111156200032057600080fd5b6200033384602083016020890162000286565b9695505050505050565b600080600080600060a086880312156200035657600080fd5b620003618662000253565b60208701519095506001600160401b03808211156200037f57600080fd5b6200038d89838a01620002ac565b955060408801519450620003a46060890162000253565b93506080880151915080821115620003bb57600080fd5b50620003ca88828901620002ac565b9150509295509295909350565b60008151808452620003f181602086016020860162000286565b601f01601f19169290920160200192915050565b60a0815260006200041a60a0830188620003d7565b602083018790526001600160a01b0386811660408501528516606084015282810360808401526200044c8185620003d7565b98975050505050505050565b6000602082840312156200046b57600080fd5b620004768262000253565b9392505050565b6120c2806200048d6000396000f3fe608060405234801561001057600080fd5b50600436106100a95760003560e01c80638df0c22a116100715780638df0c22a14610184578063bdf8043514610197578063c52822f8146101aa578063c9100bcb146101c4578063d7f8fb9f146101e8578063eff0f592146101fb57600080fd5b806306fdde03146100ae578063210d5e55146100ed5780632639c060146101025780636abd1ade146101235780638da5cb5b14610159575b600080fd5b6100d76040518060400160405280600a81526020016943697469436c61696d7360b01b81525081565b6040516100e491906117e2565b60405180910390f35b6101006100fb366004611a27565b61020e565b005b610115610110366004611af9565b6105d9565b6040519081526020016100e4565b610149610131366004611af9565b60009081526003602052604090206002015460ff1690565b60405190151581526020016100e4565b60005461016c906001600160a01b031681565b6040516001600160a01b0390911681526020016100e4565b60015461016c906001600160a01b031681565b6101006101a5366004611af9565b6105fa565b6101b2610b45565b6040516100e496959493929190611c0d565b6101d76101d2366004611af9565b610f7a565b6040516100e4959493929190611cb8565b6101006101f6366004611d07565b6110ea565b6101d7610209366004611af9565b61164d565b6000546001600160a01b031633146102865760405162461bcd60e51b815260206004820152603060248201527f4f6e6c792074686520636f6e7472616374206f776e65722063616e207065726660448201526f37b936903a3434b99030b1ba34b7b71760811b60648201526084015b60405180910390fd5b83518551148015610298575082518551145b80156102a5575081518551145b80156102b2575080518551145b6102fe5760405162461bcd60e51b815260206004820152601860248201527f4172726179206c656e67746873206d757374206d617463680000000000000000604482015260640161027d565b60005b85518110156105d15760006001600160a01b03166003600088848151811061032b5761032b611d7c565b6020026020010151815260200190815260200160002060020160019054906101000a90046001600160a01b03166001600160a01b0316146103a65760405162461bcd60e51b815260206004820152601560248201527421b630b4b69030b63932b0b23c9032bc34b9ba399760591b604482015260640161027d565b6040518060a001604052808683815181106103c3576103c3611d7c565b602002602001015181526020018583815181106103e2576103e2611d7c565b6020026020010151815260200160001515815260200184838151811061040a5761040a611d7c565b60200260200101516001600160a01b0316815260200183838151811061043257610432611d7c565b60200260200101518152506003600088848151811061045357610453611d7c565b60200260200101518152602001908152602001600020600082015181600001908161047e9190611e17565b5060208201516001820155604082015160028201805460608501516001600160a01b031661010002610100600160a81b0319931515939093166001600160a81b031990911617919091179055608082015160038201906104de9082611e17565b5090505060048682815181106104f6576104f6611d7c565b60209081029190910181015182546001810184556000938452919092200155825183908290811061052957610529611d7c565b60200260200101516001600160a01b031686828151811061054c5761054c611d7c565b60200260200101517fa1dd72822d7f8a4da00716dff2874b077ddbdd1d38d838b1dcd4b1c5d50fa47c86848151811061058757610587611d7c565b60200260200101518585815181106105a1576105a1611d7c565b60200260200101516040516105b7929190611ed7565b60405180910390a3806105c981611ef8565b915050610301565b505050505050565b600481815481106105e957600080fd5b600091825260209091200154905081565b600081815260036020526040902060020154819061010090046001600160a01b031633146106895760405162461bcd60e51b815260206004820152603660248201527f4f6e6c79207468652073706563696669656420636f756e74657270617274792060448201527531b0b71039b2ba3a3632903a3434b99031b630b4b69760511b606482015260840161027d565b6000828152600360205260409020600281015460ff16156106f85760405162461bcd60e51b8152602060048201526024808201527f5468697320636c61696d2068617320616c7265616479206265656e20736574746044820152633632b21760e11b606482015260840161027d565b600060028260030160405161070d9190611f92565b908152604051908190036020019020546001600160a01b03169050806107695760405162461bcd60e51b81526020600482015260116024820152702ab739bab83837b93a32b2103a37b5b2b760791b604482015260640161027d565b6040516351c4bc1f60e11b815233600482015230602482015281906001600160a01b0382169063a389783e90604401602060405180830381865afa1580156107b5573d6000803e3d6000fd5b505050506040513d601f19601f820116820180604052508101906107d99190611f9e565b6108395760405162461bcd60e51b815260206004820152602b60248201527f43697469436c61696d73206e6f7420617070726f76656420746f207472616e7360448201526a3332b9103a37b5b2b7399760a91b606482015260840161027d565b6040516370a0823160e01b81523360048201526000906001600160a01b038316906370a0823190602401602060405180830381865afa158015610880573d6000803e3d6000fd5b505050506040513d601f19601f820116820180604052508101906108a49190611fc0565b90508360010154811015610a1d5760408051808201825260048152631554d11d60e21b602090910152517f85884bc2158f4bdc08810b487538402e011f8d8877da6a41a8debb13af295c12906108fe906003870190611f92565b604051809103902003610966578560008051602061206d833981519152604051610959906020808252601a908201527f496e73756666696369656e7420555344742062616c616e63652e000000000000604082015260600190565b60405180910390a26105d1565b60408051808201825260048152631155549d60e21b602090910152517fdfcff4c03cb7b82f49595b382a2fb552b15b4e878449e9673d29d1ea3831e3ce906109b2906003870190611f92565b6040518091039020036105d1578560008051602061206d833981519152604051610a0d906020808252601a908201527f496e73756666696369656e7420455552742062616c616e63652e000000000000604082015260600190565b60405180910390a2505050505050565b6000805460018601546040516323b872dd60e01b81523360048201526001600160a01b0392831660248201526044810191909152908416906323b872dd906064016020604051808303816000875af1158015610a7d573d6000803e3d6000fd5b505050506040513d601f19601f82011682018060405250810190610aa19190611f9e565b905080610ae85760405162461bcd60e51b8152602060048201526015602482015274151bdad95b881d1c985b9cd9995c8819985a5b1959605a1b604482015260640161027d565b60028501805460ff19166001908117909155850154604051339189917f656cde5ecad907f0e5e7a115c07b4ab29c39cca395594cf191f20287da1fcd5191610b349160038b0190611fd9565b60405180910390a350505050505050565b606080606080606080600060048054905090508067ffffffffffffffff811115610b7157610b716117fc565b604051908082528060200260200182016040528015610b9a578160200160208202803683370190505b5096508067ffffffffffffffff811115610bb657610bb66117fc565b604051908082528060200260200182016040528015610be957816020015b6060815260200190600190039081610bd45790505b5095508067ffffffffffffffff811115610c0557610c056117fc565b604051908082528060200260200182016040528015610c2e578160200160208202803683370190505b5094508067ffffffffffffffff811115610c4a57610c4a6117fc565b604051908082528060200260200182016040528015610c73578160200160208202803683370190505b5093508067ffffffffffffffff811115610c8f57610c8f6117fc565b604051908082528060200260200182016040528015610cb8578160200160208202803683370190505b5092508067ffffffffffffffff811115610cd457610cd46117fc565b604051908082528060200260200182016040528015610d0757816020015b6060815260200190600190039081610cf25790505b50915060005b81811015610f7057600060048281548110610d2a57610d2a611d7c565b906000526020600020015490506000600360008381526020019081526020016000209050818a8481518110610d6157610d61611d7c565b602090810291909101015280548190610d7990611d92565b80601f0160208091040260200160405190810160405280929190818152602001828054610da590611d92565b8015610df25780601f10610dc757610100808354040283529160200191610df2565b820191906000526020600020905b815481529060010190602001808311610dd557829003601f168201915b5050505050898481518110610e0957610e09611d7c565b60200260200101819052508060010154888481518110610e2b57610e2b611d7c565b60209081029190910101526002810154875160ff90911690889085908110610e5557610e55611d7c565b6020026020010190151590811515815250508060020160019054906101000a90046001600160a01b0316868481518110610e9157610e91611d7c565b60200260200101906001600160a01b031690816001600160a01b031681525050806003018054610ec090611d92565b80601f0160208091040260200160405190810160405280929190818152602001828054610eec90611d92565b8015610f395780601f10610f0e57610100808354040283529160200191610f39565b820191906000526020600020905b815481529060010190602001808311610f1c57829003601f168201915b5050505050858481518110610f5057610f50611d7c565b602002602001018190525050508080610f6890611ef8565b915050610d0d565b5050909192939495565b600081815260036020819052604082206001810154600282015482546060959485948594889491938493919260ff8116926101009091046001600160a01b031691908501908590610fca90611d92565b80601f0160208091040260200160405190810160405280929190818152602001828054610ff690611d92565b80156110435780601f1061101857610100808354040283529160200191611043565b820191906000526020600020905b81548152906001019060200180831161102657829003601f168201915b5050505050945080805461105690611d92565b80601f016020809104026020016040519081016040528092919081815260200182805461108290611d92565b80156110cf5780601f106110a4576101008083540402835291602001916110cf565b820191906000526020600020905b8154815290600101906020018083116110b257829003601f168201915b50505050509050955095509550955095505091939590929450565b60008060005b8381101561156057600085858381811061110c5761110c611d7c565b6020908102929092013560008181526003909352604090922060028101549293509160ff169050806111505750600281015461010090046001600160a01b03163314155b1561115c57505061154e565b60006002826003016040516111719190611f92565b908152604051908190036020019020546001600160a01b03169050806111e3578260008051602061206d8339815191526040516111d3906020808252601190820152702ab739bab83837b93a32b2103a37b5b2b760791b604082015260600190565b60405180910390a250505061154e565b6040516351c4bc1f60e11b815233600482015230602482015281906001600160a01b0382169063a389783e90604401602060405180830381865afa15801561122f573d6000803e3d6000fd5b505050506040513d601f19601f820116820180604052508101906112539190611f9e565b6112cc578360008051602061206d8339815191526040516112bb906020808252602d908201527f42616e6b436f6e7472616374206e6f7420617070726f76656420746f2074726160408201526c3739b332b9103a37b5b2b7399760991b606082015260800190565b60405180910390a25050505061154e565b6040516370a0823160e01b81523360048201526000906001600160a01b038316906370a0823190602401602060405180830381865afa158015611313573d6000803e3d6000fd5b505050506040513d601f19601f820116820180604052508101906113379190611fc0565b9050836001015481101561140f5760408051808201825260048152631554d11d60e21b602090910152517f85884bc2158f4bdc08810b487538402e011f8d8877da6a41a8debb13af295c1290611391906003870190611f92565b6040518091039020036113a75760019750611405565b60408051808201825260048152631155549d60e21b602090910152517fdfcff4c03cb7b82f49595b382a2fb552b15b4e878449e9673d29d1ea3831e3ce906113f3906003870190611f92565b60405180910390200361140557600196505b505050505061154e565b6000805460018601546040516323b872dd60e01b81523360048201526001600160a01b0392831660248201526044810191909152908416906323b872dd906064016020604051808303816000875af115801561146f573d6000803e3d6000fd5b505050506040513d601f19601f820116820180604052508101906114939190611f9e565b9050806114f3578560008051602061206d8339815191526040516114e090602080825260159082015274151bdad95b881d1c985b9cd9995c8819985a5b1959605a1b604082015260600190565b60405180910390a250505050505061154e565b60028501805460ff19166001908117909155850154604051339188917f656cde5ecad907f0e5e7a115c07b4ab29c39cca395594cf191f20287da1fcd519161153f9160038b0190611fd9565b60405180910390a35050505050505b8061155881611ef8565b9150506110f0565b5081156115d4576000801b60008051602061206d8339815191526040516115cb906020808252602a908201527f496e73756666696369656e7420555344742062616c616e636520666f7220736f60408201526936b29031b630b4b6b99760b11b606082015260800190565b60405180910390a25b8015611647576000801b60008051602061206d83398151915260405161163e906020808252602a908201527f496e73756666696369656e7420455552742062616c616e636520666f7220736f60408201526936b29031b630b4b6b99760b11b606082015260800190565b60405180910390a25b50505050565b60036020526000908152604090208054819061166890611d92565b80601f016020809104026020016040519081016040528092919081815260200182805461169490611d92565b80156116e15780601f106116b6576101008083540402835291602001916116e1565b820191906000526020600020905b8154815290600101906020018083116116c457829003601f168201915b50505050600183015460028401546003850180549495929460ff831694506101009092046001600160a01b0316929161171990611d92565b80601f016020809104026020016040519081016040528092919081815260200182805461174590611d92565b80156117925780601f1061176757610100808354040283529160200191611792565b820191906000526020600020905b81548152906001019060200180831161177557829003601f168201915b5050505050905085565b6000815180845260005b818110156117c2576020818501810151868301820152016117a6565b506000602082860101526020601f19601f83011685010191505092915050565b6020815260006117f5602083018461179c565b9392505050565b634e487b7160e01b600052604160045260246000fd5b604051601f8201601f1916810167ffffffffffffffff8111828210171561183b5761183b6117fc565b604052919050565b600067ffffffffffffffff82111561185d5761185d6117fc565b5060051b60200190565b600082601f83011261187857600080fd5b8135602061188d61188883611843565b611812565b82815260059290921b840181019181810190868411156118ac57600080fd5b8286015b848110156118c757803583529183019183016118b0565b509695505050505050565b6000601f83818401126118e457600080fd5b823560206118f461188883611843565b82815260059290921b8501810191818101908784111561191357600080fd5b8287015b848110156119aa57803567ffffffffffffffff808211156119385760008081fd5b818a0191508a603f83011261194d5760008081fd5b85820135604082821115611963576119636117fc565b611974828b01601f19168901611812565b92508183528c8183860101111561198b5760008081fd5b8181850189850137506000908201870152845250918301918301611917565b50979650505050505050565b600082601f8301126119c757600080fd5b813560206119d761188883611843565b82815260059290921b840181019181810190868411156119f657600080fd5b8286015b848110156118c75780356001600160a01b0381168114611a1a5760008081fd5b83529183019183016119fa565b600080600080600060a08688031215611a3f57600080fd5b853567ffffffffffffffff80821115611a5757600080fd5b611a6389838a01611867565b96506020880135915080821115611a7957600080fd5b611a8589838a016118d2565b95506040880135915080821115611a9b57600080fd5b611aa789838a01611867565b94506060880135915080821115611abd57600080fd5b611ac989838a016119b6565b93506080880135915080821115611adf57600080fd5b50611aec888289016118d2565b9150509295509295909350565b600060208284031215611b0b57600080fd5b5035919050565b600081518084526020808501808196508360051b8101915082860160005b85811015611b5a578284038952611b4884835161179c565b98850198935090840190600101611b30565b5091979650505050505050565b600081518084526020808501945080840160005b83811015611b9757815187529582019590820190600101611b7b565b509495945050505050565b600081518084526020808501945080840160005b83811015611b97578151151587529582019590820190600101611bb6565b600081518084526020808501945080840160005b83811015611b975781516001600160a01b031687529582019590820190600101611be8565b60c0808252875190820181905260009060209060e0840190828b01845b82811015611c4657815184529284019290840190600101611c2a565b50505083810382850152611c5a818a611b12565b9150508281036040840152611c6f8188611b67565b90508281036060840152611c838187611ba2565b90508281036080840152611c978186611bd4565b905082810360a0840152611cab8185611b12565b9998505050505050505050565b60a081526000611ccb60a083018861179c565b6020830187905285151560408401526001600160a01b03851660608401528281036080840152611cfb818561179c565b98975050505050505050565b60008060208385031215611d1a57600080fd5b823567ffffffffffffffff80821115611d3257600080fd5b818501915085601f830112611d4657600080fd5b813581811115611d5557600080fd5b8660208260051b8501011115611d6a57600080fd5b60209290920196919550909350505050565b634e487b7160e01b600052603260045260246000fd5b600181811c90821680611da657607f821691505b602082108103611dc657634e487b7160e01b600052602260045260246000fd5b50919050565b601f821115611e1257600081815260208120601f850160051c81016020861015611df35750805b601f850160051c820191505b818110156105d157828155600101611dff565b505050565b815167ffffffffffffffff811115611e3157611e316117fc565b611e4581611e3f8454611d92565b84611dcc565b602080601f831160018114611e7a5760008415611e625750858301515b600019600386901b1c1916600185901b1785556105d1565b600085815260208120601f198616915b82811015611ea957888601518255948401946001909101908401611e8a565b5085821015611ec75787850151600019600388901b60f8161c191681555b5050505050600190811b01905550565b828152604060208201526000611ef0604083018461179c565b949350505050565b600060018201611f1857634e487b7160e01b600052601160045260246000fd5b5060010190565b60008154611f2c81611d92565b60018281168015611f445760018114611f5957611f88565b60ff1984168752821515830287019450611f88565b8560005260208060002060005b85811015611f7f5781548a820152908401908201611f66565b50505082870194505b5050505092915050565b60006117f58284611f1f565b600060208284031215611fb057600080fd5b815180151581146117f557600080fd5b600060208284031215611fd257600080fd5b5051919050565b8281526000602060408184015260008454611ff381611d92565b8060408701526060600180841660008114612015576001811461202f5761205d565b60ff1985168984015283151560051b89018301955061205d565b896000528660002060005b858110156120555781548b820186015290830190880161203a565b8a0184019650505b5093999850505050505050505056fe9e818fe31fff00ba229a558259ab40639914e2024069af8d40830c435e48b5b4a2646970667358221220ff5648956bb1a3a92dd9f90c2de45ddced3980fee3793cf603d77bb70596498464736f6c63430008110033","opcodes":"PUSH1 0x80 PUSH1 0x40 MSTORE CALLVALUE DUP1 ISZERO PUSH3 0x11 JUMPI PUSH1 0x0 DUP1 REVERT JUMPDEST POP PUSH1 0x40 MLOAD PUSH3 0x254F CODESIZE SUB DUP1 PUSH3 0x254F DUP4 CODECOPY DUP2 ADD PUSH1 0x40 DUP2 SWAP1 MSTORE PUSH3 0x34 SWAP2 PUSH3 0x33D JUMP JUMPDEST PUSH1 0x0 DUP1 SLOAD PUSH1 0x1 PUSH1 0x1 PUSH1 0xA0 SHL SUB NOT SWAP1 DUP2 AND CALLER OR SWAP1 SWAP2 SSTORE PUSH1 0x1 DUP1 SLOAD PUSH1 0x1 PUSH1 0x1 PUSH1 0xA0 SHL SUB DUP9 AND SWAP3 AND DUP3 OR SWAP1 SSTORE PUSH1 0x40 MLOAD PUSH4 0xEDDEDCB7 PUSH1 0xE0 SHL DUP2 MSTORE PUSH4 0xEDDEDCB7 SWAP1 PUSH3 0x88 SWAP1 DUP8 SWAP1 DUP8 SWAP1 DUP8 SWAP1 ADDRESS SWAP1 DUP9 SWAP1 PUSH1 0x4 ADD PUSH3 0x405 JUMP JUMPDEST PUSH1 0x0 PUSH1 0x40 MLOAD DUP1 DUP4 SUB DUP2 PUSH1 0x0 DUP8 DUP1 EXTCODESIZE ISZERO DUP1 ISZERO PUSH3 0xA3 JUMPI PUSH1 0x0 DUP1 REVERT JUMPDEST POP GAS CALL ISZERO DUP1 ISZERO PUSH3 0xB8 JUMPI RETURNDATASIZE PUSH1 0x0 DUP1 RETURNDATACOPY RETURNDATASIZE PUSH1 0x0 REVERT JUMPDEST POP POP PUSH1 0x1 SLOAD PUSH1 0x40 MLOAD PUSH4 0x6204891B PUSH1 0xE1 SHL DUP2 MSTORE PUSH1 0x1 PUSH1 0x1 PUSH1 0xA0 SHL SUB SWAP1 SWAP2 AND SWAP3 POP PUSH4 0xC4091236 SWAP2 POP PUSH3 0x104 SWAP1 PUSH1 0x4 ADD PUSH1 0x20 DUP1 DUP3 MSTORE PUSH1 0x4 SWAP1 DUP3 ADD MSTORE PUSH4 0x1554D11D PUSH1 0xE2 SHL PUSH1 0x40 DUP3 ADD MSTORE PUSH1 0x60 ADD SWAP1 JUMP JUMPDEST PUSH1 0x20 PUSH1 0x40 MLOAD DUP1 DUP4 SUB DUP2 DUP7 GAS STATICCALL ISZERO DUP1 ISZERO PUSH3 0x122 JUMPI RETURNDATASIZE PUSH1 0x0 DUP1 RETURNDATACOPY RETURNDATASIZE PUSH1 0x0 REVERT JUMPDEST POP POP POP POP PUSH1 0x40 MLOAD RETURNDATASIZE PUSH1 0x1F NOT PUSH1 0x1F DUP3 ADD AND DUP3 ADD DUP1 PUSH1 0x40 MSTORE POP DUP2 ADD SWAP1 PUSH3 0x148 SWAP2 SWAP1 PUSH3 0x458 JUMP JUMPDEST PUSH1 0x40 MLOAD PUSH4 0x1554D11D PUSH1 0xE2 SHL DUP2 MSTORE PUSH1 0x2 SWAP1 PUSH1 0x4 ADD SWAP1 DUP2 MSTORE PUSH1 0x40 MLOAD SWAP1 DUP2 SWAP1 SUB PUSH1 0x20 ADD DUP2 KECCAK256 DUP1 SLOAD PUSH1 0x1 PUSH1 0x1 PUSH1 0xA0 SHL SUB SWAP4 DUP5 AND PUSH1 0x1 PUSH1 0x1 PUSH1 0xA0 SHL SUB NOT SWAP1 SWAP2 AND OR SWAP1 SSTORE PUSH1 0x1 SLOAD PUSH4 0x6204891B PUSH1 0xE1 SHL DUP3 MSTORE SWAP1 SWAP2 AND SWAP1 PUSH4 0xC4091236 SWAP1 PUSH3 0x1C3 SWAP1 PUSH1 0x4 ADD PUSH1 0x20 DUP1 DUP3 MSTORE PUSH1 0x4 SWAP1 DUP3 ADD MSTORE PUSH4 0x1155549D PUSH1 0xE2 SHL PUSH1 0x40 DUP3 ADD MSTORE PUSH1 0x60 ADD SWAP1 JUMP JUMPDEST PUSH1 0x20 PUSH1 0x40 MLOAD DUP1 DUP4 SUB DUP2 DUP7 GAS STATICCALL ISZERO DUP1 ISZERO PUSH3 0x1E1 JUMPI RETURNDATASIZE PUSH1 0x0 DUP1 RETURNDATACOPY RETURNDATASIZE PUSH1 0x0 REVERT JUMPDEST POP POP POP POP PUSH1 0x40 MLOAD RETURNDATASIZE PUSH1 0x1F NOT PUSH1 0x1F DUP3 ADD AND DUP3 ADD DUP1 PUSH1 0x40 MSTORE POP DUP2 ADD SWAP1 PUSH3 0x207 SWAP2 SWAP1 PUSH3 0x458 JUMP JUMPDEST PUSH1 0x40 DUP1 MLOAD PUSH4 0x1155549D PUSH1 0xE2 SHL DUP2 MSTORE PUSH1 0x2 PUSH1 0x4 DUP3 ADD MSTORE SWAP1 MLOAD SWAP1 DUP2 SWAP1 SUB PUSH1 0x24 ADD SWAP1 KECCAK256 DUP1 SLOAD PUSH1 0x1 PUSH1 0x1 PUSH1 0xA0 SHL SUB SWAP3 SWAP1 SWAP3 AND PUSH1 0x1 PUSH1 0x1 PUSH1 0xA0 SHL SUB NOT SWAP1 SWAP3 AND SWAP2 SWAP1 SWAP2 OR SWAP1 SSTORE POP PUSH3 0x47D SWAP4 POP POP POP POP JUMP JUMPDEST DUP1 MLOAD PUSH1 0x1 PUSH1 0x1 PUSH1 0xA0 SHL SUB DUP2 AND DUP2 EQ PUSH3 0x26B JUMPI PUSH1 0x0 DUP1 REVERT JUMPDEST SWAP2 SWAP1 POP JUMP JUMPDEST PUSH4 0x4E487B71 PUSH1 0xE0 SHL PUSH1 0x0 MSTORE PUSH1 0x41 PUSH1 0x4 MSTORE PUSH1 0x24 PUSH1 0x0 REVERT JUMPDEST PUSH1 0x0 JUMPDEST DUP4 DUP2 LT ISZERO PUSH3 0x2A3 JUMPI DUP2 DUP2 ADD MLOAD DUP4 DUP3 ADD MSTORE PUSH1 0x20 ADD PUSH3 0x289 JUMP JUMPDEST POP POP PUSH1 0x0 SWAP2 ADD MSTORE JUMP JUMPDEST PUSH1 0x0 DUP3 PUSH1 0x1F DUP4 ADD SLT PUSH3 0x2BE JUMPI PUSH1 0x0 DUP1 REVERT JUMPDEST DUP2 MLOAD PUSH1 0x1 PUSH1 0x1 PUSH1 0x40 SHL SUB DUP1 DUP3 GT ISZERO PUSH3 0x2DB JUMPI PUSH3 0x2DB PUSH3 0x270 JUMP JUMPDEST PUSH1 0x40 MLOAD PUSH1 0x1F DUP4 ADD PUSH1 0x1F NOT SWAP1 DUP2 AND PUSH1 0x3F ADD AND DUP2 ADD SWAP1 DUP3 DUP3 GT DUP2 DUP4 LT OR ISZERO PUSH3 0x306 JUMPI PUSH3 0x306 PUSH3 0x270 JUMP JUMPDEST DUP2 PUSH1 0x40 MSTORE DUP4 DUP2 MSTORE DUP7 PUSH1 0x20 DUP6 DUP9 ADD ADD GT ISZERO PUSH3 0x320 JUMPI PUSH1 0x0 DUP1 REVERT JUMPDEST PUSH3 0x333 DUP5 PUSH1 0x20 DUP4 ADD PUSH1 0x20 DUP10 ADD PUSH3 0x286 JUMP JUMPDEST SWAP7 SWAP6 POP POP POP POP POP POP JUMP JUMPDEST PUSH1 0x0 DUP1 PUSH1 0x0 DUP1 PUSH1 0x0 PUSH1 0xA0 DUP7 DUP9 SUB SLT ISZERO PUSH3 0x356 JUMPI PUSH1 0x0 DUP1 REVERT JUMPDEST PUSH3 0x361 DUP7 PUSH3 0x253 JUMP JUMPDEST PUSH1 0x20 DUP8 ADD MLOAD SWAP1 SWAP6 POP PUSH1 0x1 PUSH1 0x1 PUSH1 0x40 SHL SUB DUP1 DUP3 GT ISZERO PUSH3 0x37F JUMPI PUSH1 0x0 DUP1 REVERT JUMPDEST PUSH3 0x38D DUP10 DUP4 DUP11 ADD PUSH3 0x2AC JUMP JUMPDEST SWAP6 POP PUSH1 0x40 DUP9 ADD MLOAD SWAP5 POP PUSH3 0x3A4 PUSH1 0x60 DUP10 ADD PUSH3 0x253 JUMP JUMPDEST SWAP4 POP PUSH1 0x80 DUP9 ADD MLOAD SWAP2 POP DUP1 DUP3 GT ISZERO PUSH3 0x3BB JUMPI PUSH1 0x0 DUP1 REVERT JUMPDEST POP PUSH3 0x3CA DUP9 DUP3 DUP10 ADD PUSH3 0x2AC JUMP JUMPDEST SWAP2 POP POP SWAP3 SWAP6 POP SWAP3 SWAP6 SWAP1 SWAP4 POP JUMP JUMPDEST PUSH1 0x0 DUP2 MLOAD DUP1 DUP5 MSTORE PUSH3 0x3F1 DUP2 PUSH1 0x20 DUP7 ADD PUSH1 0x20 DUP7 ADD PUSH3 0x286 JUMP JUMPDEST PUSH1 0x1F ADD PUSH1 0x1F NOT AND SWAP3 SWAP1 SWAP3 ADD PUSH1 0x20 ADD SWAP3 SWAP2 POP POP JUMP JUMPDEST PUSH1 0xA0 DUP2 MSTORE PUSH1 0x0 PUSH3 0x41A PUSH1 0xA0 DUP4 ADD DUP9 PUSH3 0x3D7 JUMP JUMPDEST PUSH1 0x20 DUP4 ADD DUP8 SWAP1 MSTORE PUSH1 0x1 PUSH1 0x1 PUSH1 0xA0 SHL SUB DUP7 DUP2 AND PUSH1 0x40 DUP6 ADD MSTORE DUP6 AND PUSH1 0x60 DUP5 ADD MSTORE DUP3 DUP2 SUB PUSH1 0x80 DUP5 ADD MSTORE PUSH3 0x44C DUP2 DUP6 PUSH3 0x3D7 JUMP JUMPDEST SWAP9 SWAP8 POP POP POP POP POP POP POP POP JUMP JUMPDEST PUSH1 0x0 PUSH1 0x20 DUP3 DUP5 SUB SLT ISZERO PUSH3 0x46B JUMPI PUSH1 0x0 DUP1 REVERT JUMPDEST PUSH3 0x476 DUP3 PUSH3 0x253 JUMP JUMPDEST SWAP4 SWAP3 POP POP POP JUMP JUMPDEST PUSH2 0x20C2 DUP1 PUSH3 0x48D PUSH1 0x0 CODECOPY PUSH1 0x0 RETURN INVALID PUSH1 0x80 PUSH1 0x40 MSTORE CALLVALUE DUP1 ISZERO PUSH2 0x10 JUMPI PUSH1 0x0 DUP1 REVERT JUMPDEST POP PUSH1 0x4 CALLDATASIZE LT PUSH2 0xA9 JUMPI PUSH1 0x0 CALLDATALOAD PUSH1 0xE0 SHR DUP1 PUSH4 0x8DF0C22A GT PUSH2 0x71 JUMPI DUP1 PUSH4 0x8DF0C22A EQ PUSH2 0x184 JUMPI DUP1 PUSH4 0xBDF80435 EQ PUSH2 0x197 JUMPI DUP1 PUSH4 0xC52822F8 EQ PUSH2 0x1AA JUMPI DUP1 PUSH4 0xC9100BCB EQ PUSH2 0x1C4 JUMPI DUP1 PUSH4 0xD7F8FB9F EQ PUSH2 0x1E8 JUMPI DUP1 PUSH4 0xEFF0F592 EQ PUSH2 0x1FB JUMPI PUSH1 0x0 DUP1 REVERT JUMPDEST DUP1 PUSH4 0x6FDDE03 EQ PUSH2 0xAE JUMPI DUP1 PUSH4 0x210D5E55 EQ PUSH2 0xED JUMPI DUP1 PUSH4 0x2639C060 EQ PUSH2 0x102 JUMPI DUP1 PUSH4 0x6ABD1ADE EQ PUSH2 0x123 JUMPI DUP1 PUSH4 0x8DA5CB5B EQ PUSH2 0x159 JUMPI JUMPDEST PUSH1 0x0 DUP1 REVERT JUMPDEST PUSH2 0xD7 PUSH1 0x40 MLOAD DUP1 PUSH1 0x40 ADD PUSH1 0x40 MSTORE DUP1 PUSH1 0xA DUP2 MSTORE PUSH1 0x20 ADD PUSH10 0x43697469436C61696D73 PUSH1 0xB0 SHL DUP2 MSTORE POP DUP2 JUMP JUMPDEST PUSH1 0x40 MLOAD PUSH2 0xE4 SWAP2 SWAP1 PUSH2 0x17E2 JUMP JUMPDEST PUSH1 0x40 MLOAD DUP1 SWAP2 SUB SWAP1 RETURN JUMPDEST PUSH2 0x100 PUSH2 0xFB CALLDATASIZE PUSH1 0x4 PUSH2 0x1A27 JUMP JUMPDEST PUSH2 0x20E JUMP JUMPDEST STOP JUMPDEST PUSH2 0x115 PUSH2 0x110 CALLDATASIZE PUSH1 0x4 PUSH2 0x1AF9 JUMP JUMPDEST PUSH2 0x5D9 JUMP JUMPDEST PUSH1 0x40 MLOAD SWAP1 DUP2 MSTORE PUSH1 0x20 ADD PUSH2 0xE4 JUMP JUMPDEST PUSH2 0x149 PUSH2 0x131 CALLDATASIZE PUSH1 0x4 PUSH2 0x1AF9 JUMP JUMPDEST PUSH1 0x0 SWAP1 DUP2 MSTORE PUSH1 0x3 PUSH1 0x20 MSTORE PUSH1 0x40 SWAP1 KECCAK256 PUSH1 0x2 ADD SLOAD PUSH1 0xFF AND SWAP1 JUMP JUMPDEST PUSH1 0x40 MLOAD SWAP1 ISZERO ISZERO DUP2 MSTORE PUSH1 0x20 ADD PUSH2 0xE4 JUMP JUMPDEST PUSH1 0x0 SLOAD PUSH2 0x16C SWAP1 PUSH1 0x1 PUSH1 0x1 PUSH1 0xA0 SHL SUB AND DUP2 JUMP JUMPDEST PUSH1 0x40 MLOAD PUSH1 0x1 PUSH1 0x1 PUSH1 0xA0 SHL SUB SWAP1 SWAP2 AND DUP2 MSTORE PUSH1 0x20 ADD PUSH2 0xE4 JUMP JUMPDEST PUSH1 0x1 SLOAD PUSH2 0x16C SWAP1 PUSH1 0x1 PUSH1 0x1 PUSH1 0xA0 SHL SUB AND DUP2 JUMP JUMPDEST PUSH2 0x100 PUSH2 0x1A5 CALLDATASIZE PUSH1 0x4 PUSH2 0x1AF9 JUMP JUMPDEST PUSH2 0x5FA JUMP JUMPDEST PUSH2 0x1B2 PUSH2 0xB45 JUMP JUMPDEST PUSH1 0x40 MLOAD PUSH2 0xE4 SWAP7 SWAP6 SWAP5 SWAP4 SWAP3 SWAP2 SWAP1 PUSH2 0x1C0D JUMP JUMPDEST PUSH2 0x1D7 PUSH2 0x1D2 CALLDATASIZE PUSH1 0x4 PUSH2 0x1AF9 JUMP JUMPDEST PUSH2 0xF7A JUMP JUMPDEST PUSH1 0x40 MLOAD PUSH2 0xE4 SWAP6 SWAP5 SWAP4 SWAP3 SWAP2 SWAP1 PUSH2 0x1CB8 JUMP JUMPDEST PUSH2 0x100 PUSH2 0x1F6 CALLDATASIZE PUSH1 0x4 PUSH2 0x1D07 JUMP JUMPDEST PUSH2 0x10EA JUMP JUMPDEST PUSH2 0x1D7 PUSH2 0x209 CALLDATASIZE PUSH1 0x4 PUSH2 0x1AF9 JUMP JUMPDEST PUSH2 0x164D JUMP JUMPDEST PUSH1 0x0 SLOAD PUSH1 0x1 PUSH1 0x1 PUSH1 0xA0 SHL SUB AND CALLER EQ PUSH2 0x286 JUMPI PUSH1 0x40 MLOAD PUSH3 0x461BCD PUSH1 0xE5 SHL DUP2 MSTORE PUSH1 0x20 PUSH1 0x4 DUP3 ADD MSTORE PUSH1 0x30 PUSH1 0x24 DUP3 ADD MSTORE PUSH32 0x4F6E6C792074686520636F6E7472616374206F776E65722063616E2070657266 PUSH1 0x44 DUP3 ADD MSTORE PUSH16 0x37B936903A3434B99030B1BA34B7B717 PUSH1 0x81 SHL PUSH1 0x64 DUP3 ADD MSTORE PUSH1 0x84 ADD JUMPDEST PUSH1 0x40 MLOAD DUP1 SWAP2 SUB SWAP1 REVERT JUMPDEST DUP4 MLOAD DUP6 MLOAD EQ DUP1 ISZERO PUSH2 0x298 JUMPI POP DUP3 MLOAD DUP6 MLOAD EQ JUMPDEST DUP1 ISZERO PUSH2 0x2A5 JUMPI POP DUP2 MLOAD DUP6 MLOAD EQ JUMPDEST DUP1 ISZERO PUSH2 0x2B2 JUMPI POP DUP1 MLOAD DUP6 MLOAD EQ JUMPDEST PUSH2 0x2FE JUMPI PUSH1 0x40 MLOAD PUSH3 0x461BCD PUSH1 0xE5 SHL DUP2 MSTORE PUSH1 0x20 PUSH1 0x4 DUP3 ADD MSTORE PUSH1 0x18 PUSH1 0x24 DUP3 ADD MSTORE PUSH32 0x4172726179206C656E67746873206D757374206D617463680000000000000000 PUSH1 0x44 DUP3 ADD MSTORE PUSH1 0x64 ADD PUSH2 0x27D JUMP JUMPDEST PUSH1 0x0 JUMPDEST DUP6 MLOAD DUP2 LT ISZERO PUSH2 0x5D1 JUMPI PUSH1 0x0 PUSH1 0x1 PUSH1 0x1 PUSH1 0xA0 SHL SUB AND PUSH1 0x3 PUSH1 0x0 DUP9 DUP5 DUP2 MLOAD DUP2 LT PUSH2 0x32B JUMPI PUSH2 0x32B PUSH2 0x1D7C JUMP JUMPDEST PUSH1 0x20 MUL PUSH1 0x20 ADD ADD MLOAD DUP2 MSTORE PUSH1 0x20 ADD SWAP1 DUP2 MSTORE PUSH1 0x20 ADD PUSH1 0x0 KECCAK256 PUSH1 0x2 ADD PUSH1 0x1 SWAP1 SLOAD SWAP1 PUSH2 0x100 EXP SWAP1 DIV PUSH1 0x1 PUSH1 0x1 PUSH1 0xA0 SHL SUB AND PUSH1 0x1 PUSH1 0x1 PUSH1 0xA0 SHL SUB AND EQ PUSH2 0x3A6 JUMPI PUSH1 0x40 MLOAD PUSH3 0x461BCD PUSH1 0xE5 SHL DUP2 MSTORE PUSH1 0x20 PUSH1 0x4 DUP3 ADD MSTORE PUSH1 0x15 PUSH1 0x24 DUP3 ADD MSTORE PUSH21 0x21B630B4B69030B63932B0B23C9032BC34B9BA3997 PUSH1 0x59 SHL PUSH1 0x44 DUP3 ADD MSTORE PUSH1 0x64 ADD PUSH2 0x27D JUMP JUMPDEST PUSH1 0x40 MLOAD DUP1 PUSH1 0xA0 ADD PUSH1 0x40 MSTORE DUP1 DUP7 DUP4 DUP2 MLOAD DUP2 LT PUSH2 0x3C3 JUMPI PUSH2 0x3C3 PUSH2 0x1D7C JUMP JUMPDEST PUSH1 0x20 MUL PUSH1 0x20 ADD ADD MLOAD DUP2 MSTORE PUSH1 0x20 ADD DUP6 DUP4 DUP2 MLOAD DUP2 LT PUSH2 0x3E2 JUMPI PUSH2 0x3E2 PUSH2 0x1D7C JUMP JUMPDEST PUSH1 0x20 MUL PUSH1 0x20 ADD ADD MLOAD DUP2 MSTORE PUSH1 0x20 ADD PUSH1 0x0 ISZERO ISZERO DUP2 MSTORE PUSH1 0x20 ADD DUP5 DUP4 DUP2 MLOAD DUP2 LT PUSH2 0x40A JUMPI PUSH2 0x40A PUSH2 0x1D7C JUMP JUMPDEST PUSH1 0x20 MUL PUSH1 0x20 ADD ADD MLOAD PUSH1 0x1 PUSH1 0x1 PUSH1 0xA0 SHL SUB AND DUP2 MSTORE PUSH1 0x20 ADD DUP4 DUP4 DUP2 MLOAD DUP2 LT PUSH2 0x432 JUMPI PUSH2 0x432 PUSH2 0x1D7C JUMP JUMPDEST PUSH1 0x20 MUL PUSH1 0x20 ADD ADD MLOAD DUP2 MSTORE POP PUSH1 0x3 PUSH1 0x0 DUP9 DUP5 DUP2 MLOAD DUP2 LT PUSH2 0x453 JUMPI PUSH2 0x453 PUSH2 0x1D7C JUMP JUMPDEST PUSH1 0x20 MUL PUSH1 0x20 ADD ADD MLOAD DUP2 MSTORE PUSH1 0x20 ADD SWAP1 DUP2 MSTORE PUSH1 0x20 ADD PUSH1 0x0 KECCAK256 PUSH1 0x0 DUP3 ADD MLOAD DUP2 PUSH1 0x0 ADD SWAP1 DUP2 PUSH2 0x47E SWAP2 SWAP1 PUSH2 0x1E17 JUMP JUMPDEST POP PUSH1 0x20 DUP3 ADD MLOAD PUSH1 0x1 DUP3 ADD SSTORE PUSH1 0x40 DUP3 ADD MLOAD PUSH1 0x2 DUP3 ADD DUP1 SLOAD PUSH1 0x60 DUP6 ADD MLOAD PUSH1 0x1 PUSH1 0x1 PUSH1 0xA0 SHL SUB AND PUSH2 0x100 MUL PUSH2 0x100 PUSH1 0x1 PUSH1 0xA8 SHL SUB NOT SWAP4 ISZERO ISZERO SWAP4 SWAP1 SWAP4 AND PUSH1 0x1 PUSH1 0x1 PUSH1 0xA8 SHL SUB NOT SWAP1 SWAP2 AND OR SWAP2 SWAP1 SWAP2 OR SWAP1 SSTORE PUSH1 0x80 DUP3 ADD MLOAD PUSH1 0x3 DUP3 ADD SWAP1 PUSH2 0x4DE SWAP1 DUP3 PUSH2 0x1E17 JUMP JUMPDEST POP SWAP1 POP POP PUSH1 0x4 DUP7 DUP3 DUP2 MLOAD DUP2 LT PUSH2 0x4F6 JUMPI PUSH2 0x4F6 PUSH2 0x1D7C JUMP JUMPDEST PUSH1 0x20 SWAP1 DUP2 MUL SWAP2 SWAP1 SWAP2 ADD DUP2 ADD MLOAD DUP3 SLOAD PUSH1 0x1 DUP2 ADD DUP5 SSTORE PUSH1 0x0 SWAP4 DUP5 MSTORE SWAP2 SWAP1 SWAP3 KECCAK256 ADD SSTORE DUP3 MLOAD DUP4 SWAP1 DUP3 SWAP1 DUP2 LT PUSH2 0x529 JUMPI PUSH2 0x529 PUSH2 0x1D7C JUMP JUMPDEST PUSH1 0x20 MUL PUSH1 0x20 ADD ADD MLOAD PUSH1 0x1 PUSH1 0x1 PUSH1 0xA0 SHL SUB AND DUP7 DUP3 DUP2 MLOAD DUP2 LT PUSH2 0x54C JUMPI PUSH2 0x54C PUSH2 0x1D7C JUMP JUMPDEST PUSH1 0x20 MUL PUSH1 0x20 ADD ADD MLOAD PUSH32 0xA1DD72822D7F8A4DA00716DFF2874B077DDBDD1D38D838B1DCD4B1C5D50FA47C DUP7 DUP5 DUP2 MLOAD DUP2 LT PUSH2 0x587 JUMPI PUSH2 0x587 PUSH2 0x1D7C JUMP JUMPDEST PUSH1 0x20 MUL PUSH1 0x20 ADD ADD MLOAD DUP6 DUP6 DUP2 MLOAD DUP2 LT PUSH2 0x5A1 JUMPI PUSH2 0x5A1 PUSH2 0x1D7C JUMP JUMPDEST PUSH1 0x20 MUL PUSH1 0x20 ADD ADD MLOAD PUSH1 0x40 MLOAD PUSH2 0x5B7 SWAP3 SWAP2 SWAP1 PUSH2 0x1ED7 JUMP JUMPDEST PUSH1 0x40 MLOAD DUP1 SWAP2 SUB SWAP1 LOG3 DUP1 PUSH2 0x5C9 DUP2 PUSH2 0x1EF8 JUMP JUMPDEST SWAP2 POP POP PUSH2 0x301 JUMP JUMPDEST POP POP POP POP POP POP JUMP JUMPDEST PUSH1 0x4 DUP2 DUP2 SLOAD DUP2 LT PUSH2 0x5E9 JUMPI PUSH1 0x0 DUP1 REVERT JUMPDEST PUSH1 0x0 SWAP2 DUP3 MSTORE PUSH1 0x20 SWAP1 SWAP2 KECCAK256 ADD SLOAD SWAP1 POP DUP2 JUMP JUMPDEST PUSH1 0x0 DUP2 DUP2 MSTORE PUSH1 0x3 PUSH1 0x20 MSTORE PUSH1 0x40 SWAP1 KECCAK256 PUSH1 0x2 ADD SLOAD DUP2 SWAP1 PUSH2 0x100 SWAP1 DIV PUSH1 0x1 PUSH1 0x1 PUSH1 0xA0 SHL SUB AND CALLER EQ PUSH2 0x689 JUMPI PUSH1 0x40 MLOAD PUSH3 0x461BCD PUSH1 0xE5 SHL DUP2 MSTORE PUSH1 0x20 PUSH1 0x4 DUP3 ADD MSTORE PUSH1 0x36 PUSH1 0x24 DUP3 ADD MSTORE PUSH32 0x4F6E6C79207468652073706563696669656420636F756E746572706172747920 PUSH1 0x44 DUP3 ADD MSTORE PUSH22 0x31B0B71039B2BA3A3632903A3434B99031B630B4B697 PUSH1 0x51 SHL PUSH1 0x64 DUP3 ADD MSTORE PUSH1 0x84 ADD PUSH2 0x27D JUMP JUMPDEST PUSH1 0x0 DUP3 DUP2 MSTORE PUSH1 0x3 PUSH1 0x20 MSTORE PUSH1 0x40 SWAP1 KECCAK256 PUSH1 0x2 DUP2 ADD SLOAD PUSH1 0xFF AND ISZERO PUSH2 0x6F8 JUMPI PUSH1 0x40 MLOAD PUSH3 0x461BCD PUSH1 0xE5 SHL DUP2 MSTORE PUSH1 0x20 PUSH1 0x4 DUP3 ADD MSTORE PUSH1 0x24 DUP1 DUP3 ADD MSTORE PUSH32 0x5468697320636C61696D2068617320616C7265616479206265656E2073657474 PUSH1 0x44 DUP3 ADD MSTORE PUSH4 0x3632B217 PUSH1 0xE1 SHL PUSH1 0x64 DUP3 ADD MSTORE PUSH1 0x84 ADD PUSH2 0x27D JUMP JUMPDEST PUSH1 0x0 PUSH1 0x2 DUP3 PUSH1 0x3 ADD PUSH1 0x40 MLOAD PUSH2 0x70D SWAP2 SWAP1 PUSH2 0x1F92 JUMP JUMPDEST SWAP1 DUP2 MSTORE PUSH1 0x40 MLOAD SWAP1 DUP2 SWAP1 SUB PUSH1 0x20 ADD SWAP1 KECCAK256 SLOAD PUSH1 0x1 PUSH1 0x1 PUSH1 0xA0 SHL SUB AND SWAP1 POP DUP1 PUSH2 0x769 JUMPI PUSH1 0x40 MLOAD PUSH3 0x461BCD PUSH1 0xE5 SHL DUP2 MSTORE PUSH1 0x20 PUSH1 0x4 DUP3 ADD MSTORE PUSH1 0x11 PUSH1 0x24 DUP3 ADD MSTORE PUSH17 0x2AB739BAB83837B93A32B2103A37B5B2B7 PUSH1 0x79 SHL PUSH1 0x44 DUP3 ADD MSTORE PUSH1 0x64 ADD PUSH2 0x27D JUMP JUMPDEST PUSH1 0x40 MLOAD PUSH4 0x51C4BC1F PUSH1 0xE1 SHL DUP2 MSTORE CALLER PUSH1 0x4 DUP3 ADD MSTORE ADDRESS PUSH1 0x24 DUP3 ADD MSTORE DUP2 SWAP1 PUSH1 0x1 PUSH1 0x1 PUSH1 0xA0 SHL SUB DUP3 AND SWAP1 PUSH4 0xA389783E SWAP1 PUSH1 0x44 ADD PUSH1 0x20 PUSH1 0x40 MLOAD DUP1 DUP4 SUB DUP2 DUP7 GAS STATICCALL ISZERO DUP1 ISZERO PUSH2 0x7B5 JUMPI RETURNDATASIZE PUSH1 0x0 DUP1 RETURNDATACOPY RETURNDATASIZE PUSH1 0x0 REVERT JUMPDEST POP POP POP POP PUSH1 0x40 MLOAD RETURNDATASIZE PUSH1 0x1F NOT PUSH1 0x1F DUP3 ADD AND DUP3 ADD DUP1 PUSH1 0x40 MSTORE POP DUP2 ADD SWAP1 PUSH2 0x7D9 SWAP2 SWAP1 PUSH2 0x1F9E JUMP JUMPDEST PUSH2 0x839 JUMPI PUSH1 0x40 MLOAD PUSH3 0x461BCD PUSH1 0xE5 SHL DUP2 MSTORE PUSH1 0x20 PUSH1 0x4 DUP3 ADD MSTORE PUSH1 0x2B PUSH1 0x24 DUP3 ADD MSTORE PUSH32 0x43697469436C61696D73206E6F7420617070726F76656420746F207472616E73 PUSH1 0x44 DUP3 ADD MSTORE PUSH11 0x3332B9103A37B5B2B73997 PUSH1 0xA9 SHL PUSH1 0x64 DUP3 ADD MSTORE PUSH1 0x84 ADD PUSH2 0x27D JUMP JUMPDEST PUSH1 0x40 MLOAD PUSH4 0x70A08231 PUSH1 0xE0 SHL DUP2 MSTORE CALLER PUSH1 0x4 DUP3 ADD MSTORE PUSH1 0x0 SWAP1 PUSH1 0x1 PUSH1 0x1 PUSH1 0xA0 SHL SUB DUP4 AND SWAP1 PUSH4 0x70A08231 SWAP1 PUSH1 0x24 ADD PUSH1 0x20 PUSH1 0x40 MLOAD DUP1 DUP4 SUB DUP2 DUP7 GAS STATICCALL ISZERO DUP1 ISZERO PUSH2 0x880 JUMPI RETURNDATASIZE PUSH1 0x0 DUP1 RETURNDATACOPY RETURNDATASIZE PUSH1 0x0 REVERT JUMPDEST POP POP POP POP PUSH1 0x40 MLOAD RETURNDATASIZE PUSH1 0x1F NOT PUSH1 0x1F DUP3 ADD AND DUP3 ADD DUP1 PUSH1 0x40 MSTORE POP DUP2 ADD SWAP1 PUSH2 0x8A4 SWAP2 SWAP1 PUSH2 0x1FC0 JUMP JUMPDEST SWAP1 POP DUP4 PUSH1 0x1 ADD SLOAD DUP2 LT ISZERO PUSH2 0xA1D JUMPI PUSH1 0x40 DUP1 MLOAD DUP1 DUP3 ADD DUP3 MSTORE PUSH1 0x4 DUP2 MSTORE PUSH4 0x1554D11D PUSH1 0xE2 SHL PUSH1 0x20 SWAP1 SWAP2 ADD MSTORE MLOAD PUSH32 0x85884BC2158F4BDC08810B487538402E011F8D8877DA6A41A8DEBB13AF295C12 SWAP1 PUSH2 0x8FE SWAP1 PUSH1 0x3 DUP8 ADD SWAP1 PUSH2 0x1F92 JUMP JUMPDEST PUSH1 0x40 MLOAD DUP1 SWAP2 SUB SWAP1 KECCAK256 SUB PUSH2 0x966 JUMPI DUP6 PUSH1 0x0 DUP1 MLOAD PUSH1 0x20 PUSH2 0x206D DUP4 CODECOPY DUP2 MLOAD SWAP2 MSTORE PUSH1 0x40 MLOAD PUSH2 0x959 SWAP1 PUSH1 0x20 DUP1 DUP3 MSTORE PUSH1 0x1A SWAP1 DUP3 ADD MSTORE PUSH32 0x496E73756666696369656E7420555344742062616C616E63652E000000000000 PUSH1 0x40 DUP3 ADD MSTORE PUSH1 0x60 ADD SWAP1 JUMP JUMPDEST PUSH1 0x40 MLOAD DUP1 SWAP2 SUB SWAP1 LOG2 PUSH2 0x5D1 JUMP JUMPDEST PUSH1 0x40 DUP1 MLOAD DUP1 DUP3 ADD DUP3 MSTORE PUSH1 0x4 DUP2 MSTORE PUSH4 0x1155549D PUSH1 0xE2 SHL PUSH1 0x20 SWAP1 SWAP2 ADD MSTORE MLOAD PUSH32 0xDFCFF4C03CB7B82F49595B382A2FB552B15B4E878449E9673D29D1EA3831E3CE SWAP1 PUSH2 0x9B2 SWAP1 PUSH1 0x3 DUP8 ADD SWAP1 PUSH2 0x1F92 JUMP JUMPDEST PUSH1 0x40 MLOAD DUP1 SWAP2 SUB SWAP1 KECCAK256 SUB PUSH2 0x5D1 JUMPI DUP6 PUSH1 0x0 DUP1 MLOAD PUSH1 0x20 PUSH2 0x206D DUP4 CODECOPY DUP2 MLOAD SWAP2 MSTORE PUSH1 0x40 MLOAD PUSH2 0xA0D SWAP1 PUSH1 0x20 DUP1 DUP3 MSTORE PUSH1 0x1A SWAP1 DUP3 ADD MSTORE PUSH32 0x496E73756666696369656E7420455552742062616C616E63652E000000000000 PUSH1 0x40 DUP3 ADD MSTORE PUSH1 0x60 ADD SWAP1 JUMP JUMPDEST PUSH1 0x40 MLOAD DUP1 SWAP2 SUB SWAP1 LOG2 POP POP POP POP POP POP JUMP JUMPDEST PUSH1 0x0 DUP1 SLOAD PUSH1 0x1 DUP7 ADD SLOAD PUSH1 0x40 MLOAD PUSH4 0x23B872DD PUSH1 0xE0 SHL DUP2 MSTORE CALLER PUSH1 0x4 DUP3 ADD MSTORE PUSH1 0x1 PUSH1 0x1 PUSH1 0xA0 SHL SUB SWAP3 DUP4 AND PUSH1 0x24 DUP3 ADD MSTORE PUSH1 0x44 DUP2 ADD SWAP2 SWAP1 SWAP2 MSTORE SWAP1 DUP5 AND SWAP1 PUSH4 0x23B872DD SWAP1 PUSH1 0x64 ADD PUSH1 0x20 PUSH1 0x40 MLOAD DUP1 DUP4 SUB DUP2 PUSH1 0x0 DUP8 GAS CALL ISZERO DUP1 ISZERO PUSH2 0xA7D JUMPI RETURNDATASIZE PUSH1 0x0 DUP1 RETURNDATACOPY RETURNDATASIZE PUSH1 0x0 REVERT JUMPDEST POP POP POP POP PUSH1 0x40 MLOAD RETURNDATASIZE PUSH1 0x1F NOT PUSH1 0x1F DUP3 ADD AND DUP3 ADD DUP1 PUSH1 0x40 MSTORE POP DUP2 ADD SWAP1 PUSH2 0xAA1 SWAP2 SWAP1 PUSH2 0x1F9E JUMP JUMPDEST SWAP1 POP DUP1 PUSH2 0xAE8 JUMPI PUSH1 0x40 MLOAD PUSH3 0x461BCD PUSH1 0xE5 SHL DUP2 MSTORE PUSH1 0x20 PUSH1 0x4 DUP3 ADD MSTORE PUSH1 0x15 PUSH1 0x24 DUP3 ADD MSTORE PUSH21 0x151BDAD95B881D1C985B9CD9995C8819985A5B1959 PUSH1 0x5A SHL PUSH1 0x44 DUP3 ADD MSTORE PUSH1 0x64 ADD PUSH2 0x27D JUMP JUMPDEST PUSH1 0x2 DUP6 ADD DUP1 SLOAD PUSH1 0xFF NOT AND PUSH1 0x1 SWAP1 DUP2 OR SWAP1 SWAP2 SSTORE DUP6 ADD SLOAD PUSH1 0x40 MLOAD CALLER SWAP2 DUP10 SWAP2 PUSH32 0x656CDE5ECAD907F0E5E7A115C07B4AB29C39CCA395594CF191F20287DA1FCD51 SWAP2 PUSH2 0xB34 SWAP2 PUSH1 0x3 DUP12 ADD SWAP1 PUSH2 0x1FD9 JUMP JUMPDEST PUSH1 0x40 MLOAD DUP1 SWAP2 SUB SWAP1 LOG3 POP POP POP POP POP POP POP JUMP JUMPDEST PUSH1 0x60 DUP1 PUSH1 0x60 DUP1 PUSH1 0x60 DUP1 PUSH1 0x0 PUSH1 0x4 DUP1 SLOAD SWAP1 POP SWAP1 POP DUP1 PUSH8 0xFFFFFFFFFFFFFFFF DUP2 GT ISZERO PUSH2 0xB71 JUMPI PUSH2 0xB71 PUSH2 0x17FC JUMP JUMPDEST PUSH1 0x40 MLOAD SWAP1 DUP1 DUP3 MSTORE DUP1 PUSH1 0x20 MUL PUSH1 0x20 ADD DUP3 ADD PUSH1 0x40 MSTORE DUP1 ISZERO PUSH2 0xB9A JUMPI DUP2 PUSH1 0x20 ADD PUSH1 0x20 DUP3 MUL DUP1 CALLDATASIZE DUP4 CALLDATACOPY ADD SWAP1 POP JUMPDEST POP SWAP7 POP DUP1 PUSH8 0xFFFFFFFFFFFFFFFF DUP2 GT ISZERO PUSH2 0xBB6 JUMPI PUSH2 0xBB6 PUSH2 0x17FC JUMP JUMPDEST PUSH1 0x40 MLOAD SWAP1 DUP1 DUP3 MSTORE DUP1 PUSH1 0x20 MUL PUSH1 0x20 ADD DUP3 ADD PUSH1 0x40 MSTORE DUP1 ISZERO PUSH2 0xBE9 JUMPI DUP2 PUSH1 0x20 ADD JUMPDEST PUSH1 0x60 DUP2 MSTORE PUSH1 0x20 ADD SWAP1 PUSH1 0x1 SWAP1 SUB SWAP1 DUP2 PUSH2 0xBD4 JUMPI SWAP1 POP JUMPDEST POP SWAP6 POP DUP1 PUSH8 0xFFFFFFFFFFFFFFFF DUP2 GT ISZERO PUSH2 0xC05 JUMPI PUSH2 0xC05 PUSH2 0x17FC JUMP JUMPDEST PUSH1 0x40 MLOAD SWAP1 DUP1 DUP3 MSTORE DUP1 PUSH1 0x20 MUL PUSH1 0x20 ADD DUP3 ADD PUSH1 0x40 MSTORE DUP1 ISZERO PUSH2 0xC2E JUMPI DUP2 PUSH1 0x20 ADD PUSH1 0x20 DUP3 MUL DUP1 CALLDATASIZE DUP4 CALLDATACOPY ADD SWAP1 POP JUMPDEST POP SWAP5 POP DUP1 PUSH8 0xFFFFFFFFFFFFFFFF DUP2 GT ISZERO PUSH2 0xC4A JUMPI PUSH2 0xC4A PUSH2 0x17FC JUMP JUMPDEST PUSH1 0x40 MLOAD SWAP1 DUP1 DUP3 MSTORE DUP1 PUSH1 0x20 MUL PUSH1 0x20 ADD DUP3 ADD PUSH1 0x40 MSTORE DUP1 ISZERO PUSH2 0xC73 JUMPI DUP2 PUSH1 0x20 ADD PUSH1 0x20 DUP3 MUL DUP1 CALLDATASIZE DUP4 CALLDATACOPY ADD SWAP1 POP JUMPDEST POP SWAP4 POP DUP1 PUSH8 0xFFFFFFFFFFFFFFFF DUP2 GT ISZERO PUSH2 0xC8F JUMPI PUSH2 0xC8F PUSH2 0x17FC JUMP JUMPDEST PUSH1 0x40 MLOAD SWAP1 DUP1 DUP3 MSTORE DUP1 PUSH1 0x20 MUL PUSH1 0x20 ADD DUP3 ADD PUSH1 0x40 MSTORE DUP1 ISZERO PUSH2 0xCB8 JUMPI DUP2 PUSH1 0x20 ADD PUSH1 0x20 DUP3 MUL DUP1 CALLDATASIZE DUP4 CALLDATACOPY ADD SWAP1 POP JUMPDEST POP SWAP3 POP DUP1 PUSH8 0xFFFFFFFFFFFFFFFF DUP2 GT ISZERO PUSH2 0xCD4 JUMPI PUSH2 0xCD4 PUSH2 0x17FC JUMP JUMPDEST PUSH1 0x40 MLOAD SWAP1 DUP1 DUP3 MSTORE DUP1 PUSH1 0x20 MUL PUSH1 0x20 ADD DUP3 ADD PUSH1 0x40 MSTORE DUP1 ISZERO PUSH2 0xD07 JUMPI DUP2 PUSH1 0x20 ADD JUMPDEST PUSH1 0x60 DUP2 MSTORE PUSH1 0x20 ADD SWAP1 PUSH1 0x1 SWAP1 SUB SWAP1 DUP2 PUSH2 0xCF2 JUMPI SWAP1 POP JUMPDEST POP SWAP2 POP PUSH1 0x0 JUMPDEST DUP2 DUP2 LT ISZERO PUSH2 0xF70 JUMPI PUSH1 0x0 PUSH1 0x4 DUP3 DUP2 SLOAD DUP2 LT PUSH2 0xD2A JUMPI PUSH2 0xD2A PUSH2 0x1D7C JUMP JUMPDEST SWAP1 PUSH1 0x0 MSTORE PUSH1 0x20 PUSH1 0x0 KECCAK256 ADD SLOAD SWAP1 POP PUSH1 0x0 PUSH1 0x3 PUSH1 0x0 DUP4 DUP2 MSTORE PUSH1 0x20 ADD SWAP1 DUP2 MSTORE PUSH1 0x20 ADD PUSH1 0x0 KECCAK256 SWAP1 POP DUP2 DUP11 DUP5 DUP2 MLOAD DUP2 LT PUSH2 0xD61 JUMPI PUSH2 0xD61 PUSH2 0x1D7C JUMP JUMPDEST PUSH1 0x20 SWAP1 DUP2 MUL SWAP2 SWAP1 SWAP2 ADD ADD MSTORE DUP1 SLOAD DUP2 SWAP1 PUSH2 0xD79 SWAP1 PUSH2 0x1D92 JUMP JUMPDEST DUP1 PUSH1 0x1F ADD PUSH1 0x20 DUP1 SWAP2 DIV MUL PUSH1 0x20 ADD PUSH1 0x40 MLOAD SWAP1 DUP2 ADD PUSH1 0x40 MSTORE DUP1 SWAP3 SWAP2 SWAP1 DUP2 DUP2 MSTORE PUSH1 0x20 ADD DUP3 DUP1 SLOAD PUSH2 0xDA5 SWAP1 PUSH2 0x1D92 JUMP JUMPDEST DUP1 ISZERO PUSH2 0xDF2 JUMPI DUP1 PUSH1 0x1F LT PUSH2 0xDC7 JUMPI PUSH2 0x100 DUP1 DUP4 SLOAD DIV MUL DUP4 MSTORE SWAP2 PUSH1 0x20 ADD SWAP2 PUSH2 0xDF2 JUMP JUMPDEST DUP3 ADD SWAP2 SWAP1 PUSH1 0x0 MSTORE PUSH1 0x20 PUSH1 0x0 KECCAK256 SWAP1 JUMPDEST DUP2 SLOAD DUP2 MSTORE SWAP1 PUSH1 0x1 ADD SWAP1 PUSH1 0x20 ADD DUP1 DUP4 GT PUSH2 0xDD5 JUMPI DUP3 SWAP1 SUB PUSH1 0x1F AND DUP3 ADD SWAP2 JUMPDEST POP POP POP POP POP DUP10 DUP5 DUP2 MLOAD DUP2 LT PUSH2 0xE09 JUMPI PUSH2 0xE09 PUSH2 0x1D7C JUMP JUMPDEST PUSH1 0x20 MUL PUSH1 0x20 ADD ADD DUP2 SWAP1 MSTORE POP DUP1 PUSH1 0x1 ADD SLOAD DUP9 DUP5 DUP2 MLOAD DUP2 LT PUSH2 0xE2B JUMPI PUSH2 0xE2B PUSH2 0x1D7C JUMP JUMPDEST PUSH1 0x20 SWAP1 DUP2 MUL SWAP2 SWAP1 SWAP2 ADD ADD MSTORE PUSH1 0x2 DUP2 ADD SLOAD DUP8 MLOAD PUSH1 0xFF SWAP1 SWAP2 AND SWAP1 DUP9 SWAP1 DUP6 SWAP1 DUP2 LT PUSH2 0xE55 JUMPI PUSH2 0xE55 PUSH2 0x1D7C JUMP JUMPDEST PUSH1 0x20 MUL PUSH1 0x20 ADD ADD SWAP1 ISZERO ISZERO SWAP1 DUP2 ISZERO ISZERO DUP2 MSTORE POP POP DUP1 PUSH1 0x2 ADD PUSH1 0x1 SWAP1 SLOAD SWAP1 PUSH2 0x100 EXP SWAP1 DIV PUSH1 0x1 PUSH1 0x1 PUSH1 0xA0 SHL SUB AND DUP7 DUP5 DUP2 MLOAD DUP2 LT PUSH2 0xE91 JUMPI PUSH2 0xE91 PUSH2 0x1D7C JUMP JUMPDEST PUSH1 0x20 MUL PUSH1 0x20 ADD ADD SWAP1 PUSH1 0x1 PUSH1 0x1 PUSH1 0xA0 SHL SUB AND SWAP1 DUP2 PUSH1 0x1 PUSH1 0x1 PUSH1 0xA0 SHL SUB AND DUP2 MSTORE POP POP DUP1 PUSH1 0x3 ADD DUP1 SLOAD PUSH2 0xEC0 SWAP1 PUSH2 0x1D92 JUMP JUMPDEST DUP1 PUSH1 0x1F ADD PUSH1 0x20 DUP1 SWAP2 DIV MUL PUSH1 0x20 ADD PUSH1 0x40 MLOAD SWAP1 DUP2 ADD PUSH1 0x40 MSTORE DUP1 SWAP3 SWAP2 SWAP1 DUP2 DUP2 MSTORE PUSH1 0x20 ADD DUP3 DUP1 SLOAD PUSH2 0xEEC SWAP1 PUSH2 0x1D92 JUMP JUMPDEST DUP1 ISZERO PUSH2 0xF39 JUMPI DUP1 PUSH1 0x1F LT PUSH2 0xF0E JUMPI PUSH2 0x100 DUP1 DUP4 SLOAD DIV MUL DUP4 MSTORE SWAP2 PUSH1 0x20 ADD SWAP2 PUSH2 0xF39 JUMP JUMPDEST DUP3 ADD SWAP2 SWAP1 PUSH1 0x0 MSTORE PUSH1 0x20 PUSH1 0x0 KECCAK256 SWAP1 JUMPDEST DUP2 SLOAD DUP2 MSTORE SWAP1 PUSH1 0x1 ADD SWAP1 PUSH1 0x20 ADD DUP1 DUP4 GT PUSH2 0xF1C JUMPI DUP3 SWAP1 SUB PUSH1 0x1F AND DUP3 ADD SWAP2 JUMPDEST POP POP POP POP POP DUP6 DUP5 DUP2 MLOAD DUP2 LT PUSH2 0xF50 JUMPI PUSH2 0xF50 PUSH2 0x1D7C JUMP JUMPDEST PUSH1 0x20 MUL PUSH1 0x20 ADD ADD DUP2 SWAP1 MSTORE POP POP POP DUP1 DUP1 PUSH2 0xF68 SWAP1 PUSH2 0x1EF8 JUMP JUMPDEST SWAP2 POP POP PUSH2 0xD0D JUMP JUMPDEST POP POP SWAP1 SWAP2 SWAP3 SWAP4 SWAP5 SWAP6 JUMP JUMPDEST PUSH1 0x0 DUP2 DUP2 MSTORE PUSH1 0x3 PUSH1 0x20 DUP2 SWAP1 MSTORE PUSH1 0x40 DUP3 KECCAK256 PUSH1 0x1 DUP2 ADD SLOAD PUSH1 0x2 DUP3 ADD SLOAD DUP3 SLOAD PUSH1 0x60 SWAP6 SWAP5 DUP6 SWAP5 DUP6 SWAP5 DUP9 SWAP5 SWAP2 SWAP4 DUP5 SWAP4 SWAP2 SWAP3 PUSH1 0xFF DUP2 AND SWAP3 PUSH2 0x100 SWAP1 SWAP2 DIV PUSH1 0x1 PUSH1 0x1 PUSH1 0xA0 SHL SUB AND SWAP2 SWAP1 DUP6 ADD SWAP1 DUP6 SWAP1 PUSH2 0xFCA SWAP1 PUSH2 0x1D92 JUMP JUMPDEST DUP1 PUSH1 0x1F ADD PUSH1 0x20 DUP1 SWAP2 DIV MUL PUSH1 0x20 ADD PUSH1 0x40 MLOAD SWAP1 DUP2 ADD PUSH1 0x40 MSTORE DUP1 SWAP3 SWAP2 SWAP1 DUP2 DUP2 MSTORE PUSH1 0x20 ADD DUP3 DUP1 SLOAD PUSH2 0xFF6 SWAP1 PUSH2 0x1D92 JUMP JUMPDEST DUP1 ISZERO PUSH2 0x1043 JUMPI DUP1 PUSH1 0x1F LT PUSH2 0x1018 JUMPI PUSH2 0x100 DUP1 DUP4 SLOAD DIV MUL DUP4 MSTORE SWAP2 PUSH1 0x20 ADD SWAP2 PUSH2 0x1043 JUMP JUMPDEST DUP3 ADD SWAP2 SWAP1 PUSH1 0x0 MSTORE PUSH1 0x20 PUSH1 0x0 KECCAK256 SWAP1 JUMPDEST DUP2 SLOAD DUP2 MSTORE SWAP1 PUSH1 0x1 ADD SWAP1 PUSH1 0x20 ADD DUP1 DUP4 GT PUSH2 0x1026 JUMPI DUP3 SWAP1 SUB PUSH1 0x1F AND DUP3 ADD SWAP2 JUMPDEST POP POP POP POP POP SWAP5 POP DUP1 DUP1 SLOAD PUSH2 0x1056 SWAP1 PUSH2 0x1D92 JUMP JUMPDEST DUP1 PUSH1 0x1F ADD PUSH1 0x20 DUP1 SWAP2 DIV MUL PUSH1 0x20 ADD PUSH1 0x40 MLOAD SWAP1 DUP2 ADD PUSH1 0x40 MSTORE DUP1 SWAP3 SWAP2 SWAP1 DUP2 DUP2 MSTORE PUSH1 0x20 ADD DUP3 DUP1 SLOAD PUSH2 0x1082 SWAP1 PUSH2 0x1D92 JUMP JUMPDEST DUP1 ISZERO PUSH2 0x10CF JUMPI DUP1 PUSH1 0x1F LT PUSH2 0x10A4 JUMPI PUSH2 0x100 DUP1 DUP4 SLOAD DIV MUL DUP4 MSTORE SWAP2 PUSH1 0x20 ADD SWAP2 PUSH2 0x10CF JUMP JUMPDEST DUP3 ADD SWAP2 SWAP1 PUSH1 0x0 MSTORE PUSH1 0x20 PUSH1 0x0 KECCAK256 SWAP1 JUMPDEST DUP2 SLOAD DUP2 MSTORE SWAP1 PUSH1 0x1 ADD SWAP1 PUSH1 0x20 ADD DUP1 DUP4 GT PUSH2 0x10B2 JUMPI DUP3 SWAP1 SUB PUSH1 0x1F AND DUP3 ADD SWAP2 JUMPDEST POP POP POP POP POP SWAP1 POP SWAP6 POP SWAP6 POP SWAP6 POP SWAP6 POP SWAP6 POP POP SWAP2 SWAP4 SWAP6 SWAP1 SWAP3 SWAP5 POP JUMP JUMPDEST PUSH1 0x0 DUP1 PUSH1 0x0 JUMPDEST DUP4 DUP2 LT ISZERO PUSH2 0x1560 JUMPI PUSH1 0x0 DUP6 DUP6 DUP4 DUP2 DUP2 LT PUSH2 0x110C JUMPI PUSH2 0x110C PUSH2 0x1D7C JUMP JUMPDEST PUSH1 0x20 SWAP1 DUP2 MUL SWAP3 SWAP1 SWAP3 ADD CALLDATALOAD PUSH1 0x0 DUP2 DUP2 MSTORE PUSH1 0x3 SWAP1 SWAP4 MSTORE PUSH1 0x40 SWAP1 SWAP3 KECCAK256 PUSH1 0x2 DUP2 ADD SLOAD SWAP3 SWAP4 POP SWAP2 PUSH1 0xFF AND SWAP1 POP DUP1 PUSH2 0x1150 JUMPI POP PUSH1 0x2 DUP2 ADD SLOAD PUSH2 0x100 SWAP1 DIV PUSH1 0x1 PUSH1 0x1 PUSH1 0xA0 SHL SUB AND CALLER EQ ISZERO JUMPDEST ISZERO PUSH2 0x115C JUMPI POP POP PUSH2 0x154E JUMP JUMPDEST PUSH1 0x0 PUSH1 0x2 DUP3 PUSH1 0x3 ADD PUSH1 0x40 MLOAD PUSH2 0x1171 SWAP2 SWAP1 PUSH2 0x1F92 JUMP JUMPDEST SWAP1 DUP2 MSTORE PUSH1 0x40 MLOAD SWAP1 DUP2 SWAP1 SUB PUSH1 0x20 ADD SWAP1 KECCAK256 SLOAD PUSH1 0x1 PUSH1 0x1 PUSH1 0xA0 SHL SUB AND SWAP1 POP DUP1 PUSH2 0x11E3 JUMPI DUP3 PUSH1 0x0 DUP1 MLOAD PUSH1 0x20 PUSH2 0x206D DUP4 CODECOPY DUP2 MLOAD SWAP2 MSTORE PUSH1 0x40 MLOAD PUSH2 0x11D3 SWAP1 PUSH1 0x20 DUP1 DUP3 MSTORE PUSH1 0x11 SWAP1 DUP3 ADD MSTORE PUSH17 0x2AB739BAB83837B93A32B2103A37B5B2B7 PUSH1 0x79 SHL PUSH1 0x40 DUP3 ADD MSTORE PUSH1 0x60 ADD SWAP1 JUMP JUMPDEST PUSH1 0x40 MLOAD DUP1 SWAP2 SUB SWAP1 LOG2 POP POP POP PUSH2 0x154E JUMP JUMPDEST PUSH1 0x40 MLOAD PUSH4 0x51C4BC1F PUSH1 0xE1 SHL DUP2 MSTORE CALLER PUSH1 0x4 DUP3 ADD MSTORE ADDRESS PUSH1 0x24 DUP3 ADD MSTORE DUP2 SWAP1 PUSH1 0x1 PUSH1 0x1 PUSH1 0xA0 SHL SUB DUP3 AND SWAP1 PUSH4 0xA389783E SWAP1 PUSH1 0x44 ADD PUSH1 0x20 PUSH1 0x40 MLOAD DUP1 DUP4 SUB DUP2 DUP7 GAS STATICCALL ISZERO DUP1 ISZERO PUSH2 0x122F JUMPI RETURNDATASIZE PUSH1 0x0 DUP1 RETURNDATACOPY RETURNDATASIZE PUSH1 0x0 REVERT JUMPDEST POP POP POP POP PUSH1 0x40 MLOAD RETURNDATASIZE PUSH1 0x1F NOT PUSH1 0x1F DUP3 ADD AND DUP3 ADD DUP1 PUSH1 0x40 MSTORE POP DUP2 ADD SWAP1 PUSH2 0x1253 SWAP2 SWAP1 PUSH2 0x1F9E JUMP JUMPDEST PUSH2 0x12CC JUMPI DUP4 PUSH1 0x0 DUP1 MLOAD PUSH1 0x20 PUSH2 0x206D DUP4 CODECOPY DUP2 MLOAD SWAP2 MSTORE PUSH1 0x40 MLOAD PUSH2 0x12BB SWAP1 PUSH1 0x20 DUP1 DUP3 MSTORE PUSH1 0x2D SWAP1 DUP3 ADD MSTORE PUSH32 0x42616E6B436F6E7472616374206E6F7420617070726F76656420746F20747261 PUSH1 0x40 DUP3 ADD MSTORE PUSH13 0x3739B332B9103A37B5B2B73997 PUSH1 0x99 SHL PUSH1 0x60 DUP3 ADD MSTORE PUSH1 0x80 ADD SWAP1 JUMP JUMPDEST PUSH1 0x40 MLOAD DUP1 SWAP2 SUB SWAP1 LOG2 POP POP POP POP PUSH2 0x154E JUMP JUMPDEST PUSH1 0x40 MLOAD PUSH4 0x70A08231 PUSH1 0xE0 SHL DUP2 MSTORE CALLER PUSH1 0x4 DUP3 ADD MSTORE PUSH1 0x0 SWAP1 PUSH1 0x1 PUSH1 0x1 PUSH1 0xA0 SHL SUB DUP4 AND SWAP1 PUSH4 0x70A08231 SWAP1 PUSH1 0x24 ADD PUSH1 0x20 PUSH1 0x40 MLOAD DUP1 DUP4 SUB DUP2 DUP7 GAS STATICCALL ISZERO DUP1 ISZERO PUSH2 0x1313 JUMPI RETURNDATASIZE PUSH1 0x0 DUP1 RETURNDATACOPY RETURNDATASIZE PUSH1 0x0 REVERT JUMPDEST POP POP POP POP PUSH1 0x40 MLOAD RETURNDATASIZE PUSH1 0x1F NOT PUSH1 0x1F DUP3 ADD AND DUP3 ADD DUP1 PUSH1 0x40 MSTORE POP DUP2 ADD SWAP1 PUSH2 0x1337 SWAP2 SWAP1 PUSH2 0x1FC0 JUMP JUMPDEST SWAP1 POP DUP4 PUSH1 0x1 ADD SLOAD DUP2 LT ISZERO PUSH2 0x140F JUMPI PUSH1 0x40 DUP1 MLOAD DUP1 DUP3 ADD DUP3 MSTORE PUSH1 0x4 DUP2 MSTORE PUSH4 0x1554D11D PUSH1 0xE2 SHL PUSH1 0x20 SWAP1 SWAP2 ADD MSTORE MLOAD PUSH32 0x85884BC2158F4BDC08810B487538402E011F8D8877DA6A41A8DEBB13AF295C12 SWAP1 PUSH2 0x1391 SWAP1 PUSH1 0x3 DUP8 ADD SWAP1 PUSH2 0x1F92 JUMP JUMPDEST PUSH1 0x40 MLOAD DUP1 SWAP2 SUB SWAP1 KECCAK256 SUB PUSH2 0x13A7 JUMPI PUSH1 0x1 SWAP8 POP PUSH2 0x1405 JUMP JUMPDEST PUSH1 0x40 DUP1 MLOAD DUP1 DUP3 ADD DUP3 MSTORE PUSH1 0x4 DUP2 MSTORE PUSH4 0x1155549D PUSH1 0xE2 SHL PUSH1 0x20 SWAP1 SWAP2 ADD MSTORE MLOAD PUSH32 0xDFCFF4C03CB7B82F49595B382A2FB552B15B4E878449E9673D29D1EA3831E3CE SWAP1 PUSH2 0x13F3 SWAP1 PUSH1 0x3 DUP8 ADD SWAP1 PUSH2 0x1F92 JUMP JUMPDEST PUSH1 0x40 MLOAD DUP1 SWAP2 SUB SWAP1 KECCAK256 SUB PUSH2 0x1405 JUMPI PUSH1 0x1 SWAP7 POP JUMPDEST POP POP POP POP POP PUSH2 0x154E JUMP JUMPDEST PUSH1 0x0 DUP1 SLOAD PUSH1 0x1 DUP7 ADD SLOAD PUSH1 0x40 MLOAD PUSH4 0x23B872DD PUSH1 0xE0 SHL DUP2 MSTORE CALLER PUSH1 0x4 DUP3 ADD MSTORE PUSH1 0x1 PUSH1 0x1 PUSH1 0xA0 SHL SUB SWAP3 DUP4 AND PUSH1 0x24 DUP3 ADD MSTORE PUSH1 0x44 DUP2 ADD SWAP2 SWAP1 SWAP2 MSTORE SWAP1 DUP5 AND SWAP1 PUSH4 0x23B872DD SWAP1 PUSH1 0x64 ADD PUSH1 0x20 PUSH1 0x40 MLOAD DUP1 DUP4 SUB DUP2 PUSH1 0x0 DUP8 GAS CALL ISZERO DUP1 ISZERO PUSH2 0x146F JUMPI RETURNDATASIZE PUSH1 0x0 DUP1 RETURNDATACOPY RETURNDATASIZE PUSH1 0x0 REVERT JUMPDEST POP POP POP POP PUSH1 0x40 MLOAD RETURNDATASIZE PUSH1 0x1F NOT PUSH1 0x1F DUP3 ADD AND DUP3 ADD DUP1 PUSH1 0x40 MSTORE POP DUP2 ADD SWAP1 PUSH2 0x1493 SWAP2 SWAP1 PUSH2 0x1F9E JUMP JUMPDEST SWAP1 POP DUP1 PUSH2 0x14F3 JUMPI DUP6 PUSH1 0x0 DUP1 MLOAD PUSH1 0x20 PUSH2 0x206D DUP4 CODECOPY DUP2 MLOAD SWAP2 MSTORE PUSH1 0x40 MLOAD PUSH2 0x14E0 SWAP1 PUSH1 0x20 DUP1 DUP3 MSTORE PUSH1 0x15 SWAP1 DUP3 ADD MSTORE PUSH21 0x151BDAD95B881D1C985B9CD9995C8819985A5B1959 PUSH1 0x5A SHL PUSH1 0x40 DUP3 ADD MSTORE PUSH1 0x60 ADD SWAP1 JUMP JUMPDEST PUSH1 0x40 MLOAD DUP1 SWAP2 SUB SWAP1 LOG2 POP POP POP POP POP POP PUSH2 0x154E JUMP JUMPDEST PUSH1 0x2 DUP6 ADD DUP1 SLOAD PUSH1 0xFF NOT AND PUSH1 0x1 SWAP1 DUP2 OR SWAP1 SWAP2 SSTORE DUP6 ADD SLOAD PUSH1 0x40 MLOAD CALLER SWAP2 DUP9 SWAP2 PUSH32 0x656CDE5ECAD907F0E5E7A115C07B4AB29C39CCA395594CF191F20287DA1FCD51 SWAP2 PUSH2 0x153F SWAP2 PUSH1 0x3 DUP12 ADD SWAP1 PUSH2 0x1FD9 JUMP JUMPDEST PUSH1 0x40 MLOAD DUP1 SWAP2 SUB SWAP1 LOG3 POP POP POP POP POP POP JUMPDEST DUP1 PUSH2 0x1558 DUP2 PUSH2 0x1EF8 JUMP JUMPDEST SWAP2 POP POP PUSH2 0x10F0 JUMP JUMPDEST POP DUP2 ISZERO PUSH2 0x15D4 JUMPI PUSH1 0x0 DUP1 SHL PUSH1 0x0 DUP1 MLOAD PUSH1 0x20 PUSH2 0x206D DUP4 CODECOPY DUP2 MLOAD SWAP2 MSTORE PUSH1 0x40 MLOAD PUSH2 0x15CB SWAP1 PUSH1 0x20 DUP1 DUP3 MSTORE PUSH1 0x2A SWAP1 DUP3 ADD MSTORE PUSH32 0x496E73756666696369656E7420555344742062616C616E636520666F7220736F PUSH1 0x40 DUP3 ADD MSTORE PUSH10 0x36B29031B630B4B6B997 PUSH1 0xB1 SHL PUSH1 0x60 DUP3 ADD MSTORE PUSH1 0x80 ADD SWAP1 JUMP JUMPDEST PUSH1 0x40 MLOAD DUP1 SWAP2 SUB SWAP1 LOG2 JUMPDEST DUP1 ISZERO PUSH2 0x1647 JUMPI PUSH1 0x0 DUP1 SHL PUSH1 0x0 DUP1 MLOAD PUSH1 0x20 PUSH2 0x206D DUP4 CODECOPY DUP2 MLOAD SWAP2 MSTORE PUSH1 0x40 MLOAD PUSH2 0x163E SWAP1 PUSH1 0x20 DUP1 DUP3 MSTORE PUSH1 0x2A SWAP1 DUP3 ADD MSTORE PUSH32 0x496E73756666696369656E7420455552742062616C616E636520666F7220736F PUSH1 0x40 DUP3 ADD MSTORE PUSH10 0x36B29031B630B4B6B997 PUSH1 0xB1 SHL PUSH1 0x60 DUP3 ADD MSTORE PUSH1 0x80 ADD SWAP1 JUMP JUMPDEST PUSH1 0x40 MLOAD DUP1 SWAP2 SUB SWAP1 LOG2 JUMPDEST POP POP POP POP JUMP JUMPDEST PUSH1 0x3 PUSH1 0x20 MSTORE PUSH1 0x0 SWAP1 DUP2 MSTORE PUSH1 0x40 SWAP1 KECCAK256 DUP1 SLOAD DUP2 SWAP1 PUSH2 0x1668 SWAP1 PUSH2 0x1D92 JUMP JUMPDEST DUP1 PUSH1 0x1F ADD PUSH1 0x20 DUP1 SWAP2 DIV MUL PUSH1 0x20 ADD PUSH1 0x40 MLOAD SWAP1 DUP2 ADD PUSH1 0x40 MSTORE DUP1 SWAP3 SWAP2 SWAP1 DUP2 DUP2 MSTORE PUSH1 0x20 ADD DUP3 DUP1 SLOAD PUSH2 0x1694 SWAP1 PUSH2 0x1D92 JUMP JUMPDEST DUP1 ISZERO PUSH2 0x16E1 JUMPI DUP1 PUSH1 0x1F LT PUSH2 0x16B6 JUMPI PUSH2 0x100 DUP1 DUP4 SLOAD DIV MUL DUP4 MSTORE SWAP2 PUSH1 0x20 ADD SWAP2 PUSH2 0x16E1 JUMP JUMPDEST DUP3 ADD SWAP2 SWAP1 PUSH1 0x0 MSTORE PUSH1 0x20 PUSH1 0x0 KECCAK256 SWAP1 JUMPDEST DUP2 SLOAD DUP2 MSTORE SWAP1 PUSH1 0x1 ADD SWAP1 PUSH1 0x20 ADD DUP1 DUP4 GT PUSH2 0x16C4 JUMPI DUP3 SWAP1 SUB PUSH1 0x1F AND DUP3 ADD SWAP2 JUMPDEST POP POP POP POP PUSH1 0x1 DUP4 ADD SLOAD PUSH1 0x2 DUP5 ADD SLOAD PUSH1 0x3 DUP6 ADD DUP1 SLOAD SWAP5 SWAP6 SWAP3 SWAP5 PUSH1 0xFF DUP4 AND SWAP5 POP PUSH2 0x100 SWAP1 SWAP3 DIV PUSH1 0x1 PUSH1 0x1 PUSH1 0xA0 SHL SUB AND SWAP3 SWAP2 PUSH2 0x1719 SWAP1 PUSH2 0x1D92 JUMP JUMPDEST DUP1 PUSH1 0x1F ADD PUSH1 0x20 DUP1 SWAP2 DIV MUL PUSH1 0x20 ADD PUSH1 0x40 MLOAD SWAP1 DUP2 ADD PUSH1 0x40 MSTORE DUP1 SWAP3 SWAP2 SWAP1 DUP2 DUP2 MSTORE PUSH1 0x20 ADD DUP3 DUP1 SLOAD PUSH2 0x1745 SWAP1 PUSH2 0x1D92 JUMP JUMPDEST DUP1 ISZERO PUSH2 0x1792 JUMPI DUP1 PUSH1 0x1F LT PUSH2 0x1767 JUMPI PUSH2 0x100 DUP1 DUP4 SLOAD DIV MUL DUP4 MSTORE SWAP2 PUSH1 0x20 ADD SWAP2 PUSH2 0x1792 JUMP JUMPDEST DUP3 ADD SWAP2 SWAP1 PUSH1 0x0 MSTORE PUSH1 0x20 PUSH1 0x0 KECCAK256 SWAP1 JUMPDEST DUP2 SLOAD DUP2 MSTORE SWAP1 PUSH1 0x1 ADD SWAP1 PUSH1 0x20 ADD DUP1 DUP4 GT PUSH2 0x1775 JUMPI DUP3 SWAP1 SUB PUSH1 0x1F AND DUP3 ADD SWAP2 JUMPDEST POP POP POP POP POP SWAP1 POP DUP6 JUMP JUMPDEST PUSH1 0x0 DUP2 MLOAD DUP1 DUP5 MSTORE PUSH1 0x0 JUMPDEST DUP2 DUP2 LT ISZERO PUSH2 0x17C2 JUMPI PUSH1 0x20 DUP2 DUP6 ADD DUP2 ADD MLOAD DUP7 DUP4 ADD DUP3 ADD MSTORE ADD PUSH2 0x17A6 JUMP JUMPDEST POP PUSH1 0x0 PUSH1 0x20 DUP3 DUP7 ADD ADD MSTORE PUSH1 0x20 PUSH1 0x1F NOT PUSH1 0x1F DUP4 ADD AND DUP6 ADD ADD SWAP2 POP POP SWAP3 SWAP2 POP POP JUMP JUMPDEST PUSH1 0x20 DUP2 MSTORE PUSH1 0x0 PUSH2 0x17F5 PUSH1 0x20 DUP4 ADD DUP5 PUSH2 0x179C JUMP JUMPDEST SWAP4 SWAP3 POP POP POP JUMP JUMPDEST PUSH4 0x4E487B71 PUSH1 0xE0 SHL PUSH1 0x0 MSTORE PUSH1 0x41 PUSH1 0x4 MSTORE PUSH1 0x24 PUSH1 0x0 REVERT JUMPDEST PUSH1 0x40 MLOAD PUSH1 0x1F DUP3 ADD PUSH1 0x1F NOT AND DUP2 ADD PUSH8 0xFFFFFFFFFFFFFFFF DUP2 GT DUP3 DUP3 LT OR ISZERO PUSH2 0x183B JUMPI PUSH2 0x183B PUSH2 0x17FC JUMP JUMPDEST PUSH1 0x40 MSTORE SWAP2 SWAP1 POP JUMP JUMPDEST PUSH1 0x0 PUSH8 0xFFFFFFFFFFFFFFFF DUP3 GT ISZERO PUSH2 0x185D JUMPI PUSH2 0x185D PUSH2 0x17FC JUMP JUMPDEST POP PUSH1 0x5 SHL PUSH1 0x20 ADD SWAP1 JUMP JUMPDEST PUSH1 0x0 DUP3 PUSH1 0x1F DUP4 ADD SLT PUSH2 0x1878 JUMPI PUSH1 0x0 DUP1 REVERT JUMPDEST DUP2 CALLDATALOAD PUSH1 0x20 PUSH2 0x188D PUSH2 0x1888 DUP4 PUSH2 0x1843 JUMP JUMPDEST PUSH2 0x1812 JUMP JUMPDEST DUP3 DUP2 MSTORE PUSH1 0x5 SWAP3 SWAP1 SWAP3 SHL DUP5 ADD DUP2 ADD SWAP2 DUP2 DUP2 ADD SWAP1 DUP7 DUP5 GT ISZERO PUSH2 0x18AC JUMPI PUSH1 0x0 DUP1 REVERT JUMPDEST DUP3 DUP7 ADD JUMPDEST DUP5 DUP2 LT ISZERO PUSH2 0x18C7 JUMPI DUP1 CALLDATALOAD DUP4 MSTORE SWAP2 DUP4 ADD SWAP2 DUP4 ADD PUSH2 0x18B0 JUMP JUMPDEST POP SWAP7 SWAP6 POP POP POP POP POP POP JUMP JUMPDEST PUSH1 0x0 PUSH1 0x1F DUP4 DUP2 DUP5 ADD SLT PUSH2 0x18E4 JUMPI PUSH1 0x0 DUP1 REVERT JUMPDEST DUP3 CALLDATALOAD PUSH1 0x20 PUSH2 0x18F4 PUSH2 0x1888 DUP4 PUSH2 0x1843 JUMP JUMPDEST DUP3 DUP2 MSTORE PUSH1 0x5 SWAP3 SWAP1 SWAP3 SHL DUP6 ADD DUP2 ADD SWAP2 DUP2 DUP2 ADD SWAP1 DUP8 DUP5 GT ISZERO PUSH2 0x1913 JUMPI PUSH1 0x0 DUP1 REVERT JUMPDEST DUP3 DUP8 ADD JUMPDEST DUP5 DUP2 LT ISZERO PUSH2 0x19AA JUMPI DUP1 CALLDATALOAD PUSH8 0xFFFFFFFFFFFFFFFF DUP1 DUP3 GT ISZERO PUSH2 0x1938 JUMPI PUSH1 0x0 DUP1 DUP2 REVERT JUMPDEST DUP2 DUP11 ADD SWAP2 POP DUP11 PUSH1 0x3F DUP4 ADD SLT PUSH2 0x194D JUMPI PUSH1 0x0 DUP1 DUP2 REVERT JUMPDEST DUP6 DUP3 ADD CALLDATALOAD PUSH1 0x40 DUP3 DUP3 GT ISZERO PUSH2 0x1963 JUMPI PUSH2 0x1963 PUSH2 0x17FC JUMP JUMPDEST PUSH2 0x1974 DUP3 DUP12 ADD PUSH1 0x1F NOT AND DUP10 ADD PUSH2 0x1812 JUMP JUMPDEST SWAP3 POP DUP2 DUP4 MSTORE DUP13 DUP2 DUP4 DUP7 ADD ADD GT ISZERO PUSH2 0x198B JUMPI PUSH1 0x0 DUP1 DUP2 REVERT JUMPDEST DUP2 DUP2 DUP6 ADD DUP10 DUP6 ADD CALLDATACOPY POP PUSH1 0x0 SWAP1 DUP3 ADD DUP8 ADD MSTORE DUP5 MSTORE POP SWAP2 DUP4 ADD SWAP2 DUP4 ADD PUSH2 0x1917 JUMP JUMPDEST POP SWAP8 SWAP7 POP POP POP POP POP POP POP JUMP JUMPDEST PUSH1 0x0 DUP3 PUSH1 0x1F DUP4 ADD SLT PUSH2 0x19C7 JUMPI PUSH1 0x0 DUP1 REVERT JUMPDEST DUP2 CALLDATALOAD PUSH1 0x20 PUSH2 0x19D7 PUSH2 0x1888 DUP4 PUSH2 0x1843 JUMP JUMPDEST DUP3 DUP2 MSTORE PUSH1 0x5 SWAP3 SWAP1 SWAP3 SHL DUP5 ADD DUP2 ADD SWAP2 DUP2 DUP2 ADD SWAP1 DUP7 DUP5 GT ISZERO PUSH2 0x19F6 JUMPI PUSH1 0x0 DUP1 REVERT JUMPDEST DUP3 DUP7 ADD JUMPDEST DUP5 DUP2 LT ISZERO PUSH2 0x18C7 JUMPI DUP1 CALLDATALOAD PUSH1 0x1 PUSH1 0x1 PUSH1 0xA0 SHL SUB DUP2 AND DUP2 EQ PUSH2 0x1A1A JUMPI PUSH1 0x0 DUP1 DUP2 REVERT JUMPDEST DUP4 MSTORE SWAP2 DUP4 ADD SWAP2 DUP4 ADD PUSH2 0x19FA JUMP JUMPDEST PUSH1 0x0 DUP1 PUSH1 0x0 DUP1 PUSH1 0x0 PUSH1 0xA0 DUP7 DUP9 SUB SLT ISZERO PUSH2 0x1A3F JUMPI PUSH1 0x0 DUP1 REVERT JUMPDEST DUP6 CALLDATALOAD PUSH8 0xFFFFFFFFFFFFFFFF DUP1 DUP3 GT ISZERO PUSH2 0x1A57 JUMPI PUSH1 0x0 DUP1 REVERT JUMPDEST PUSH2 0x1A63 DUP10 DUP4 DUP11 ADD PUSH2 0x1867 JUMP JUMPDEST SWAP7 POP PUSH1 0x20 DUP9 ADD CALLDATALOAD SWAP2 POP DUP1 DUP3 GT ISZERO PUSH2 0x1A79 JUMPI PUSH1 0x0 DUP1 REVERT JUMPDEST PUSH2 0x1A85 DUP10 DUP4 DUP11 ADD PUSH2 0x18D2 JUMP JUMPDEST SWAP6 POP PUSH1 0x40 DUP9 ADD CALLDATALOAD SWAP2 POP DUP1 DUP3 GT ISZERO PUSH2 0x1A9B JUMPI PUSH1 0x0 DUP1 REVERT JUMPDEST PUSH2 0x1AA7 DUP10 DUP4 DUP11 ADD PUSH2 0x1867 JUMP JUMPDEST SWAP5 POP PUSH1 0x60 DUP9 ADD CALLDATALOAD SWAP2 POP DUP1 DUP3 GT ISZERO PUSH2 0x1ABD JUMPI PUSH1 0x0 DUP1 REVERT JUMPDEST PUSH2 0x1AC9 DUP10 DUP4 DUP11 ADD PUSH2 0x19B6 JUMP JUMPDEST SWAP4 POP PUSH1 0x80 DUP9 ADD CALLDATALOAD SWAP2 POP DUP1 DUP3 GT ISZERO PUSH2 0x1ADF JUMPI PUSH1 0x0 DUP1 REVERT JUMPDEST POP PUSH2 0x1AEC DUP9 DUP3 DUP10 ADD PUSH2 0x18D2 JUMP JUMPDEST SWAP2 POP POP SWAP3 SWAP6 POP SWAP3 SWAP6 SWAP1 SWAP4 POP JUMP JUMPDEST PUSH1 0x0 PUSH1 0x20 DUP3 DUP5 SUB SLT ISZERO PUSH2 0x1B0B JUMPI PUSH1 0x0 DUP1 REVERT JUMPDEST POP CALLDATALOAD SWAP2 SWAP1 POP JUMP JUMPDEST PUSH1 0x0 DUP2 MLOAD DUP1 DUP5 MSTORE PUSH1 0x20 DUP1 DUP6 ADD DUP1 DUP2 SWAP7 POP DUP4 PUSH1 0x5 SHL DUP2 ADD SWAP2 POP DUP3 DUP7 ADD PUSH1 0x0 JUMPDEST DUP6 DUP2 LT ISZERO PUSH2 0x1B5A JUMPI DUP3 DUP5 SUB DUP10 MSTORE PUSH2 0x1B48 DUP5 DUP4 MLOAD PUSH2 0x179C JUMP JUMPDEST SWAP9 DUP6 ADD SWAP9 SWAP4 POP SWAP1 DUP5 ADD SWAP1 PUSH1 0x1 ADD PUSH2 0x1B30 JUMP JUMPDEST POP SWAP2 SWAP8 SWAP7 POP POP POP POP POP POP POP JUMP JUMPDEST PUSH1 0x0 DUP2 MLOAD DUP1 DUP5 MSTORE PUSH1 0x20 DUP1 DUP6 ADD SWAP5 POP DUP1 DUP5 ADD PUSH1 0x0 JUMPDEST DUP4 DUP2 LT ISZERO PUSH2 0x1B97 JUMPI DUP2 MLOAD DUP8 MSTORE SWAP6 DUP3 ADD SWAP6 SWAP1 DUP3 ADD SWAP1 PUSH1 0x1 ADD PUSH2 0x1B7B JUMP JUMPDEST POP SWAP5 SWAP6 SWAP5 POP POP POP POP POP JUMP JUMPDEST PUSH1 0x0 DUP2 MLOAD DUP1 DUP5 MSTORE PUSH1 0x20 DUP1 DUP6 ADD SWAP5 POP DUP1 DUP5 ADD PUSH1 0x0 JUMPDEST DUP4 DUP2 LT ISZERO PUSH2 0x1B97 JUMPI DUP2 MLOAD ISZERO ISZERO DUP8 MSTORE SWAP6 DUP3 ADD SWAP6 SWAP1 DUP3 ADD SWAP1 PUSH1 0x1 ADD PUSH2 0x1BB6 JUMP JUMPDEST PUSH1 0x0 DUP2 MLOAD DUP1 DUP5 MSTORE PUSH1 0x20 DUP1 DUP6 ADD SWAP5 POP DUP1 DUP5 ADD PUSH1 0x0 JUMPDEST DUP4 DUP2 LT ISZERO PUSH2 0x1B97 JUMPI DUP2 MLOAD PUSH1 0x1 PUSH1 0x1 PUSH1 0xA0 SHL SUB AND DUP8 MSTORE SWAP6 DUP3 ADD SWAP6 SWAP1 DUP3 ADD SWAP1 PUSH1 0x1 ADD PUSH2 0x1BE8 JUMP JUMPDEST PUSH1 0xC0 DUP1 DUP3 MSTORE DUP8 MLOAD SWAP1 DUP3 ADD DUP2 SWAP1 MSTORE PUSH1 0x0 SWAP1 PUSH1 0x20 SWAP1 PUSH1 0xE0 DUP5 ADD SWAP1 DUP3 DUP12 ADD DUP5 JUMPDEST DUP3 DUP2 LT ISZERO PUSH2 0x1C46 JUMPI DUP2 MLOAD DUP5 MSTORE SWAP3 DUP5 ADD SWAP3 SWAP1 DUP5 ADD SWAP1 PUSH1 0x1 ADD PUSH2 0x1C2A JUMP JUMPDEST POP POP POP DUP4 DUP2 SUB DUP3 DUP6 ADD MSTORE PUSH2 0x1C5A DUP2 DUP11 PUSH2 0x1B12 JUMP JUMPDEST SWAP2 POP POP DUP3 DUP2 SUB PUSH1 0x40 DUP5 ADD MSTORE PUSH2 0x1C6F DUP2 DUP9 PUSH2 0x1B67 JUMP JUMPDEST SWAP1 POP DUP3 DUP2 SUB PUSH1 0x60 DUP5 ADD MSTORE PUSH2 0x1C83 DUP2 DUP8 PUSH2 0x1BA2 JUMP JUMPDEST SWAP1 POP DUP3 DUP2 SUB PUSH1 0x80 DUP5 ADD MSTORE PUSH2 0x1C97 DUP2 DUP7 PUSH2 0x1BD4 JUMP JUMPDEST SWAP1 POP DUP3 DUP2 SUB PUSH1 0xA0 DUP5 ADD MSTORE PUSH2 0x1CAB DUP2 DUP6 PUSH2 0x1B12 JUMP JUMPDEST SWAP10 SWAP9 POP POP POP POP POP POP POP POP POP JUMP JUMPDEST PUSH1 0xA0 DUP2 MSTORE PUSH1 0x0 PUSH2 0x1CCB PUSH1 0xA0 DUP4 ADD DUP9 PUSH2 0x179C JUMP JUMPDEST PUSH1 0x20 DUP4 ADD DUP8 SWAP1 MSTORE DUP6 ISZERO ISZERO PUSH1 0x40 DUP5 ADD MSTORE PUSH1 0x1 PUSH1 0x1 PUSH1 0xA0 SHL SUB DUP6 AND PUSH1 0x60 DUP5 ADD MSTORE DUP3 DUP2 SUB PUSH1 0x80 DUP5 ADD MSTORE PUSH2 0x1CFB DUP2 DUP6 PUSH2 0x179C JUMP JUMPDEST SWAP9 SWAP8 POP POP POP POP POP POP POP POP JUMP JUMPDEST PUSH1 0x0 DUP1 PUSH1 0x20 DUP4 DUP6 SUB SLT ISZERO PUSH2 0x1D1A JUMPI PUSH1 0x0 DUP1 REVERT JUMPDEST DUP3 CALLDATALOAD PUSH8 0xFFFFFFFFFFFFFFFF DUP1 DUP3 GT ISZERO PUSH2 0x1D32 JUMPI PUSH1 0x0 DUP1 REVERT JUMPDEST DUP2 DUP6 ADD SWAP2 POP DUP6 PUSH1 0x1F DUP4 ADD SLT PUSH2 0x1D46 JUMPI PUSH1 0x0 DUP1 REVERT JUMPDEST DUP2 CALLDATALOAD DUP2 DUP2 GT ISZERO PUSH2 0x1D55 JUMPI PUSH1 0x0 DUP1 REVERT JUMPDEST DUP7 PUSH1 0x20 DUP3 PUSH1 0x5 SHL DUP6 ADD ADD GT ISZERO PUSH2 0x1D6A JUMPI PUSH1 0x0 DUP1 REVERT JUMPDEST PUSH1 0x20 SWAP3 SWAP1 SWAP3 ADD SWAP7 SWAP2 SWAP6 POP SWAP1 SWAP4 POP POP POP POP JUMP JUMPDEST PUSH4 0x4E487B71 PUSH1 0xE0 SHL PUSH1 0x0 MSTORE PUSH1 0x32 PUSH1 0x4 MSTORE PUSH1 0x24 PUSH1 0x0 REVERT JUMPDEST PUSH1 0x1 DUP2 DUP2 SHR SWAP1 DUP3 AND DUP1 PUSH2 0x1DA6 JUMPI PUSH1 0x7F DUP3 AND SWAP2 POP JUMPDEST PUSH1 0x20 DUP3 LT DUP2 SUB PUSH2 0x1DC6 JUMPI PUSH4 0x4E487B71 PUSH1 0xE0 SHL PUSH1 0x0 MSTORE PUSH1 0x22 PUSH1 0x4 MSTORE PUSH1 0x24 PUSH1 0x0 REVERT JUMPDEST POP SWAP2 SWAP1 POP JUMP JUMPDEST PUSH1 0x1F DUP3 GT ISZERO PUSH2 0x1E12 JUMPI PUSH1 0x0 DUP2 DUP2 MSTORE PUSH1 0x20 DUP2 KECCAK256 PUSH1 0x1F DUP6 ADD PUSH1 0x5 SHR DUP2 ADD PUSH1 0x20 DUP7 LT ISZERO PUSH2 0x1DF3 JUMPI POP DUP1 JUMPDEST PUSH1 0x1F DUP6 ADD PUSH1 0x5 SHR DUP3 ADD SWAP2 POP JUMPDEST DUP2 DUP2 LT ISZERO PUSH2 0x5D1 JUMPI DUP3 DUP2 SSTORE PUSH1 0x1 ADD PUSH2 0x1DFF JUMP JUMPDEST POP POP POP JUMP JUMPDEST DUP2 MLOAD PUSH8 0xFFFFFFFFFFFFFFFF DUP2 GT ISZERO PUSH2 0x1E31 JUMPI PUSH2 0x1E31 PUSH2 0x17FC JUMP JUMPDEST PUSH2 0x1E45 DUP2 PUSH2 0x1E3F DUP5 SLOAD PUSH2 0x1D92 JUMP JUMPDEST DUP5 PUSH2 0x1DCC JUMP JUMPDEST PUSH1 0x20 DUP1 PUSH1 0x1F DUP4 GT PUSH1 0x1 DUP2 EQ PUSH2 0x1E7A JUMPI PUSH1 0x0 DUP5 ISZERO PUSH2 0x1E62 JUMPI POP DUP6 DUP4 ADD MLOAD JUMPDEST PUSH1 0x0 NOT PUSH1 0x3 DUP7 SWAP1 SHL SHR NOT AND PUSH1 0x1 DUP6 SWAP1 SHL OR DUP6 SSTORE PUSH2 0x5D1 JUMP JUMPDEST PUSH1 0x0 DUP6 DUP2 MSTORE PUSH1 0x20 DUP2 KECCAK256 PUSH1 0x1F NOT DUP7 AND SWAP2 JUMPDEST DUP3 DUP2 LT ISZERO PUSH2 0x1EA9 JUMPI DUP9 DUP7 ADD MLOAD DUP3 SSTORE SWAP5 DUP5 ADD SWAP5 PUSH1 0x1 SWAP1 SWAP2 ADD SWAP1 DUP5 ADD PUSH2 0x1E8A JUMP JUMPDEST POP DUP6 DUP3 LT ISZERO PUSH2 0x1EC7 JUMPI DUP8 DUP6 ADD MLOAD PUSH1 0x0 NOT PUSH1 0x3 DUP9 SWAP1 SHL PUSH1 0xF8 AND SHR NOT AND DUP2 SSTORE JUMPDEST POP POP POP POP POP PUSH1 0x1 SWAP1 DUP2 SHL ADD SWAP1 SSTORE POP JUMP JUMPDEST DUP3 DUP2 MSTORE PUSH1 0x40 PUSH1 0x20 DUP3 ADD MSTORE PUSH1 0x0 PUSH2 0x1EF0 PUSH1 0x40 DUP4 ADD DUP5 PUSH2 0x179C JUMP JUMPDEST SWAP5 SWAP4 POP POP POP POP JUMP JUMPDEST PUSH1 0x0 PUSH1 0x1 DUP3 ADD PUSH2 0x1F18 JUMPI PUSH4 0x4E487B71 PUSH1 0xE0 SHL PUSH1 0x0 MSTORE PUSH1 0x11 PUSH1 0x4 MSTORE PUSH1 0x24 PUSH1 0x0 REVERT JUMPDEST POP PUSH1 0x1 ADD SWAP1 JUMP JUMPDEST PUSH1 0x0 DUP2 SLOAD PUSH2 0x1F2C DUP2 PUSH2 0x1D92 JUMP JUMPDEST PUSH1 0x1 DUP3 DUP2 AND DUP1 ISZERO PUSH2 0x1F44 JUMPI PUSH1 0x1 DUP2 EQ PUSH2 0x1F59 JUMPI PUSH2 0x1F88 JUMP JUMPDEST PUSH1 0xFF NOT DUP5 AND DUP8 MSTORE DUP3 ISZERO ISZERO DUP4 MUL DUP8 ADD SWAP5 POP PUSH2 0x1F88 JUMP JUMPDEST DUP6 PUSH1 0x0 MSTORE PUSH1 0x20 DUP1 PUSH1 0x0 KECCAK256 PUSH1 0x0 JUMPDEST DUP6 DUP2 LT ISZERO PUSH2 0x1F7F JUMPI DUP2 SLOAD DUP11 DUP3 ADD MSTORE SWAP1 DUP5 ADD SWAP1 DUP3 ADD PUSH2 0x1F66 JUMP JUMPDEST POP POP POP DUP3 DUP8 ADD SWAP5 POP JUMPDEST POP POP POP POP SWAP3 SWAP2 POP POP JUMP JUMPDEST PUSH1 0x0 PUSH2 0x17F5 DUP3 DUP5 PUSH2 0x1F1F JUMP JUMPDEST PUSH1 0x0 PUSH1 0x20 DUP3 DUP5 SUB SLT ISZERO PUSH2 0x1FB0 JUMPI PUSH1 0x0 DUP1 REVERT JUMPDEST DUP2 MLOAD DUP1 ISZERO ISZERO DUP2 EQ PUSH2 0x17F5 JUMPI PUSH1 0x0 DUP1 REVERT JUMPDEST PUSH1 0x0 PUSH1 0x20 DUP3 DUP5 SUB SLT ISZERO PUSH2 0x1FD2 JUMPI PUSH1 0x0 DUP1 REVERT JUMPDEST POP MLOAD SWAP2 SWAP1 POP JUMP JUMPDEST DUP3 DUP2 MSTORE PUSH1 0x0 PUSH1 0x20 PUSH1 0x40 DUP2 DUP5 ADD MSTORE PUSH1 0x0 DUP5 SLOAD PUSH2 0x1FF3 DUP2 PUSH2 0x1D92 JUMP JUMPDEST DUP1 PUSH1 0x40 DUP8 ADD MSTORE PUSH1 0x60 PUSH1 0x1 DUP1 DUP5 AND PUSH1 0x0 DUP2 EQ PUSH2 0x2015 JUMPI PUSH1 0x1 DUP2 EQ PUSH2 0x202F JUMPI PUSH2 0x205D JUMP JUMPDEST PUSH1 0xFF NOT DUP6 AND DUP10 DUP5 ADD MSTORE DUP4 ISZERO ISZERO PUSH1 0x5 SHL DUP10 ADD DUP4 ADD SWAP6 POP PUSH2 0x205D JUMP JUMPDEST DUP10 PUSH1 0x0 MSTORE DUP7 PUSH1 0x0 KECCAK256 PUSH1 0x0 JUMPDEST DUP6 DUP2 LT ISZERO PUSH2 0x2055 JUMPI DUP2 SLOAD DUP12 DUP3 ADD DUP7 ADD MSTORE SWAP1 DUP4 ADD SWAP1 DUP9 ADD PUSH2 0x203A JUMP JUMPDEST DUP11 ADD DUP5 ADD SWAP7 POP POP JUMPDEST POP SWAP4 SWAP10 SWAP9 POP POP POP POP POP POP POP POP POP JUMP INVALID SWAP15 DUP2 DUP16 0xE3 0x1F SELFDESTRUCT STOP 0xBA 0x22 SWAP11 SSTORE DUP3 MSIZE 0xAB BLOCKHASH PUSH4 0x9914E202 BLOCKHASH PUSH10 0xAF8D40830C435E48B5B4 LOG2 PUSH5 0x6970667358 0x22 SLT KECCAK256 SELFDESTRUCT JUMP BASEFEE SWAP6 PUSH12 0xB1A3A92DD9F90C2DE45DDCED CODECOPY DUP1 INVALID 0xE3 PUSH26 0x3CF603D77BB70596498464736F6C634300081100330000000000 "},"methodIdentifiers":{"addClaims(bytes32[],string[],uint256[],address[],string[])":"210d5e55","bankDepository()":"8df0c22a","checkIfSettled(bytes32)":"6abd1ade","claimHashes(uint256)":"2639c060","claims(bytes32)":"eff0f592","getClaim(bytes32)":"c9100bcb","getClaims()":"c52822f8","name()":"06fdde03","owner()":"8da5cb5b","settleClaim(bytes32)":"bdf80435","settleClaims(bytes32[])":"d7f8fb9f"}}}}}