{"contracts/BankDepository.sol":{"BankDepository":{"abi":[{"inputs":[{"internalType":"address","name":"usdtAddress","type":"address"},{"internalType":"address","name":"eurtAddress","type":"address"}],"stateMutability":"nonpayable","type":"constructor"},{"anonymous":false,"inputs":[{"indexed":true,"internalType":"string","name":"key","type":"string"},{"indexed":false,"internalType":"address","name":"ethAddress","type":"address"},{"indexed":false,"internalType":"address","name":"contractAddress","type":"address"},{"indexed":false,"internalType":"string","name":"publicKey","type":"string"}],"name":"BankRegistered","type":"event"},{"inputs":[],"name":"admin","outputs":[{"internalType":"address","name":"","type":"address"}],"stateMutability":"view","type":"function"},{"inputs":[{"internalType":"uint256","name":"","type":"uint256"}],"name":"allKeys","outputs":[{"internalType":"string","name":"","type":"string"}],"stateMutability":"view","type":"function"},{"inputs":[{"internalType":"string","name":"","type":"string"}],"name":"bankRegistry","outputs":[{"internalType":"string","name":"market","type":"string"},{"internalType":"uint256","name":"accountNumber","type":"uint256"},{"internalType":"address","name":"ethAddress","type":"address"},{"internalType":"address","name":"contractAddress","type":"address"},{"internalType":"string","name":"publicKey","type":"string"}],"stateMutability":"view","type":"function"},{"inputs":[],"name":"getAllBankDetails","outputs":[{"components":[{"internalType":"string","name":"market","type":"string"},{"internalType":"uint256","name":"accountNumber","type":"uint256"},{"internalType":"address","name":"ethAddress","type":"address"},{"internalType":"address","name":"contractAddress","type":"address"},{"internalType":"string","name":"publicKey","type":"string"}],"internalType":"struct BankDepository.BankDetails[]","name":"","type":"tuple[]"}],"stateMutability":"view","type":"function"},{"inputs":[{"internalType":"string","name":"market","type":"string"},{"internalType":"uint256","name":"_accountNumber","type":"uint256"}],"name":"getBankDetails","outputs":[{"components":[{"internalType":"string","name":"market","type":"string"},{"internalType":"uint256","name":"accountNumber","type":"uint256"},{"internalType":"address","name":"ethAddress","type":"address"},{"internalType":"address","name":"contractAddress","type":"address"},{"internalType":"string","name":"publicKey","type":"string"}],"internalType":"struct BankDepository.BankDetails","name":"","type":"tuple"}],"stateMutability":"view","type":"function"},{"inputs":[{"internalType":"string","name":"tokenName","type":"string"}],"name":"getTokenAddress","outputs":[{"internalType":"address","name":"","type":"address"}],"stateMutability":"view","type":"function"},{"inputs":[],"name":"name","outputs":[{"internalType":"string","name":"","type":"string"}],"stateMutability":"view","type":"function"},{"inputs":[{"internalType":"string","name":"market","type":"string"},{"internalType":"uint256","name":"_accountNumber","type":"uint256"},{"internalType":"address","name":"_ethAddress","type":"address"},{"internalType":"address","name":"_contractAddress","type":"address"},{"internalType":"string","name":"_publicKey","type":"string"}],"name":"registerBank","outputs":[],"stateMutability":"nonpayable","type":"function"},{"inputs":[{"internalType":"string","name":"","type":"string"}],"name":"tokenAddresses","outputs":[{"internalType":"address","name":"","type":"address"}],"stateMutability":"view","type":"function"}],"evm":{"bytecode":{"linkReferences":{},"object":"608060405234801561001057600080fd5b5060405161147a38038061147a83398101604081905261002f916100da565b600080546001600160a01b03191633179055604051829060019061005d90631554d11d60e21b815260040190565b9081526040805160209281900392909201822080546001600160a01b03199081166001600160a01b0395861617909155631155549d60e21b83526001600484015290519182900360240190912080549390921692169190911790555061010d565b80516001600160a01b03811681146100d557600080fd5b919050565b600080604083850312156100ed57600080fd5b6100f6836100be565b9150610104602084016100be565b90509250929050565b61135e8061011c6000396000f3fe608060405234801561001057600080fd5b50600436106100935760003560e01c8063c409123611610066578063c40912361461015a578063d42b01331461016d578063eddedcb714610191578063f54f0e56146101a6578063f851a440146101bb57600080fd5b806306fdde03146100985780633909ba41146100db57806366acf573146100ee578063935b13f61461010e575b600080fd5b6100c56040518060400160405280600e81526020016d42616e6b4465706f7369746f727960901b81525081565b6040516100d29190610d96565b60405180910390f35b6100c56100e9366004610db0565b6101ce565b6101016100fc366004610e6c565b61027a565b6040516100d29190610f14565b61014261011c366004610f27565b80516020818301810180516001825292820191909301209152546001600160a01b031681565b6040516001600160a01b0390911681526020016100d2565b610142610168366004610f27565b610495565b61018061017b366004610f27565b6104c6565b6040516100d2959493929190610f5c565b6101a461019f366004610fc7565b610620565b005b6101ae6108fc565b6040516100d29190611056565b600054610142906001600160a01b031681565b600481815481106101de57600080fd5b9060005260206000200160009150905080546101f9906110b8565b80601f0160208091040260200160405190810160405280929190818152602001828054610225906110b8565b80156102725780601f1061024757610100808354040283529160200191610272565b820191906000526020600020905b81548152906001019060200180831161025557829003601f168201915b505050505081565b610282610d05565b600061028e8484610bc8565b905060006001600160a01b03166002826040516102ab91906110ec565b908152604051908190036020019020600201546001600160a01b0316036103105760405162461bcd60e51b81526020600482015260146024820152732130b735903737ba103932b3b4b9ba32b932b21760611b60448201526064015b60405180910390fd5b60028160405161032091906110ec565b90815260200160405180910390206040518060a0016040529081600082018054610349906110b8565b80601f0160208091040260200160405190810160405280929190818152602001828054610375906110b8565b80156103c25780601f10610397576101008083540402835291602001916103c2565b820191906000526020600020905b8154815290600101906020018083116103a557829003601f168201915b50505091835250506001820154602082015260028201546001600160a01b0390811660408301526003830154166060820152600482018054608090920191610409906110b8565b80601f0160208091040260200160405190810160405280929190818152602001828054610435906110b8565b80156104825780601f1061045757610100808354040283529160200191610482565b820191906000526020600020905b81548152906001019060200180831161046557829003601f168201915b5050505050815250509150505b92915050565b60006001826040516104a791906110ec565b908152604051908190036020019020546001600160a01b031692915050565b80516020818301810180516002825292820191909301209152805481906104ec906110b8565b80601f0160208091040260200160405190810160405280929190818152602001828054610518906110b8565b80156105655780601f1061053a57610100808354040283529160200191610565565b820191906000526020600020905b81548152906001019060200180831161054857829003601f168201915b505050600184015460028501546003860154600487018054969793966001600160a01b03938416965091909216935061059d906110b8565b80601f01602080910402602001604051908101604052809291908181526020018280546105c9906110b8565b80156106165780601f106105eb57610100808354040283529160200191610616565b820191906000526020600020905b8154815290600101906020018083116105f957829003601f168201915b5050505050905085565b6001600160a01b038216158061064f57506001600160a01b03821660009081526003602052604090205460ff16155b6106b35760405162461bcd60e51b815260206004820152602f60248201527f436f6e7472616374206164647265737320616c7265616479207265676973746560448201526e3932b21037b91034b73b30b634b21760891b6064820152608401610307565b60006106bf8686610bc8565b905060006001600160a01b03166002826040516106dc91906110ec565b908152604051908190036020019020600201546001600160a01b03161461076b5760405162461bcd60e51b815260206004820152603c60248201527f42616e6b20616c7265616479207265676973746572656420776974682074686960448201527f73206d61726b657420616e64206163636f756e74206e756d6265722e000000006064820152608401610307565b60006040518060a00160405280888152602001878152602001866001600160a01b03168152602001856001600160a01b03168152602001848152509050806002836040516107b991906110ec565b908152604051908190036020019020815181906107d69082611157565b506020820151600182015560408201516002820180546001600160a01b039283166001600160a01b03199182161790915560608401516003840180549190931691161790556080820151600482019061082f9082611157565b5050506001600160a01b03841615610865576001600160a01b0384166000908152600360205260409020805460ff191660011790555b600480546001810182556000919091527f8a35acfbc15ff81a39ae7d344fd709f28e8600b4aa8c65c6b64bfe7fe36bd19b016108a18382611157565b50816040516108b091906110ec565b60405180910390207feb71a6beaee469fc43acd8a0dc17d32ee6dace0a3f2562cbc53c85b01d3a51ee8686866040516108eb93929190611217565b60405180910390a250505050505050565b60045460609060009067ffffffffffffffff81111561091d5761091d610dc9565b60405190808252806020026020018201604052801561095657816020015b610943610d05565b81526020019060019003908161093b5790505b50905060005b600454811015610bc25760006004828154811061097b5761097b611243565b906000526020600020018054610990906110b8565b80601f01602080910402602001604051908101604052809291908181526020018280546109bc906110b8565b8015610a095780601f106109de57610100808354040283529160200191610a09565b820191906000526020600020905b8154815290600101906020018083116109ec57829003601f168201915b505050505090506000600282604051610a2291906110ec565b90815260200160405180910390209050806040518060a0016040529081600082018054610a4e906110b8565b80601f0160208091040260200160405190810160405280929190818152602001828054610a7a906110b8565b8015610ac75780601f10610a9c57610100808354040283529160200191610ac7565b820191906000526020600020905b815481529060010190602001808311610aaa57829003601f168201915b50505091835250506001820154602082015260028201546001600160a01b0390811660408301526003830154166060820152600482018054608090920191610b0e906110b8565b80601f0160208091040260200160405190810160405280929190818152602001828054610b3a906110b8565b8015610b875780601f10610b5c57610100808354040283529160200191610b87565b820191906000526020600020905b815481529060010190602001808311610b6a57829003601f168201915b505050505081525050848481518110610ba257610ba2611243565b602002602001018190525050508080610bba9061126f565b91505061095c565b50919050565b606082610bd483610bfc565b604051602001610be5929190611288565b604051602081830303815290604052905092915050565b606081600003610c235750506040805180820190915260018152600360fc1b602082015290565b8160005b8115610c4d5780610c378161126f565b9150610c469050600a836112da565b9150610c27565b60008167ffffffffffffffff811115610c6857610c68610dc9565b6040519080825280601f01601f191660200182016040528015610c92576020820181803683370190505b5090505b8415610cfd57610ca76001836112ee565b9150610cb4600a86611301565b610cbf906030611315565b60f81b818381518110610cd457610cd4611243565b60200101906001600160f81b031916908160001a905350610cf6600a866112da565b9450610c96565b949350505050565b6040518060a00160405280606081526020016000815260200160006001600160a01b0316815260200160006001600160a01b03168152602001606081525090565b60005b83811015610d61578181015183820152602001610d49565b50506000910152565b60008151808452610d82816020860160208601610d46565b601f01601f19169290920160200192915050565b602081526000610da96020830184610d6a565b9392505050565b600060208284031215610dc257600080fd5b5035919050565b634e487b7160e01b600052604160045260246000fd5b600082601f830112610df057600080fd5b813567ffffffffffffffff80821115610e0b57610e0b610dc9565b604051601f8301601f19908116603f01168101908282118183101715610e3357610e33610dc9565b81604052838152866020858801011115610e4c57600080fd5b836020870160208301376000602085830101528094505050505092915050565b60008060408385031215610e7f57600080fd5b823567ffffffffffffffff811115610e9657600080fd5b610ea285828601610ddf565b95602094909401359450505050565b6000815160a08452610ec660a0850182610d6a565b905060208301516020850152604083015160018060a01b038082166040870152806060860151166060870152505060808301518482036080860152610f0b8282610d6a565b95945050505050565b602081526000610da96020830184610eb1565b600060208284031215610f3957600080fd5b813567ffffffffffffffff811115610f5057600080fd5b610cfd84828501610ddf565b60a081526000610f6f60a0830188610d6a565b602083018790526001600160a01b038681166040850152851660608401528281036080840152610f9f8185610d6a565b98975050505050505050565b80356001600160a01b0381168114610fc257600080fd5b919050565b600080600080600060a08688031215610fdf57600080fd5b853567ffffffffffffffff80821115610ff757600080fd5b61100389838a01610ddf565b96506020880135955061101860408901610fab565b945061102660608901610fab565b9350608088013591508082111561103c57600080fd5b5061104988828901610ddf565b9150509295509295909350565b6000602080830181845280855180835260408601915060408160051b870101925083870160005b828110156110ab57603f19888603018452611099858351610eb1565b9450928501929085019060010161107d565b5092979650505050505050565b600181811c908216806110cc57607f821691505b602082108103610bc257634e487b7160e01b600052602260045260246000fd5b600082516110fe818460208701610d46565b9190910192915050565b601f82111561115257600081815260208120601f850160051c8101602086101561112f5750805b601f850160051c820191505b8181101561114e5782815560010161113b565b5050505b505050565b815167ffffffffffffffff81111561117157611171610dc9565b6111858161117f84546110b8565b84611108565b602080601f8311600181146111ba57600084156111a25750858301515b600019600386901b1c1916600185901b17855561114e565b600085815260208120601f198616915b828110156111e9578886015182559484019460019091019084016111ca565b50858210156112075787850151600019600388901b60f8161c191681555b5050505050600190811b01905550565b6001600160a01b03848116825283166020820152606060408201819052600090610f0b90830184610d6a565b634e487b7160e01b600052603260045260246000fd5b634e487b7160e01b600052601160045260246000fd5b60006001820161128157611281611259565b5060010190565b6000835161129a818460208801610d46565b605f60f81b90830190815283516112b8816001840160208801610d46565b01600101949350505050565b634e487b7160e01b600052601260045260246000fd5b6000826112e9576112e96112c4565b500490565b8181038181111561048f5761048f611259565b600082611310576113106112c4565b500690565b8082018082111561048f5761048f61125956fea264697066735822122044bc5502b3918f14c6c5c07757bf52f90b397c0fa9885a7a05f2014432419cda64736f6c63430008110033","opcodes":"PUSH1 0x80 PUSH1 0x40 MSTORE CALLVALUE DUP1 ISZERO PUSH2 0x10 JUMPI PUSH1 0x0 DUP1 REVERT JUMPDEST POP PUSH1 0x40 MLOAD PUSH2 0x147A CODESIZE SUB DUP1 PUSH2 0x147A DUP4 CODECOPY DUP2 ADD PUSH1 0x40 DUP2 SWAP1 MSTORE PUSH2 0x2F SWAP2 PUSH2 0xDA JUMP JUMPDEST PUSH1 0x0 DUP1 SLOAD PUSH1 0x1 PUSH1 0x1 PUSH1 0xA0 SHL SUB NOT AND CALLER OR SWAP1 SSTORE PUSH1 0x40 MLOAD DUP3 SWAP1 PUSH1 0x1 SWAP1 PUSH2 0x5D SWAP1 PUSH4 0x1554D11D PUSH1 0xE2 SHL DUP2 MSTORE PUSH1 0x4 ADD SWAP1 JUMP JUMPDEST SWAP1 DUP2 MSTORE PUSH1 0x40 DUP1 MLOAD PUSH1 0x20 SWAP3 DUP2 SWAP1 SUB SWAP3 SWAP1 SWAP3 ADD DUP3 KECCAK256 DUP1 SLOAD PUSH1 0x1 PUSH1 0x1 PUSH1 0xA0 SHL SUB NOT SWAP1 DUP2 AND PUSH1 0x1 PUSH1 0x1 PUSH1 0xA0 SHL SUB SWAP6 DUP7 AND OR SWAP1 SWAP2 SSTORE PUSH4 0x1155549D PUSH1 0xE2 SHL DUP4 MSTORE PUSH1 0x1 PUSH1 0x4 DUP5 ADD MSTORE SWAP1 MLOAD SWAP2 DUP3 SWAP1 SUB PUSH1 0x24 ADD SWAP1 SWAP2 KECCAK256 DUP1 SLOAD SWAP4 SWAP1 SWAP3 AND SWAP3 AND SWAP2 SWAP1 SWAP2 OR SWAP1 SSTORE POP PUSH2 0x10D JUMP JUMPDEST DUP1 MLOAD PUSH1 0x1 PUSH1 0x1 PUSH1 0xA0 SHL SUB DUP2 AND DUP2 EQ PUSH2 0xD5 JUMPI PUSH1 0x0 DUP1 REVERT JUMPDEST SWAP2 SWAP1 POP JUMP JUMPDEST PUSH1 0x0 DUP1 PUSH1 0x40 DUP4 DUP6 SUB SLT ISZERO PUSH2 0xED JUMPI PUSH1 0x0 DUP1 REVERT JUMPDEST PUSH2 0xF6 DUP4 PUSH2 0xBE JUMP JUMPDEST SWAP2 POP PUSH2 0x104 PUSH1 0x20 DUP5 ADD PUSH2 0xBE JUMP JUMPDEST SWAP1 POP SWAP3 POP SWAP3 SWAP1 POP JUMP JUMPDEST PUSH2 0x135E DUP1 PUSH2 0x11C PUSH1 0x0 CODECOPY PUSH1 0x0 RETURN INVALID PUSH1 0x80 PUSH1 0x40 MSTORE CALLVALUE DUP1 ISZERO PUSH2 0x10 JUMPI PUSH1 0x0 DUP1 REVERT JUMPDEST POP PUSH1 0x4 CALLDATASIZE LT PUSH2 0x93 JUMPI PUSH1 0x0 CALLDATALOAD PUSH1 0xE0 SHR DUP1 PUSH4 0xC4091236 GT PUSH2 0x66 JUMPI DUP1 PUSH4 0xC4091236 EQ PUSH2 0x15A JUMPI DUP1 PUSH4 0xD42B0133 EQ PUSH2 0x16D JUMPI DUP1 PUSH4 0xEDDEDCB7 EQ PUSH2 0x191 JUMPI DUP1 PUSH4 0xF54F0E56 EQ PUSH2 0x1A6 JUMPI DUP1 PUSH4 0xF851A440 EQ PUSH2 0x1BB JUMPI PUSH1 0x0 DUP1 REVERT JUMPDEST DUP1 PUSH4 0x6FDDE03 EQ PUSH2 0x98 JUMPI DUP1 PUSH4 0x3909BA41 EQ PUSH2 0xDB JUMPI DUP1 PUSH4 0x66ACF573 EQ PUSH2 0xEE JUMPI DUP1 PUSH4 0x935B13F6 EQ PUSH2 0x10E JUMPI JUMPDEST PUSH1 0x0 DUP1 REVERT JUMPDEST PUSH2 0xC5 PUSH1 0x40 MLOAD DUP1 PUSH1 0x40 ADD PUSH1 0x40 MSTORE DUP1 PUSH1 0xE DUP2 MSTORE PUSH1 0x20 ADD PUSH14 0x42616E6B4465706F7369746F7279 PUSH1 0x90 SHL DUP2 MSTORE POP DUP2 JUMP JUMPDEST PUSH1 0x40 MLOAD PUSH2 0xD2 SWAP2 SWAP1 PUSH2 0xD96 JUMP JUMPDEST PUSH1 0x40 MLOAD DUP1 SWAP2 SUB SWAP1 RETURN JUMPDEST PUSH2 0xC5 PUSH2 0xE9 CALLDATASIZE PUSH1 0x4 PUSH2 0xDB0 JUMP JUMPDEST PUSH2 0x1CE JUMP JUMPDEST PUSH2 0x101 PUSH2 0xFC CALLDATASIZE PUSH1 0x4 PUSH2 0xE6C JUMP JUMPDEST PUSH2 0x27A JUMP JUMPDEST PUSH1 0x40 MLOAD PUSH2 0xD2 SWAP2 SWAP1 PUSH2 0xF14 JUMP JUMPDEST PUSH2 0x142 PUSH2 0x11C CALLDATASIZE PUSH1 0x4 PUSH2 0xF27 JUMP JUMPDEST DUP1 MLOAD PUSH1 0x20 DUP2 DUP4 ADD DUP2 ADD DUP1 MLOAD PUSH1 0x1 DUP3 MSTORE SWAP3 DUP3 ADD SWAP2 SWAP1 SWAP4 ADD KECCAK256 SWAP2 MSTORE SLOAD PUSH1 0x1 PUSH1 0x1 PUSH1 0xA0 SHL SUB AND DUP2 JUMP JUMPDEST PUSH1 0x40 MLOAD PUSH1 0x1 PUSH1 0x1 PUSH1 0xA0 SHL SUB SWAP1 SWAP2 AND DUP2 MSTORE PUSH1 0x20 ADD PUSH2 0xD2 JUMP JUMPDEST PUSH2 0x142 PUSH2 0x168 CALLDATASIZE PUSH1 0x4 PUSH2 0xF27 JUMP JUMPDEST PUSH2 0x495 JUMP JUMPDEST PUSH2 0x180 PUSH2 0x17B CALLDATASIZE PUSH1 0x4 PUSH2 0xF27 JUMP JUMPDEST PUSH2 0x4C6 JUMP JUMPDEST PUSH1 0x40 MLOAD PUSH2 0xD2 SWAP6 SWAP5 SWAP4 SWAP3 SWAP2 SWAP1 PUSH2 0xF5C JUMP JUMPDEST PUSH2 0x1A4 PUSH2 0x19F CALLDATASIZE PUSH1 0x4 PUSH2 0xFC7 JUMP JUMPDEST PUSH2 0x620 JUMP JUMPDEST STOP JUMPDEST PUSH2 0x1AE PUSH2 0x8FC JUMP JUMPDEST PUSH1 0x40 MLOAD PUSH2 0xD2 SWAP2 SWAP1 PUSH2 0x1056 JUMP JUMPDEST PUSH1 0x0 SLOAD PUSH2 0x142 SWAP1 PUSH1 0x1 PUSH1 0x1 PUSH1 0xA0 SHL SUB AND DUP2 JUMP JUMPDEST PUSH1 0x4 DUP2 DUP2 SLOAD DUP2 LT PUSH2 0x1DE JUMPI PUSH1 0x0 DUP1 REVERT JUMPDEST SWAP1 PUSH1 0x0 MSTORE PUSH1 0x20 PUSH1 0x0 KECCAK256 ADD PUSH1 0x0 SWAP2 POP SWAP1 POP DUP1 SLOAD PUSH2 0x1F9 SWAP1 PUSH2 0x10B8 JUMP JUMPDEST DUP1 PUSH1 0x1F ADD PUSH1 0x20 DUP1 SWAP2 DIV MUL PUSH1 0x20 ADD PUSH1 0x40 MLOAD SWAP1 DUP2 ADD PUSH1 0x40 MSTORE DUP1 SWAP3 SWAP2 SWAP1 DUP2 DUP2 MSTORE PUSH1 0x20 ADD DUP3 DUP1 SLOAD PUSH2 0x225 SWAP1 PUSH2 0x10B8 JUMP JUMPDEST DUP1 ISZERO PUSH2 0x272 JUMPI DUP1 PUSH1 0x1F LT PUSH2 0x247 JUMPI PUSH2 0x100 DUP1 DUP4 SLOAD DIV MUL DUP4 MSTORE SWAP2 PUSH1 0x20 ADD SWAP2 PUSH2 0x272 JUMP JUMPDEST DUP3 ADD SWAP2 SWAP1 PUSH1 0x0 MSTORE PUSH1 0x20 PUSH1 0x0 KECCAK256 SWAP1 JUMPDEST DUP2 SLOAD DUP2 MSTORE SWAP1 PUSH1 0x1 ADD SWAP1 PUSH1 0x20 ADD DUP1 DUP4 GT PUSH2 0x255 JUMPI DUP3 SWAP1 SUB PUSH1 0x1F AND DUP3 ADD SWAP2 JUMPDEST POP POP POP POP POP DUP2 JUMP JUMPDEST PUSH2 0x282 PUSH2 0xD05 JUMP JUMPDEST PUSH1 0x0 PUSH2 0x28E DUP5 DUP5 PUSH2 0xBC8 JUMP JUMPDEST SWAP1 POP PUSH1 0x0 PUSH1 0x1 PUSH1 0x1 PUSH1 0xA0 SHL SUB AND PUSH1 0x2 DUP3 PUSH1 0x40 MLOAD PUSH2 0x2AB SWAP2 SWAP1 PUSH2 0x10EC JUMP JUMPDEST SWAP1 DUP2 MSTORE PUSH1 0x40 MLOAD SWAP1 DUP2 SWAP1 SUB PUSH1 0x20 ADD SWAP1 KECCAK256 PUSH1 0x2 ADD SLOAD PUSH1 0x1 PUSH1 0x1 PUSH1 0xA0 SHL SUB AND SUB PUSH2 0x310 JUMPI PUSH1 0x40 MLOAD PUSH3 0x461BCD PUSH1 0xE5 SHL DUP2 MSTORE PUSH1 0x20 PUSH1 0x4 DUP3 ADD MSTORE PUSH1 0x14 PUSH1 0x24 DUP3 ADD MSTORE PUSH20 0x2130B735903737BA103932B3B4B9BA32B932B217 PUSH1 0x61 SHL PUSH1 0x44 DUP3 ADD MSTORE PUSH1 0x64 ADD JUMPDEST PUSH1 0x40 MLOAD DUP1 SWAP2 SUB SWAP1 REVERT JUMPDEST PUSH1 0x2 DUP2 PUSH1 0x40 MLOAD PUSH2 0x320 SWAP2 SWAP1 PUSH2 0x10EC JUMP JUMPDEST SWAP1 DUP2 MSTORE PUSH1 0x20 ADD PUSH1 0x40 MLOAD DUP1 SWAP2 SUB SWAP1 KECCAK256 PUSH1 0x40 MLOAD DUP1 PUSH1 0xA0 ADD PUSH1 0x40 MSTORE SWAP1 DUP2 PUSH1 0x0 DUP3 ADD DUP1 SLOAD PUSH2 0x349 SWAP1 PUSH2 0x10B8 JUMP JUMPDEST DUP1 PUSH1 0x1F ADD PUSH1 0x20 DUP1 SWAP2 DIV MUL PUSH1 0x20 ADD PUSH1 0x40 MLOAD SWAP1 DUP2 ADD PUSH1 0x40 MSTORE DUP1 SWAP3 SWAP2 SWAP1 DUP2 DUP2 MSTORE PUSH1 0x20 ADD DUP3 DUP1 SLOAD PUSH2 0x375 SWAP1 PUSH2 0x10B8 JUMP JUMPDEST DUP1 ISZERO PUSH2 0x3C2 JUMPI DUP1 PUSH1 0x1F LT PUSH2 0x397 JUMPI PUSH2 0x100 DUP1 DUP4 SLOAD DIV MUL DUP4 MSTORE SWAP2 PUSH1 0x20 ADD SWAP2 PUSH2 0x3C2 JUMP JUMPDEST DUP3 ADD SWAP2 SWAP1 PUSH1 0x0 MSTORE PUSH1 0x20 PUSH1 0x0 KECCAK256 SWAP1 JUMPDEST DUP2 SLOAD DUP2 MSTORE SWAP1 PUSH1 0x1 ADD SWAP1 PUSH1 0x20 ADD DUP1 DUP4 GT PUSH2 0x3A5 JUMPI DUP3 SWAP1 SUB PUSH1 0x1F AND DUP3 ADD SWAP2 JUMPDEST POP POP POP SWAP2 DUP4 MSTORE POP POP PUSH1 0x1 DUP3 ADD SLOAD PUSH1 0x20 DUP3 ADD MSTORE PUSH1 0x2 DUP3 ADD SLOAD PUSH1 0x1 PUSH1 0x1 PUSH1 0xA0 SHL SUB SWAP1 DUP2 AND PUSH1 0x40 DUP4 ADD MSTORE PUSH1 0x3 DUP4 ADD SLOAD AND PUSH1 0x60 DUP3 ADD MSTORE PUSH1 0x4 DUP3 ADD DUP1 SLOAD PUSH1 0x80 SWAP1 SWAP3 ADD SWAP2 PUSH2 0x409 SWAP1 PUSH2 0x10B8 JUMP JUMPDEST DUP1 PUSH1 0x1F ADD PUSH1 0x20 DUP1 SWAP2 DIV MUL PUSH1 0x20 ADD PUSH1 0x40 MLOAD SWAP1 DUP2 ADD PUSH1 0x40 MSTORE DUP1 SWAP3 SWAP2 SWAP1 DUP2 DUP2 MSTORE PUSH1 0x20 ADD DUP3 DUP1 SLOAD PUSH2 0x435 SWAP1 PUSH2 0x10B8 JUMP JUMPDEST DUP1 ISZERO PUSH2 0x482 JUMPI DUP1 PUSH1 0x1F LT PUSH2 0x457 JUMPI PUSH2 0x100 DUP1 DUP4 SLOAD DIV MUL DUP4 MSTORE SWAP2 PUSH1 0x20 ADD SWAP2 PUSH2 0x482 JUMP JUMPDEST DUP3 ADD SWAP2 SWAP1 PUSH1 0x0 MSTORE PUSH1 0x20 PUSH1 0x0 KECCAK256 SWAP1 JUMPDEST DUP2 SLOAD DUP2 MSTORE SWAP1 PUSH1 0x1 ADD SWAP1 PUSH1 0x20 ADD DUP1 DUP4 GT PUSH2 0x465 JUMPI DUP3 SWAP1 SUB PUSH1 0x1F AND DUP3 ADD SWAP2 JUMPDEST POP POP POP POP POP DUP2 MSTORE POP POP SWAP2 POP POP JUMPDEST SWAP3 SWAP2 POP POP JUMP JUMPDEST PUSH1 0x0 PUSH1 0x1 DUP3 PUSH1 0x40 MLOAD PUSH2 0x4A7 SWAP2 SWAP1 PUSH2 0x10EC JUMP JUMPDEST SWAP1 DUP2 MSTORE PUSH1 0x40 MLOAD SWAP1 DUP2 SWAP1 SUB PUSH1 0x20 ADD SWAP1 KECCAK256 SLOAD PUSH1 0x1 PUSH1 0x1 PUSH1 0xA0 SHL SUB AND SWAP3 SWAP2 POP POP JUMP JUMPDEST DUP1 MLOAD PUSH1 0x20 DUP2 DUP4 ADD DUP2 ADD DUP1 MLOAD PUSH1 0x2 DUP3 MSTORE SWAP3 DUP3 ADD SWAP2 SWAP1 SWAP4 ADD KECCAK256 SWAP2 MSTORE DUP1 SLOAD DUP2 SWAP1 PUSH2 0x4EC SWAP1 PUSH2 0x10B8 JUMP JUMPDEST DUP1 PUSH1 0x1F ADD PUSH1 0x20 DUP1 SWAP2 DIV MUL PUSH1 0x20 ADD PUSH1 0x40 MLOAD SWAP1 DUP2 ADD PUSH1 0x40 MSTORE DUP1 SWAP3 SWAP2 SWAP1 DUP2 DUP2 MSTORE PUSH1 0x20 ADD DUP3 DUP1 SLOAD PUSH2 0x518 SWAP1 PUSH2 0x10B8 JUMP JUMPDEST DUP1 ISZERO PUSH2 0x565 JUMPI DUP1 PUSH1 0x1F LT PUSH2 0x53A JUMPI PUSH2 0x100 DUP1 DUP4 SLOAD DIV MUL DUP4 MSTORE SWAP2 PUSH1 0x20 ADD SWAP2 PUSH2 0x565 JUMP JUMPDEST DUP3 ADD SWAP2 SWAP1 PUSH1 0x0 MSTORE PUSH1 0x20 PUSH1 0x0 KECCAK256 SWAP1 JUMPDEST DUP2 SLOAD DUP2 MSTORE SWAP1 PUSH1 0x1 ADD SWAP1 PUSH1 0x20 ADD DUP1 DUP4 GT PUSH2 0x548 JUMPI DUP3 SWAP1 SUB PUSH1 0x1F AND DUP3 ADD SWAP2 JUMPDEST POP POP POP PUSH1 0x1 DUP5 ADD SLOAD PUSH1 0x2 DUP6 ADD SLOAD PUSH1 0x3 DUP7 ADD SLOAD PUSH1 0x4 DUP8 ADD DUP1 SLOAD SWAP7 SWAP8 SWAP4 SWAP7 PUSH1 0x1 PUSH1 0x1 PUSH1 0xA0 SHL SUB SWAP4 DUP5 AND SWAP7 POP SWAP2 SWAP1 SWAP3 AND SWAP4 POP PUSH2 0x59D SWAP1 PUSH2 0x10B8 JUMP JUMPDEST DUP1 PUSH1 0x1F ADD PUSH1 0x20 DUP1 SWAP2 DIV MUL PUSH1 0x20 ADD PUSH1 0x40 MLOAD SWAP1 DUP2 ADD PUSH1 0x40 MSTORE DUP1 SWAP3 SWAP2 SWAP1 DUP2 DUP2 MSTORE PUSH1 0x20 ADD DUP3 DUP1 SLOAD PUSH2 0x5C9 SWAP1 PUSH2 0x10B8 JUMP JUMPDEST DUP1 ISZERO PUSH2 0x616 JUMPI DUP1 PUSH1 0x1F LT PUSH2 0x5EB JUMPI PUSH2 0x100 DUP1 DUP4 SLOAD DIV MUL DUP4 MSTORE SWAP2 PUSH1 0x20 ADD SWAP2 PUSH2 0x616 JUMP JUMPDEST DUP3 ADD SWAP2 SWAP1 PUSH1 0x0 MSTORE PUSH1 0x20 PUSH1 0x0 KECCAK256 SWAP1 JUMPDEST DUP2 SLOAD DUP2 MSTORE SWAP1 PUSH1 0x1 ADD SWAP1 PUSH1 0x20 ADD DUP1 DUP4 GT PUSH2 0x5F9 JUMPI DUP3 SWAP1 SUB PUSH1 0x1F AND DUP3 ADD SWAP2 JUMPDEST POP POP POP POP POP SWAP1 POP DUP6 JUMP JUMPDEST PUSH1 0x1 PUSH1 0x1 PUSH1 0xA0 SHL SUB DUP3 AND ISZERO DUP1 PUSH2 0x64F JUMPI POP PUSH1 0x1 PUSH1 0x1 PUSH1 0xA0 SHL SUB DUP3 AND PUSH1 0x0 SWAP1 DUP2 MSTORE PUSH1 0x3 PUSH1 0x20 MSTORE PUSH1 0x40 SWAP1 KECCAK256 SLOAD PUSH1 0xFF AND ISZERO JUMPDEST PUSH2 0x6B3 JUMPI PUSH1 0x40 MLOAD PUSH3 0x461BCD PUSH1 0xE5 SHL DUP2 MSTORE PUSH1 0x20 PUSH1 0x4 DUP3 ADD MSTORE PUSH1 0x2F PUSH1 0x24 DUP3 ADD MSTORE PUSH32 0x436F6E7472616374206164647265737320616C72656164792072656769737465 PUSH1 0x44 DUP3 ADD MSTORE PUSH15 0x3932B21037B91034B73B30B634B217 PUSH1 0x89 SHL PUSH1 0x64 DUP3 ADD MSTORE PUSH1 0x84 ADD PUSH2 0x307 JUMP JUMPDEST PUSH1 0x0 PUSH2 0x6BF DUP7 DUP7 PUSH2 0xBC8 JUMP JUMPDEST SWAP1 POP PUSH1 0x0 PUSH1 0x1 PUSH1 0x1 PUSH1 0xA0 SHL SUB AND PUSH1 0x2 DUP3 PUSH1 0x40 MLOAD PUSH2 0x6DC SWAP2 SWAP1 PUSH2 0x10EC JUMP JUMPDEST SWAP1 DUP2 MSTORE PUSH1 0x40 MLOAD SWAP1 DUP2 SWAP1 SUB PUSH1 0x20 ADD SWAP1 KECCAK256 PUSH1 0x2 ADD SLOAD PUSH1 0x1 PUSH1 0x1 PUSH1 0xA0 SHL SUB AND EQ PUSH2 0x76B JUMPI PUSH1 0x40 MLOAD PUSH3 0x461BCD PUSH1 0xE5 SHL DUP2 MSTORE PUSH1 0x20 PUSH1 0x4 DUP3 ADD MSTORE PUSH1 0x3C PUSH1 0x24 DUP3 ADD MSTORE PUSH32 0x42616E6B20616C72656164792072656769737465726564207769746820746869 PUSH1 0x44 DUP3 ADD MSTORE PUSH32 0x73206D61726B657420616E64206163636F756E74206E756D6265722E00000000 PUSH1 0x64 DUP3 ADD MSTORE PUSH1 0x84 ADD PUSH2 0x307 JUMP JUMPDEST PUSH1 0x0 PUSH1 0x40 MLOAD DUP1 PUSH1 0xA0 ADD PUSH1 0x40 MSTORE DUP1 DUP9 DUP2 MSTORE PUSH1 0x20 ADD DUP8 DUP2 MSTORE PUSH1 0x20 ADD DUP7 PUSH1 0x1 PUSH1 0x1 PUSH1 0xA0 SHL SUB AND DUP2 MSTORE PUSH1 0x20 ADD DUP6 PUSH1 0x1 PUSH1 0x1 PUSH1 0xA0 SHL SUB AND DUP2 MSTORE PUSH1 0x20 ADD DUP5 DUP2 MSTORE POP SWAP1 POP DUP1 PUSH1 0x2 DUP4 PUSH1 0x40 MLOAD PUSH2 0x7B9 SWAP2 SWAP1 PUSH2 0x10EC JUMP JUMPDEST SWAP1 DUP2 MSTORE PUSH1 0x40 MLOAD SWAP1 DUP2 SWAP1 SUB PUSH1 0x20 ADD SWAP1 KECCAK256 DUP2 MLOAD DUP2 SWAP1 PUSH2 0x7D6 SWAP1 DUP3 PUSH2 0x1157 JUMP JUMPDEST POP PUSH1 0x20 DUP3 ADD MLOAD PUSH1 0x1 DUP3 ADD SSTORE PUSH1 0x40 DUP3 ADD MLOAD PUSH1 0x2 DUP3 ADD DUP1 SLOAD PUSH1 0x1 PUSH1 0x1 PUSH1 0xA0 SHL SUB SWAP3 DUP4 AND PUSH1 0x1 PUSH1 0x1 PUSH1 0xA0 SHL SUB NOT SWAP2 DUP3 AND OR SWAP1 SWAP2 SSTORE PUSH1 0x60 DUP5 ADD MLOAD PUSH1 0x3 DUP5 ADD DUP1 SLOAD SWAP2 SWAP1 SWAP4 AND SWAP2 AND OR SWAP1 SSTORE PUSH1 0x80 DUP3 ADD MLOAD PUSH1 0x4 DUP3 ADD SWAP1 PUSH2 0x82F SWAP1 DUP3 PUSH2 0x1157 JUMP JUMPDEST POP POP POP PUSH1 0x1 PUSH1 0x1 PUSH1 0xA0 SHL SUB DUP5 AND ISZERO PUSH2 0x865 JUMPI PUSH1 0x1 PUSH1 0x1 PUSH1 0xA0 SHL SUB DUP5 AND PUSH1 0x0 SWAP1 DUP2 MSTORE PUSH1 0x3 PUSH1 0x20 MSTORE PUSH1 0x40 SWAP1 KECCAK256 DUP1 SLOAD PUSH1 0xFF NOT AND PUSH1 0x1 OR SWAP1 SSTORE JUMPDEST PUSH1 0x4 DUP1 SLOAD PUSH1 0x1 DUP2 ADD DUP3 SSTORE PUSH1 0x0 SWAP2 SWAP1 SWAP2 MSTORE PUSH32 0x8A35ACFBC15FF81A39AE7D344FD709F28E8600B4AA8C65C6B64BFE7FE36BD19B ADD PUSH2 0x8A1 DUP4 DUP3 PUSH2 0x1157 JUMP JUMPDEST POP DUP2 PUSH1 0x40 MLOAD PUSH2 0x8B0 SWAP2 SWAP1 PUSH2 0x10EC JUMP JUMPDEST PUSH1 0x40 MLOAD DUP1 SWAP2 SUB SWAP1 KECCAK256 PUSH32 0xEB71A6BEAEE469FC43ACD8A0DC17D32EE6DACE0A3F2562CBC53C85B01D3A51EE DUP7 DUP7 DUP7 PUSH1 0x40 MLOAD PUSH2 0x8EB SWAP4 SWAP3 SWAP2 SWAP1 PUSH2 0x1217 JUMP JUMPDEST PUSH1 0x40 MLOAD DUP1 SWAP2 SUB SWAP1 LOG2 POP POP POP POP POP POP POP JUMP JUMPDEST PUSH1 0x4 SLOAD PUSH1 0x60 SWAP1 PUSH1 0x0 SWAP1 PUSH8 0xFFFFFFFFFFFFFFFF DUP2 GT ISZERO PUSH2 0x91D JUMPI PUSH2 0x91D PUSH2 0xDC9 JUMP JUMPDEST PUSH1 0x40 MLOAD SWAP1 DUP1 DUP3 MSTORE DUP1 PUSH1 0x20 MUL PUSH1 0x20 ADD DUP3 ADD PUSH1 0x40 MSTORE DUP1 ISZERO PUSH2 0x956 JUMPI DUP2 PUSH1 0x20 ADD JUMPDEST PUSH2 0x943 PUSH2 0xD05 JUMP JUMPDEST DUP2 MSTORE PUSH1 0x20 ADD SWAP1 PUSH1 0x1 SWAP1 SUB SWAP1 DUP2 PUSH2 0x93B JUMPI SWAP1 POP JUMPDEST POP SWAP1 POP PUSH1 0x0 JUMPDEST PUSH1 0x4 SLOAD DUP2 LT ISZERO PUSH2 0xBC2 JUMPI PUSH1 0x0 PUSH1 0x4 DUP3 DUP2 SLOAD DUP2 LT PUSH2 0x97B JUMPI PUSH2 0x97B PUSH2 0x1243 JUMP JUMPDEST SWAP1 PUSH1 0x0 MSTORE PUSH1 0x20 PUSH1 0x0 KECCAK256 ADD DUP1 SLOAD PUSH2 0x990 SWAP1 PUSH2 0x10B8 JUMP JUMPDEST DUP1 PUSH1 0x1F ADD PUSH1 0x20 DUP1 SWAP2 DIV MUL PUSH1 0x20 ADD PUSH1 0x40 MLOAD SWAP1 DUP2 ADD PUSH1 0x40 MSTORE DUP1 SWAP3 SWAP2 SWAP1 DUP2 DUP2 MSTORE PUSH1 0x20 ADD DUP3 DUP1 SLOAD PUSH2 0x9BC SWAP1 PUSH2 0x10B8 JUMP JUMPDEST DUP1 ISZERO PUSH2 0xA09 JUMPI DUP1 PUSH1 0x1F LT PUSH2 0x9DE JUMPI PUSH2 0x100 DUP1 DUP4 SLOAD DIV MUL DUP4 MSTORE SWAP2 PUSH1 0x20 ADD SWAP2 PUSH2 0xA09 JUMP JUMPDEST DUP3 ADD SWAP2 SWAP1 PUSH1 0x0 MSTORE PUSH1 0x20 PUSH1 0x0 KECCAK256 SWAP1 JUMPDEST DUP2 SLOAD DUP2 MSTORE SWAP1 PUSH1 0x1 ADD SWAP1 PUSH1 0x20 ADD DUP1 DUP4 GT PUSH2 0x9EC JUMPI DUP3 SWAP1 SUB PUSH1 0x1F AND DUP3 ADD SWAP2 JUMPDEST POP POP POP POP POP SWAP1 POP PUSH1 0x0 PUSH1 0x2 DUP3 PUSH1 0x40 MLOAD PUSH2 0xA22 SWAP2 SWAP1 PUSH2 0x10EC JUMP JUMPDEST SWAP1 DUP2 MSTORE PUSH1 0x20 ADD PUSH1 0x40 MLOAD DUP1 SWAP2 SUB SWAP1 KECCAK256 SWAP1 POP DUP1 PUSH1 0x40 MLOAD DUP1 PUSH1 0xA0 ADD PUSH1 0x40 MSTORE SWAP1 DUP2 PUSH1 0x0 DUP3 ADD DUP1 SLOAD PUSH2 0xA4E SWAP1 PUSH2 0x10B8 JUMP JUMPDEST DUP1 PUSH1 0x1F ADD PUSH1 0x20 DUP1 SWAP2 DIV MUL PUSH1 0x20 ADD PUSH1 0x40 MLOAD SWAP1 DUP2 ADD PUSH1 0x40 MSTORE DUP1 SWAP3 SWAP2 SWAP1 DUP2 DUP2 MSTORE PUSH1 0x20 ADD DUP3 DUP1 SLOAD PUSH2 0xA7A SWAP1 PUSH2 0x10B8 JUMP JUMPDEST DUP1 ISZERO PUSH2 0xAC7 JUMPI DUP1 PUSH1 0x1F LT PUSH2 0xA9C JUMPI PUSH2 0x100 DUP1 DUP4 SLOAD DIV MUL DUP4 MSTORE SWAP2 PUSH1 0x20 ADD SWAP2 PUSH2 0xAC7 JUMP JUMPDEST DUP3 ADD SWAP2 SWAP1 PUSH1 0x0 MSTORE PUSH1 0x20 PUSH1 0x0 KECCAK256 SWAP1 JUMPDEST DUP2 SLOAD DUP2 MSTORE SWAP1 PUSH1 0x1 ADD SWAP1 PUSH1 0x20 ADD DUP1 DUP4 GT PUSH2 0xAAA JUMPI DUP3 SWAP1 SUB PUSH1 0x1F AND DUP3 ADD SWAP2 JUMPDEST POP POP POP SWAP2 DUP4 MSTORE POP POP PUSH1 0x1 DUP3 ADD SLOAD PUSH1 0x20 DUP3 ADD MSTORE PUSH1 0x2 DUP3 ADD SLOAD PUSH1 0x1 PUSH1 0x1 PUSH1 0xA0 SHL SUB SWAP1 DUP2 AND PUSH1 0x40 DUP4 ADD MSTORE PUSH1 0x3 DUP4 ADD SLOAD AND PUSH1 0x60 DUP3 ADD MSTORE PUSH1 0x4 DUP3 ADD DUP1 SLOAD PUSH1 0x80 SWAP1 SWAP3 ADD SWAP2 PUSH2 0xB0E SWAP1 PUSH2 0x10B8 JUMP JUMPDEST DUP1 PUSH1 0x1F ADD PUSH1 0x20 DUP1 SWAP2 DIV MUL PUSH1 0x20 ADD PUSH1 0x40 MLOAD SWAP1 DUP2 ADD PUSH1 0x40 MSTORE DUP1 SWAP3 SWAP2 SWAP1 DUP2 DUP2 MSTORE PUSH1 0x20 ADD DUP3 DUP1 SLOAD PUSH2 0xB3A SWAP1 PUSH2 0x10B8 JUMP JUMPDEST DUP1 ISZERO PUSH2 0xB87 JUMPI DUP1 PUSH1 0x1F LT PUSH2 0xB5C JUMPI PUSH2 0x100 DUP1 DUP4 SLOAD DIV MUL DUP4 MSTORE SWAP2 PUSH1 0x20 ADD SWAP2 PUSH2 0xB87 JUMP JUMPDEST DUP3 ADD SWAP2 SWAP1 PUSH1 0x0 MSTORE PUSH1 0x20 PUSH1 0x0 KECCAK256 SWAP1 JUMPDEST DUP2 SLOAD DUP2 MSTORE SWAP1 PUSH1 0x1 ADD SWAP1 PUSH1 0x20 ADD DUP1 DUP4 GT PUSH2 0xB6A JUMPI DUP3 SWAP1 SUB PUSH1 0x1F AND DUP3 ADD SWAP2 JUMPDEST POP POP POP POP POP DUP2 MSTORE POP POP DUP5 DUP5 DUP2 MLOAD DUP2 LT PUSH2 0xBA2 JUMPI PUSH2 0xBA2 PUSH2 0x1243 JUMP JUMPDEST PUSH1 0x20 MUL PUSH1 0x20 ADD ADD DUP2 SWAP1 MSTORE POP POP POP DUP1 DUP1 PUSH2 0xBBA SWAP1 PUSH2 0x126F JUMP JUMPDEST SWAP2 POP POP PUSH2 0x95C JUMP JUMPDEST POP SWAP2 SWAP1 POP JUMP JUMPDEST PUSH1 0x60 DUP3 PUSH2 0xBD4 DUP4 PUSH2 0xBFC JUMP JUMPDEST PUSH1 0x40 MLOAD PUSH1 0x20 ADD PUSH2 0xBE5 SWAP3 SWAP2 SWAP1 PUSH2 0x1288 JUMP JUMPDEST PUSH1 0x40 MLOAD PUSH1 0x20 DUP2 DUP4 SUB SUB DUP2 MSTORE SWAP1 PUSH1 0x40 MSTORE SWAP1 POP SWAP3 SWAP2 POP POP JUMP JUMPDEST PUSH1 0x60 DUP2 PUSH1 0x0 SUB PUSH2 0xC23 JUMPI POP POP PUSH1 0x40 DUP1 MLOAD DUP1 DUP3 ADD SWAP1 SWAP2 MSTORE PUSH1 0x1 DUP2 MSTORE PUSH1 0x3 PUSH1 0xFC SHL PUSH1 0x20 DUP3 ADD MSTORE SWAP1 JUMP JUMPDEST DUP2 PUSH1 0x0 JUMPDEST DUP2 ISZERO PUSH2 0xC4D JUMPI DUP1 PUSH2 0xC37 DUP2 PUSH2 0x126F JUMP JUMPDEST SWAP2 POP PUSH2 0xC46 SWAP1 POP PUSH1 0xA DUP4 PUSH2 0x12DA JUMP JUMPDEST SWAP2 POP PUSH2 0xC27 JUMP JUMPDEST PUSH1 0x0 DUP2 PUSH8 0xFFFFFFFFFFFFFFFF DUP2 GT ISZERO PUSH2 0xC68 JUMPI PUSH2 0xC68 PUSH2 0xDC9 JUMP JUMPDEST PUSH1 0x40 MLOAD SWAP1 DUP1 DUP3 MSTORE DUP1 PUSH1 0x1F ADD PUSH1 0x1F NOT AND PUSH1 0x20 ADD DUP3 ADD PUSH1 0x40 MSTORE DUP1 ISZERO PUSH2 0xC92 JUMPI PUSH1 0x20 DUP3 ADD DUP2 DUP1 CALLDATASIZE DUP4 CALLDATACOPY ADD SWAP1 POP JUMPDEST POP SWAP1 POP JUMPDEST DUP5 ISZERO PUSH2 0xCFD JUMPI PUSH2 0xCA7 PUSH1 0x1 DUP4 PUSH2 0x12EE JUMP JUMPDEST SWAP2 POP PUSH2 0xCB4 PUSH1 0xA DUP7 PUSH2 0x1301 JUMP JUMPDEST PUSH2 0xCBF SWAP1 PUSH1 0x30 PUSH2 0x1315 JUMP JUMPDEST PUSH1 0xF8 SHL DUP2 DUP4 DUP2 MLOAD DUP2 LT PUSH2 0xCD4 JUMPI PUSH2 0xCD4 PUSH2 0x1243 JUMP JUMPDEST PUSH1 0x20 ADD ADD SWAP1 PUSH1 0x1 PUSH1 0x1 PUSH1 0xF8 SHL SUB NOT AND SWAP1 DUP2 PUSH1 0x0 BYTE SWAP1 MSTORE8 POP PUSH2 0xCF6 PUSH1 0xA DUP7 PUSH2 0x12DA JUMP JUMPDEST SWAP5 POP PUSH2 0xC96 JUMP JUMPDEST SWAP5 SWAP4 POP POP POP POP JUMP JUMPDEST PUSH1 0x40 MLOAD DUP1 PUSH1 0xA0 ADD PUSH1 0x40 MSTORE DUP1 PUSH1 0x60 DUP2 MSTORE PUSH1 0x20 ADD PUSH1 0x0 DUP2 MSTORE PUSH1 0x20 ADD PUSH1 0x0 PUSH1 0x1 PUSH1 0x1 PUSH1 0xA0 SHL SUB AND DUP2 MSTORE PUSH1 0x20 ADD PUSH1 0x0 PUSH1 0x1 PUSH1 0x1 PUSH1 0xA0 SHL SUB AND DUP2 MSTORE PUSH1 0x20 ADD PUSH1 0x60 DUP2 MSTORE POP SWAP1 JUMP JUMPDEST PUSH1 0x0 JUMPDEST DUP4 DUP2 LT ISZERO PUSH2 0xD61 JUMPI DUP2 DUP2 ADD MLOAD DUP4 DUP3 ADD MSTORE PUSH1 0x20 ADD PUSH2 0xD49 JUMP JUMPDEST POP POP PUSH1 0x0 SWAP2 ADD MSTORE JUMP JUMPDEST PUSH1 0x0 DUP2 MLOAD DUP1 DUP5 MSTORE PUSH2 0xD82 DUP2 PUSH1 0x20 DUP7 ADD PUSH1 0x20 DUP7 ADD PUSH2 0xD46 JUMP JUMPDEST PUSH1 0x1F ADD PUSH1 0x1F NOT AND SWAP3 SWAP1 SWAP3 ADD PUSH1 0x20 ADD SWAP3 SWAP2 POP POP JUMP JUMPDEST PUSH1 0x20 DUP2 MSTORE PUSH1 0x0 PUSH2 0xDA9 PUSH1 0x20 DUP4 ADD DUP5 PUSH2 0xD6A JUMP JUMPDEST SWAP4 SWAP3 POP POP POP JUMP JUMPDEST PUSH1 0x0 PUSH1 0x20 DUP3 DUP5 SUB SLT ISZERO PUSH2 0xDC2 JUMPI PUSH1 0x0 DUP1 REVERT JUMPDEST POP CALLDATALOAD SWAP2 SWAP1 POP JUMP JUMPDEST PUSH4 0x4E487B71 PUSH1 0xE0 SHL PUSH1 0x0 MSTORE PUSH1 0x41 PUSH1 0x4 MSTORE PUSH1 0x24 PUSH1 0x0 REVERT JUMPDEST PUSH1 0x0 DUP3 PUSH1 0x1F DUP4 ADD SLT PUSH2 0xDF0 JUMPI PUSH1 0x0 DUP1 REVERT JUMPDEST DUP2 CALLDATALOAD PUSH8 0xFFFFFFFFFFFFFFFF DUP1 DUP3 GT ISZERO PUSH2 0xE0B JUMPI PUSH2 0xE0B PUSH2 0xDC9 JUMP JUMPDEST PUSH1 0x40 MLOAD PUSH1 0x1F DUP4 ADD PUSH1 0x1F NOT SWAP1 DUP2 AND PUSH1 0x3F ADD AND DUP2 ADD SWAP1 DUP3 DUP3 GT DUP2 DUP4 LT OR ISZERO PUSH2 0xE33 JUMPI PUSH2 0xE33 PUSH2 0xDC9 JUMP JUMPDEST DUP2 PUSH1 0x40 MSTORE DUP4 DUP2 MSTORE DUP7 PUSH1 0x20 DUP6 DUP9 ADD ADD GT ISZERO PUSH2 0xE4C JUMPI PUSH1 0x0 DUP1 REVERT JUMPDEST DUP4 PUSH1 0x20 DUP8 ADD PUSH1 0x20 DUP4 ADD CALLDATACOPY PUSH1 0x0 PUSH1 0x20 DUP6 DUP4 ADD ADD MSTORE DUP1 SWAP5 POP POP POP POP POP SWAP3 SWAP2 POP POP JUMP JUMPDEST PUSH1 0x0 DUP1 PUSH1 0x40 DUP4 DUP6 SUB SLT ISZERO PUSH2 0xE7F JUMPI PUSH1 0x0 DUP1 REVERT JUMPDEST DUP3 CALLDATALOAD PUSH8 0xFFFFFFFFFFFFFFFF DUP2 GT ISZERO PUSH2 0xE96 JUMPI PUSH1 0x0 DUP1 REVERT JUMPDEST PUSH2 0xEA2 DUP6 DUP3 DUP7 ADD PUSH2 0xDDF JUMP JUMPDEST SWAP6 PUSH1 0x20 SWAP5 SWAP1 SWAP5 ADD CALLDATALOAD SWAP5 POP POP POP POP JUMP JUMPDEST PUSH1 0x0 DUP2 MLOAD PUSH1 0xA0 DUP5 MSTORE PUSH2 0xEC6 PUSH1 0xA0 DUP6 ADD DUP3 PUSH2 0xD6A JUMP JUMPDEST SWAP1 POP PUSH1 0x20 DUP4 ADD MLOAD PUSH1 0x20 DUP6 ADD MSTORE PUSH1 0x40 DUP4 ADD MLOAD PUSH1 0x1 DUP1 PUSH1 0xA0 SHL SUB DUP1 DUP3 AND PUSH1 0x40 DUP8 ADD MSTORE DUP1 PUSH1 0x60 DUP7 ADD MLOAD AND PUSH1 0x60 DUP8 ADD MSTORE POP POP PUSH1 0x80 DUP4 ADD MLOAD DUP5 DUP3 SUB PUSH1 0x80 DUP7 ADD MSTORE PUSH2 0xF0B DUP3 DUP3 PUSH2 0xD6A JUMP JUMPDEST SWAP6 SWAP5 POP POP POP POP POP JUMP JUMPDEST PUSH1 0x20 DUP2 MSTORE PUSH1 0x0 PUSH2 0xDA9 PUSH1 0x20 DUP4 ADD DUP5 PUSH2 0xEB1 JUMP JUMPDEST PUSH1 0x0 PUSH1 0x20 DUP3 DUP5 SUB SLT ISZERO PUSH2 0xF39 JUMPI PUSH1 0x0 DUP1 REVERT JUMPDEST DUP2 CALLDATALOAD PUSH8 0xFFFFFFFFFFFFFFFF DUP2 GT ISZERO PUSH2 0xF50 JUMPI PUSH1 0x0 DUP1 REVERT JUMPDEST PUSH2 0xCFD DUP5 DUP3 DUP6 ADD PUSH2 0xDDF JUMP JUMPDEST PUSH1 0xA0 DUP2 MSTORE PUSH1 0x0 PUSH2 0xF6F PUSH1 0xA0 DUP4 ADD DUP9 PUSH2 0xD6A JUMP JUMPDEST PUSH1 0x20 DUP4 ADD DUP8 SWAP1 MSTORE PUSH1 0x1 PUSH1 0x1 PUSH1 0xA0 SHL SUB DUP7 DUP2 AND PUSH1 0x40 DUP6 ADD MSTORE DUP6 AND PUSH1 0x60 DUP5 ADD MSTORE DUP3 DUP2 SUB PUSH1 0x80 DUP5 ADD MSTORE PUSH2 0xF9F DUP2 DUP6 PUSH2 0xD6A JUMP JUMPDEST SWAP9 SWAP8 POP POP POP POP POP POP POP POP JUMP JUMPDEST DUP1 CALLDATALOAD PUSH1 0x1 PUSH1 0x1 PUSH1 0xA0 SHL SUB DUP2 AND DUP2 EQ PUSH2 0xFC2 JUMPI PUSH1 0x0 DUP1 REVERT JUMPDEST SWAP2 SWAP1 POP JUMP JUMPDEST PUSH1 0x0 DUP1 PUSH1 0x0 DUP1 PUSH1 0x0 PUSH1 0xA0 DUP7 DUP9 SUB SLT ISZERO PUSH2 0xFDF JUMPI PUSH1 0x0 DUP1 REVERT JUMPDEST DUP6 CALLDATALOAD PUSH8 0xFFFFFFFFFFFFFFFF DUP1 DUP3 GT ISZERO PUSH2 0xFF7 JUMPI PUSH1 0x0 DUP1 REVERT JUMPDEST PUSH2 0x1003 DUP10 DUP4 DUP11 ADD PUSH2 0xDDF JUMP JUMPDEST SWAP7 POP PUSH1 0x20 DUP9 ADD CALLDATALOAD SWAP6 POP PUSH2 0x1018 PUSH1 0x40 DUP10 ADD PUSH2 0xFAB JUMP JUMPDEST SWAP5 POP PUSH2 0x1026 PUSH1 0x60 DUP10 ADD PUSH2 0xFAB JUMP JUMPDEST SWAP4 POP PUSH1 0x80 DUP9 ADD CALLDATALOAD SWAP2 POP DUP1 DUP3 GT ISZERO PUSH2 0x103C JUMPI PUSH1 0x0 DUP1 REVERT JUMPDEST POP PUSH2 0x1049 DUP9 DUP3 DUP10 ADD PUSH2 0xDDF JUMP JUMPDEST SWAP2 POP POP SWAP3 SWAP6 POP SWAP3 SWAP6 SWAP1 SWAP4 POP JUMP JUMPDEST PUSH1 0x0 PUSH1 0x20 DUP1 DUP4 ADD DUP2 DUP5 MSTORE DUP1 DUP6 MLOAD DUP1 DUP4 MSTORE PUSH1 0x40 DUP7 ADD SWAP2 POP PUSH1 0x40 DUP2 PUSH1 0x5 SHL DUP8 ADD ADD SWAP3 POP DUP4 DUP8 ADD PUSH1 0x0 JUMPDEST DUP3 DUP2 LT ISZERO PUSH2 0x10AB JUMPI PUSH1 0x3F NOT DUP9 DUP7 SUB ADD DUP5 MSTORE PUSH2 0x1099 DUP6 DUP4 MLOAD PUSH2 0xEB1 JUMP JUMPDEST SWAP5 POP SWAP3 DUP6 ADD SWAP3 SWAP1 DUP6 ADD SWAP1 PUSH1 0x1 ADD PUSH2 0x107D JUMP JUMPDEST POP SWAP3 SWAP8 SWAP7 POP POP POP POP POP POP POP JUMP JUMPDEST PUSH1 0x1 DUP2 DUP2 SHR SWAP1 DUP3 AND DUP1 PUSH2 0x10CC JUMPI PUSH1 0x7F DUP3 AND SWAP2 POP JUMPDEST PUSH1 0x20 DUP3 LT DUP2 SUB PUSH2 0xBC2 JUMPI PUSH4 0x4E487B71 PUSH1 0xE0 SHL PUSH1 0x0 MSTORE PUSH1 0x22 PUSH1 0x4 MSTORE PUSH1 0x24 PUSH1 0x0 REVERT JUMPDEST PUSH1 0x0 DUP3 MLOAD PUSH2 0x10FE DUP2 DUP5 PUSH1 0x20 DUP8 ADD PUSH2 0xD46 JUMP JUMPDEST SWAP2 SWAP1 SWAP2 ADD SWAP3 SWAP2 POP POP JUMP JUMPDEST PUSH1 0x1F DUP3 GT ISZERO PUSH2 0x1152 JUMPI PUSH1 0x0 DUP2 DUP2 MSTORE PUSH1 0x20 DUP2 KECCAK256 PUSH1 0x1F DUP6 ADD PUSH1 0x5 SHR DUP2 ADD PUSH1 0x20 DUP7 LT ISZERO PUSH2 0x112F JUMPI POP DUP1 JUMPDEST PUSH1 0x1F DUP6 ADD PUSH1 0x5 SHR DUP3 ADD SWAP2 POP JUMPDEST DUP2 DUP2 LT ISZERO PUSH2 0x114E JUMPI DUP3 DUP2 SSTORE PUSH1 0x1 ADD PUSH2 0x113B JUMP JUMPDEST POP POP POP JUMPDEST POP POP POP JUMP JUMPDEST DUP2 MLOAD PUSH8 0xFFFFFFFFFFFFFFFF DUP2 GT ISZERO PUSH2 0x1171 JUMPI PUSH2 0x1171 PUSH2 0xDC9 JUMP JUMPDEST PUSH2 0x1185 DUP2 PUSH2 0x117F DUP5 SLOAD PUSH2 0x10B8 JUMP JUMPDEST DUP5 PUSH2 0x1108 JUMP JUMPDEST PUSH1 0x20 DUP1 PUSH1 0x1F DUP4 GT PUSH1 0x1 DUP2 EQ PUSH2 0x11BA JUMPI PUSH1 0x0 DUP5 ISZERO PUSH2 0x11A2 JUMPI POP DUP6 DUP4 ADD MLOAD JUMPDEST PUSH1 0x0 NOT PUSH1 0x3 DUP7 SWAP1 SHL SHR NOT AND PUSH1 0x1 DUP6 SWAP1 SHL OR DUP6 SSTORE PUSH2 0x114E JUMP JUMPDEST PUSH1 0x0 DUP6 DUP2 MSTORE PUSH1 0x20 DUP2 KECCAK256 PUSH1 0x1F NOT DUP7 AND SWAP2 JUMPDEST DUP3 DUP2 LT ISZERO PUSH2 0x11E9 JUMPI DUP9 DUP7 ADD MLOAD DUP3 SSTORE SWAP5 DUP5 ADD SWAP5 PUSH1 0x1 SWAP1 SWAP2 ADD SWAP1 DUP5 ADD PUSH2 0x11CA JUMP JUMPDEST POP DUP6 DUP3 LT ISZERO PUSH2 0x1207 JUMPI DUP8 DUP6 ADD MLOAD PUSH1 0x0 NOT PUSH1 0x3 DUP9 SWAP1 SHL PUSH1 0xF8 AND SHR NOT AND DUP2 SSTORE JUMPDEST POP POP POP POP POP PUSH1 0x1 SWAP1 DUP2 SHL ADD SWAP1 SSTORE POP JUMP JUMPDEST PUSH1 0x1 PUSH1 0x1 PUSH1 0xA0 SHL SUB DUP5 DUP2 AND DUP3 MSTORE DUP4 AND PUSH1 0x20 DUP3 ADD MSTORE PUSH1 0x60 PUSH1 0x40 DUP3 ADD DUP2 SWAP1 MSTORE PUSH1 0x0 SWAP1 PUSH2 0xF0B SWAP1 DUP4 ADD DUP5 PUSH2 0xD6A JUMP JUMPDEST PUSH4 0x4E487B71 PUSH1 0xE0 SHL PUSH1 0x0 MSTORE PUSH1 0x32 PUSH1 0x4 MSTORE PUSH1 0x24 PUSH1 0x0 REVERT JUMPDEST PUSH4 0x4E487B71 PUSH1 0xE0 SHL PUSH1 0x0 MSTORE PUSH1 0x11 PUSH1 0x4 MSTORE PUSH1 0x24 PUSH1 0x0 REVERT JUMPDEST PUSH1 0x0 PUSH1 0x1 DUP3 ADD PUSH2 0x1281 JUMPI PUSH2 0x1281 PUSH2 0x1259 JUMP JUMPDEST POP PUSH1 0x1 ADD SWAP1 JUMP JUMPDEST PUSH1 0x0 DUP4 MLOAD PUSH2 0x129A DUP2 DUP5 PUSH1 0x20 DUP9 ADD PUSH2 0xD46 JUMP JUMPDEST PUSH1 0x5F PUSH1 0xF8 SHL SWAP1 DUP4 ADD SWAP1 DUP2 MSTORE DUP4 MLOAD PUSH2 0x12B8 DUP2 PUSH1 0x1 DUP5 ADD PUSH1 0x20 DUP9 ADD PUSH2 0xD46 JUMP JUMPDEST ADD PUSH1 0x1 ADD SWAP5 SWAP4 POP POP POP POP JUMP JUMPDEST PUSH4 0x4E487B71 PUSH1 0xE0 SHL PUSH1 0x0 MSTORE PUSH1 0x12 PUSH1 0x4 MSTORE PUSH1 0x24 PUSH1 0x0 REVERT JUMPDEST PUSH1 0x0 DUP3 PUSH2 0x12E9 JUMPI PUSH2 0x12E9 PUSH2 0x12C4 JUMP JUMPDEST POP DIV SWAP1 JUMP JUMPDEST DUP2 DUP2 SUB DUP2 DUP2 GT ISZERO PUSH2 0x48F JUMPI PUSH2 0x48F PUSH2 0x1259 JUMP JUMPDEST PUSH1 0x0 DUP3 PUSH2 0x1310 JUMPI PUSH2 0x1310 PUSH2 0x12C4 JUMP JUMPDEST POP MOD SWAP1 JUMP JUMPDEST DUP1 DUP3 ADD DUP1 DUP3 GT ISZERO PUSH2 0x48F JUMPI PUSH2 0x48F PUSH2 0x1259 JUMP INVALID LOG2 PUSH5 0x6970667358 0x22 SLT KECCAK256 DIFFICULTY 0xBC SSTORE MUL 0xB3 SWAP2 DUP16 EQ 0xC6 0xC5 0xC0 PUSH24 0x57BF52F90B397C0FA9885A7A05F2014432419CDA64736F6C PUSH4 0x43000811 STOP CALLER "},"methodIdentifiers":{"admin()":"f851a440","allKeys(uint256)":"3909ba41","bankRegistry(string)":"d42b0133","getAllBankDetails()":"f54f0e56","getBankDetails(string,uint256)":"66acf573","getTokenAddress(string)":"c4091236","name()":"06fdde03","registerBank(string,uint256,address,address,string)":"eddedcb7","tokenAddresses(string)":"935b13f6"}}}}}