{
  "_format": "hh-sol-artifact-1",
  "contractName": "BankDepository",
  "sourceName": "contracts/BankDepository.sol",
  "abi": [
    {
      "inputs": [
        {
          "internalType": "address",
          "name": "usdtAddress",
          "type": "address"
        },
        {
          "internalType": "address",
          "name": "eurtAddress",
          "type": "address"
        }
      ],
      "stateMutability": "nonpayable",
      "type": "constructor"
    },
    {
      "anonymous": false,
      "inputs": [
        {
          "indexed": true,
          "internalType": "string",
          "name": "key",
          "type": "string"
        },
        {
          "indexed": false,
          "internalType": "address",
          "name": "ethAddress",
          "type": "address"
        },
        {
          "indexed": false,
          "internalType": "address",
          "name": "contractAddress",
          "type": "address"
        },
        {
          "indexed": false,
          "internalType": "string",
          "name": "publicKey",
          "type": "string"
        }
      ],
      "name": "BankRegistered",
      "type": "event"
    },
    {
      "inputs": [],
      "name": "admin",
      "outputs": [
        {
          "internalType": "address",
          "name": "",
          "type": "address"
        }
      ],
      "stateMutability": "view",
      "type": "function"
    },
    {
      "inputs": [
        {
          "internalType": "uint256",
          "name": "",
          "type": "uint256"
        }
      ],
      "name": "allKeys",
      "outputs": [
        {
          "internalType": "string",
          "name": "",
          "type": "string"
        }
      ],
      "stateMutability": "view",
      "type": "function"
    },
    {
      "inputs": [
        {
          "internalType": "string",
          "name": "",
          "type": "string"
        }
      ],
      "name": "bankRegistry",
      "outputs": [
        {
          "internalType": "string",
          "name": "market",
          "type": "string"
        },
        {
          "internalType": "uint256",
          "name": "accountNumber",
          "type": "uint256"
        },
        {
          "internalType": "address",
          "name": "ethAddress",
          "type": "address"
        },
        {
          "internalType": "address",
          "name": "contractAddress",
          "type": "address"
        },
        {
          "internalType": "string",
          "name": "publicKey",
          "type": "string"
        }
      ],
      "stateMutability": "view",
      "type": "function"
    },
    {
      "inputs": [],
      "name": "getAllBankDetails",
      "outputs": [
        {
          "components": [
            {
              "internalType": "string",
              "name": "market",
              "type": "string"
            },
            {
              "internalType": "uint256",
              "name": "accountNumber",
              "type": "uint256"
            },
            {
              "internalType": "address",
              "name": "ethAddress",
              "type": "address"
            },
            {
              "internalType": "address",
              "name": "contractAddress",
              "type": "address"
            },
            {
              "internalType": "string",
              "name": "publicKey",
              "type": "string"
            }
          ],
          "internalType": "struct BankDepository.BankDetails[]",
          "name": "",
          "type": "tuple[]"
        }
      ],
      "stateMutability": "view",
      "type": "function"
    },
    {
      "inputs": [
        {
          "internalType": "string",
          "name": "market",
          "type": "string"
        },
        {
          "internalType": "uint256",
          "name": "_accountNumber",
          "type": "uint256"
        }
      ],
      "name": "getBankDetails",
      "outputs": [
        {
          "components": [
            {
              "internalType": "string",
              "name": "market",
              "type": "string"
            },
            {
              "internalType": "uint256",
              "name": "accountNumber",
              "type": "uint256"
            },
            {
              "internalType": "address",
              "name": "ethAddress",
              "type": "address"
            },
            {
              "internalType": "address",
              "name": "contractAddress",
              "type": "address"
            },
            {
              "internalType": "string",
              "name": "publicKey",
              "type": "string"
            }
          ],
          "internalType": "struct BankDepository.BankDetails",
          "name": "",
          "type": "tuple"
        }
      ],
      "stateMutability": "view",
      "type": "function"
    },
    {
      "inputs": [
        {
          "internalType": "string",
          "name": "tokenName",
          "type": "string"
        }
      ],
      "name": "getTokenAddress",
      "outputs": [
        {
          "internalType": "address",
          "name": "",
          "type": "address"
        }
      ],
      "stateMutability": "view",
      "type": "function"
    },
    {
      "inputs": [],
      "name": "name",
      "outputs": [
        {
          "internalType": "string",
          "name": "",
          "type": "string"
        }
      ],
      "stateMutability": "view",
      "type": "function"
    },
    {
      "inputs": [
        {
          "internalType": "string",
          "name": "market",
          "type": "string"
        },
        {
          "internalType": "uint256",
          "name": "_accountNumber",
          "type": "uint256"
        },
        {
          "internalType": "address",
          "name": "_ethAddress",
          "type": "address"
        },
        {
          "internalType": "address",
          "name": "_contractAddress",
          "type": "address"
        },
        {
          "internalType": "string",
          "name": "_publicKey",
          "type": "string"
        }
      ],
      "name": "registerBank",
      "outputs": [],
      "stateMutability": "nonpayable",
      "type": "function"
    },
    {
      "inputs": [
        {
          "internalType": "string",
          "name": "",
          "type": "string"
        }
      ],
      "name": "tokenAddresses",
      "outputs": [
        {
          "internalType": "address",
          "name": "",
          "type": "address"
        }
      ],
      "stateMutability": "view",
      "type": "function"
    }
  ],
  "bytecode": "0x608060405234801561001057600080fd5b5060405161147a38038061147a83398101604081905261002f916100da565b600080546001600160a01b03191633179055604051829060019061005d90631554d11d60e21b815260040190565b9081526040805160209281900392909201822080546001600160a01b03199081166001600160a01b0395861617909155631155549d60e21b83526001600484015290519182900360240190912080549390921692169190911790555061010d565b80516001600160a01b03811681146100d557600080fd5b919050565b600080604083850312156100ed57600080fd5b6100f6836100be565b9150610104602084016100be565b90509250929050565b61135e8061011c6000396000f3fe608060405234801561001057600080fd5b50600436106100935760003560e01c8063c409123611610066578063c40912361461015a578063d42b01331461016d578063eddedcb714610191578063f54f0e56146101a6578063f851a440146101bb57600080fd5b806306fdde03146100985780633909ba41146100db57806366acf573146100ee578063935b13f61461010e575b600080fd5b6100c56040518060400160405280600e81526020016d42616e6b4465706f7369746f727960901b81525081565b6040516100d29190610d96565b60405180910390f35b6100c56100e9366004610db0565b6101ce565b6101016100fc366004610e6c565b61027a565b6040516100d29190610f14565b61014261011c366004610f27565b80516020818301810180516001825292820191909301209152546001600160a01b031681565b6040516001600160a01b0390911681526020016100d2565b610142610168366004610f27565b610495565b61018061017b366004610f27565b6104c6565b6040516100d2959493929190610f5c565b6101a461019f366004610fc7565b610620565b005b6101ae6108fc565b6040516100d29190611056565b600054610142906001600160a01b031681565b600481815481106101de57600080fd5b9060005260206000200160009150905080546101f9906110b8565b80601f0160208091040260200160405190810160405280929190818152602001828054610225906110b8565b80156102725780601f1061024757610100808354040283529160200191610272565b820191906000526020600020905b81548152906001019060200180831161025557829003601f168201915b505050505081565b610282610d05565b600061028e8484610bc8565b905060006001600160a01b03166002826040516102ab91906110ec565b908152604051908190036020019020600201546001600160a01b0316036103105760405162461bcd60e51b81526020600482015260146024820152732130b735903737ba103932b3b4b9ba32b932b21760611b60448201526064015b60405180910390fd5b60028160405161032091906110ec565b90815260200160405180910390206040518060a0016040529081600082018054610349906110b8565b80601f0160208091040260200160405190810160405280929190818152602001828054610375906110b8565b80156103c25780601f10610397576101008083540402835291602001916103c2565b820191906000526020600020905b8154815290600101906020018083116103a557829003601f168201915b50505091835250506001820154602082015260028201546001600160a01b0390811660408301526003830154166060820152600482018054608090920191610409906110b8565b80601f0160208091040260200160405190810160405280929190818152602001828054610435906110b8565b80156104825780601f1061045757610100808354040283529160200191610482565b820191906000526020600020905b81548152906001019060200180831161046557829003601f168201915b5050505050815250509150505b92915050565b60006001826040516104a791906110ec565b908152604051908190036020019020546001600160a01b031692915050565b80516020818301810180516002825292820191909301209152805481906104ec906110b8565b80601f0160208091040260200160405190810160405280929190818152602001828054610518906110b8565b80156105655780601f1061053a57610100808354040283529160200191610565565b820191906000526020600020905b81548152906001019060200180831161054857829003601f168201915b505050600184015460028501546003860154600487018054969793966001600160a01b03938416965091909216935061059d906110b8565b80601f01602080910402602001604051908101604052809291908181526020018280546105c9906110b8565b80156106165780601f106105eb57610100808354040283529160200191610616565b820191906000526020600020905b8154815290600101906020018083116105f957829003601f168201915b5050505050905085565b6001600160a01b038216158061064f57506001600160a01b03821660009081526003602052604090205460ff16155b6106b35760405162461bcd60e51b815260206004820152602f60248201527f436f6e7472616374206164647265737320616c7265616479207265676973746560448201526e3932b21037b91034b73b30b634b21760891b6064820152608401610307565b60006106bf8686610bc8565b905060006001600160a01b03166002826040516106dc91906110ec565b908152604051908190036020019020600201546001600160a01b03161461076b5760405162461bcd60e51b815260206004820152603c60248201527f42616e6b20616c7265616479207265676973746572656420776974682074686960448201527f73206d61726b657420616e64206163636f756e74206e756d6265722e000000006064820152608401610307565b60006040518060a00160405280888152602001878152602001866001600160a01b03168152602001856001600160a01b03168152602001848152509050806002836040516107b991906110ec565b908152604051908190036020019020815181906107d69082611157565b506020820151600182015560408201516002820180546001600160a01b039283166001600160a01b03199182161790915560608401516003840180549190931691161790556080820151600482019061082f9082611157565b5050506001600160a01b03841615610865576001600160a01b0384166000908152600360205260409020805460ff191660011790555b600480546001810182556000919091527f8a35acfbc15ff81a39ae7d344fd709f28e8600b4aa8c65c6b64bfe7fe36bd19b016108a18382611157565b50816040516108b091906110ec565b60405180910390207feb71a6beaee469fc43acd8a0dc17d32ee6dace0a3f2562cbc53c85b01d3a51ee8686866040516108eb93929190611217565b60405180910390a250505050505050565b60045460609060009067ffffffffffffffff81111561091d5761091d610dc9565b60405190808252806020026020018201604052801561095657816020015b610943610d05565b81526020019060019003908161093b5790505b50905060005b600454811015610bc25760006004828154811061097b5761097b611243565b906000526020600020018054610990906110b8565b80601f01602080910402602001604051908101604052809291908181526020018280546109bc906110b8565b8015610a095780601f106109de57610100808354040283529160200191610a09565b820191906000526020600020905b8154815290600101906020018083116109ec57829003601f168201915b505050505090506000600282604051610a2291906110ec565b90815260200160405180910390209050806040518060a0016040529081600082018054610a4e906110b8565b80601f0160208091040260200160405190810160405280929190818152602001828054610a7a906110b8565b8015610ac75780601f10610a9c57610100808354040283529160200191610ac7565b820191906000526020600020905b815481529060010190602001808311610aaa57829003601f168201915b50505091835250506001820154602082015260028201546001600160a01b0390811660408301526003830154166060820152600482018054608090920191610b0e906110b8565b80601f0160208091040260200160405190810160405280929190818152602001828054610b3a906110b8565b8015610b875780601f10610b5c57610100808354040283529160200191610b87565b820191906000526020600020905b815481529060010190602001808311610b6a57829003601f168201915b505050505081525050848481518110610ba257610ba2611243565b602002602001018190525050508080610bba9061126f565b91505061095c565b50919050565b606082610bd483610bfc565b604051602001610be5929190611288565b604051602081830303815290604052905092915050565b606081600003610c235750506040805180820190915260018152600360fc1b602082015290565b8160005b8115610c4d5780610c378161126f565b9150610c469050600a836112da565b9150610c27565b60008167ffffffffffffffff811115610c6857610c68610dc9565b6040519080825280601f01601f191660200182016040528015610c92576020820181803683370190505b5090505b8415610cfd57610ca76001836112ee565b9150610cb4600a86611301565b610cbf906030611315565b60f81b818381518110610cd457610cd4611243565b60200101906001600160f81b031916908160001a905350610cf6600a866112da565b9450610c96565b949350505050565b6040518060a00160405280606081526020016000815260200160006001600160a01b0316815260200160006001600160a01b03168152602001606081525090565b60005b83811015610d61578181015183820152602001610d49565b50506000910152565b60008151808452610d82816020860160208601610d46565b601f01601f19169290920160200192915050565b602081526000610da96020830184610d6a565b9392505050565b600060208284031215610dc257600080fd5b5035919050565b634e487b7160e01b600052604160045260246000fd5b600082601f830112610df057600080fd5b813567ffffffffffffffff80821115610e0b57610e0b610dc9565b604051601f8301601f19908116603f01168101908282118183101715610e3357610e33610dc9565b81604052838152866020858801011115610e4c57600080fd5b836020870160208301376000602085830101528094505050505092915050565b60008060408385031215610e7f57600080fd5b823567ffffffffffffffff811115610e9657600080fd5b610ea285828601610ddf565b95602094909401359450505050565b6000815160a08452610ec660a0850182610d6a565b905060208301516020850152604083015160018060a01b038082166040870152806060860151166060870152505060808301518482036080860152610f0b8282610d6a565b95945050505050565b602081526000610da96020830184610eb1565b600060208284031215610f3957600080fd5b813567ffffffffffffffff811115610f5057600080fd5b610cfd84828501610ddf565b60a081526000610f6f60a0830188610d6a565b602083018790526001600160a01b038681166040850152851660608401528281036080840152610f9f8185610d6a565b98975050505050505050565b80356001600160a01b0381168114610fc257600080fd5b919050565b600080600080600060a08688031215610fdf57600080fd5b853567ffffffffffffffff80821115610ff757600080fd5b61100389838a01610ddf565b96506020880135955061101860408901610fab565b945061102660608901610fab565b9350608088013591508082111561103c57600080fd5b5061104988828901610ddf565b9150509295509295909350565b6000602080830181845280855180835260408601915060408160051b870101925083870160005b828110156110ab57603f19888603018452611099858351610eb1565b9450928501929085019060010161107d565b5092979650505050505050565b600181811c908216806110cc57607f821691505b602082108103610bc257634e487b7160e01b600052602260045260246000fd5b600082516110fe818460208701610d46565b9190910192915050565b601f82111561115257600081815260208120601f850160051c8101602086101561112f5750805b601f850160051c820191505b8181101561114e5782815560010161113b565b5050505b505050565b815167ffffffffffffffff81111561117157611171610dc9565b6111858161117f84546110b8565b84611108565b602080601f8311600181146111ba57600084156111a25750858301515b600019600386901b1c1916600185901b17855561114e565b600085815260208120601f198616915b828110156111e9578886015182559484019460019091019084016111ca565b50858210156112075787850151600019600388901b60f8161c191681555b5050505050600190811b01905550565b6001600160a01b03848116825283166020820152606060408201819052600090610f0b90830184610d6a565b634e487b7160e01b600052603260045260246000fd5b634e487b7160e01b600052601160045260246000fd5b60006001820161128157611281611259565b5060010190565b6000835161129a818460208801610d46565b605f60f81b90830190815283516112b8816001840160208801610d46565b01600101949350505050565b634e487b7160e01b600052601260045260246000fd5b6000826112e9576112e96112c4565b500490565b8181038181111561048f5761048f611259565b600082611310576113106112c4565b500690565b8082018082111561048f5761048f61125956fea264697066735822122044bc5502b3918f14c6c5c07757bf52f90b397c0fa9885a7a05f2014432419cda64736f6c63430008110033",
  "linkReferences": {},
  "deployedLinkReferences": {}
}